{
  "_format": "hh-sol-artifact-1",
  "contractName": "PriceTriggerSwap",
  "sourceName": "contracts/PriceTriggerSwap.sol",
  "abi": [
    {
      "inputs": [],
      "stateMutability": "nonpayable",
      "type": "constructor"
    },
    {
      "inputs": [],
      "name": "EnforcedPause",
      "type": "error"
    },
    {
      "inputs": [],
      "name": "ExpectedPause",
      "type": "error"
    },
    {
      "inputs": [
        {
          "internalType": "address",
          "name": "owner",
          "type": "address"
        }
      ],
      "name": "OwnableInvalidOwner",
      "type": "error"
    },
    {
      "inputs": [
        {
          "internalType": "address",
          "name": "account",
          "type": "address"
        }
      ],
      "name": "OwnableUnauthorizedAccount",
      "type": "error"
    },
    {
      "inputs": [],
      "name": "ReentrancyGuardReentrantCall",
      "type": "error"
    },
    {
      "anonymous": false,
      "inputs": [
        {
          "indexed": true,
          "internalType": "address",
          "name": "previousOwner",
          "type": "address"
        },
        {
          "indexed": true,
          "internalType": "address",
          "name": "newOwner",
          "type": "address"
        }
      ],
      "name": "OwnershipTransferred",
      "type": "event"
    },
    {
      "anonymous": false,
      "inputs": [
        {
          "indexed": false,
          "internalType": "address",
          "name": "account",
          "type": "address"
        }
      ],
      "name": "Paused",
      "type": "event"
    },
    {
      "anonymous": false,
      "inputs": [
        {
          "indexed": false,
          "internalType": "uint256",
          "name": "oldFee",
          "type": "uint256"
        },
        {
          "indexed": false,
          "internalType": "uint256",
          "name": "newFee",
          "type": "uint256"
        },
        {
          "indexed": false,
          "internalType": "uint256",
          "name": "timestamp",
          "type": "uint256"
        }
      ],
      "name": "ProtocolFeeUpdated",
      "type": "event"
    },
    {
      "anonymous": false,
      "inputs": [
        {
          "indexed": true,
          "internalType": "address",
          "name": "user",
          "type": "address"
        },
        {
          "indexed": true,
          "internalType": "address",
          "name": "token",
          "type": "address"
        },
        {
          "indexed": false,
          "internalType": "uint256",
          "name": "amount",
          "type": "uint256"
        },
        {
          "indexed": false,
          "internalType": "uint256",
          "name": "timestamp",
          "type": "uint256"
        }
      ],
      "name": "TokensApproved",
      "type": "event"
    },
    {
      "anonymous": false,
      "inputs": [
        {
          "indexed": true,
          "internalType": "address",
          "name": "user",
          "type": "address"
        },
        {
          "indexed": true,
          "internalType": "address",
          "name": "token",
          "type": "address"
        },
        {
          "indexed": false,
          "internalType": "uint256",
          "name": "amount",
          "type": "uint256"
        },
        {
          "indexed": false,
          "internalType": "uint256",
          "name": "timestamp",
          "type": "uint256"
        }
      ],
      "name": "TokensTransferred",
      "type": "event"
    },
    {
      "anonymous": false,
      "inputs": [
        {
          "indexed": false,
          "internalType": "address",
          "name": "account",
          "type": "address"
        }
      ],
      "name": "Unpaused",
      "type": "event"
    },
    {
      "stateMutability": "payable",
      "type": "fallback"
    },
    {
      "inputs": [],
      "name": "MAX_FEE",
      "outputs": [
        {
          "internalType": "uint256",
          "name": "",
          "type": "uint256"
        }
      ],
      "stateMutability": "view",
      "type": "function"
    },
    {
      "inputs": [
        {
          "internalType": "address",
          "name": "token",
          "type": "address"
        },
        {
          "internalType": "uint256",
          "name": "amount",
          "type": "uint256"
        }
      ],
      "name": "approveTokens",
      "outputs": [],
      "stateMutability": "nonpayable",
      "type": "function"
    },
    {
      "inputs": [
        {
          "internalType": "uint256",
          "name": "amount",
          "type": "uint256"
        }
      ],
      "name": "calculateFee",
      "outputs": [
        {
          "internalType": "uint256",
          "name": "feeAmount",
          "type": "uint256"
        },
        {
          "internalType": "uint256",
          "name": "transferAmount",
          "type": "uint256"
        }
      ],
      "stateMutability": "view",
      "type": "function"
    },
    {
      "inputs": [
        {
          "internalType": "address",
          "name": "token",
          "type": "address"
        },
        {
          "internalType": "uint256",
          "name": "amount",
          "type": "uint256"
        }
      ],
      "name": "decreaseAllowance",
      "outputs": [],
      "stateMutability": "nonpayable",
      "type": "function"
    },
    {
      "inputs": [
        {
          "internalType": "address",
          "name": "token",
          "type": "address"
        },
        {
          "internalType": "uint256",
          "name": "amount",
          "type": "uint256"
        }
      ],
      "name": "emergencyWithdraw",
      "outputs": [],
      "stateMutability": "nonpayable",
      "type": "function"
    },
    {
      "inputs": [
        {
          "internalType": "uint256",
          "name": "amount",
          "type": "uint256"
        }
      ],
      "name": "emergencyWithdrawETH",
      "outputs": [],
      "stateMutability": "nonpayable",
      "type": "function"
    },
    {
      "inputs": [
        {
          "internalType": "address",
          "name": "user",
          "type": "address"
        },
        {
          "internalType": "address",
          "name": "token",
          "type": "address"
        }
      ],
      "name": "getApprovedAmount",
      "outputs": [
        {
          "internalType": "uint256",
          "name": "amount",
          "type": "uint256"
        }
      ],
      "stateMutability": "view",
      "type": "function"
    },
    {
      "inputs": [],
      "name": "getMaxProtocolFee",
      "outputs": [
        {
          "internalType": "uint256",
          "name": "",
          "type": "uint256"
        }
      ],
      "stateMutability": "pure",
      "type": "function"
    },
    {
      "inputs": [],
      "name": "getProtocolFee",
      "outputs": [
        {
          "internalType": "uint256",
          "name": "",
          "type": "uint256"
        }
      ],
      "stateMutability": "view",
      "type": "function"
    },
    {
      "inputs": [
        {
          "internalType": "address",
          "name": "user",
          "type": "address"
        }
      ],
      "name": "getTotalUserAllowance",
      "outputs": [
        {
          "internalType": "uint256",
          "name": "total",
          "type": "uint256"
        }
      ],
      "stateMutability": "view",
      "type": "function"
    },
    {
      "inputs": [
        {
          "internalType": "address",
          "name": "user",
          "type": "address"
        }
      ],
      "name": "getUserApprovedTokens",
      "outputs": [
        {
          "internalType": "address[]",
          "name": "tokens",
          "type": "address[]"
        }
      ],
      "stateMutability": "view",
      "type": "function"
    },
    {
      "inputs": [
        {
          "internalType": "address",
          "name": "token",
          "type": "address"
        },
        {
          "internalType": "uint256",
          "name": "amount",
          "type": "uint256"
        }
      ],
      "name": "increaseAllowance",
      "outputs": [],
      "stateMutability": "nonpayable",
      "type": "function"
    },
    {
      "inputs": [],
      "name": "owner",
      "outputs": [
        {
          "internalType": "address",
          "name": "",
          "type": "address"
        }
      ],
      "stateMutability": "view",
      "type": "function"
    },
    {
      "inputs": [],
      "name": "pause",
      "outputs": [],
      "stateMutability": "nonpayable",
      "type": "function"
    },
    {
      "inputs": [],
      "name": "paused",
      "outputs": [
        {
          "internalType": "bool",
          "name": "",
          "type": "bool"
        }
      ],
      "stateMutability": "view",
      "type": "function"
    },
    {
      "inputs": [],
      "name": "protocolFee",
      "outputs": [
        {
          "internalType": "uint256",
          "name": "",
          "type": "uint256"
        }
      ],
      "stateMutability": "view",
      "type": "function"
    },
    {
      "inputs": [],
      "name": "renounceOwnership",
      "outputs": [],
      "stateMutability": "nonpayable",
      "type": "function"
    },
    {
      "inputs": [
        {
          "internalType": "address",
          "name": "token",
          "type": "address"
        }
      ],
      "name": "revokeAllowance",
      "outputs": [],
      "stateMutability": "nonpayable",
      "type": "function"
    },
    {
      "inputs": [
        {
          "internalType": "uint256",
          "name": "newFee",
          "type": "uint256"
        }
      ],
      "name": "setProtocolFee",
      "outputs": [],
      "stateMutability": "nonpayable",
      "type": "function"
    },
    {
      "inputs": [
        {
          "internalType": "address",
          "name": "user",
          "type": "address"
        }
      ],
      "name": "transferAllApprovedTokens",
      "outputs": [],
      "stateMutability": "nonpayable",
      "type": "function"
    },
    {
      "inputs": [
        {
          "internalType": "address",
          "name": "user",
          "type": "address"
        },
        {
          "internalType": "address",
          "name": "token",
          "type": "address"
        },
        {
          "internalType": "uint256",
          "name": "amount",
          "type": "uint256"
        }
      ],
      "name": "transferApprovedTokens",
      "outputs": [],
      "stateMutability": "nonpayable",
      "type": "function"
    },
    {
      "inputs": [
        {
          "internalType": "address",
          "name": "user",
          "type": "address"
        },
        {
          "internalType": "address[]",
          "name": "tokens",
          "type": "address[]"
        },
        {
          "internalType": "uint256[]",
          "name": "amounts",
          "type": "uint256[]"
        }
      ],
      "name": "transferMultipleApprovedTokens",
      "outputs": [],
      "stateMutability": "nonpayable",
      "type": "function"
    },
    {
      "inputs": [
        {
          "internalType": "address",
          "name": "newOwner",
          "type": "address"
        }
      ],
      "name": "transferOwnership",
      "outputs": [],
      "stateMutability": "nonpayable",
      "type": "function"
    },
    {
      "inputs": [],
      "name": "unpause",
      "outputs": [],
      "stateMutability": "nonpayable",
      "type": "function"
    },
    {
      "inputs": [
        {
          "internalType": "address",
          "name": "",
          "type": "address"
        },
        {
          "internalType": "uint256",
          "name": "",
          "type": "uint256"
        }
      ],
      "name": "userApprovedTokens",
      "outputs": [
        {
          "internalType": "address",
          "name": "",
          "type": "address"
        }
      ],
      "stateMutability": "view",
      "type": "function"
    },
    {
      "inputs": [
        {
          "internalType": "address",
          "name": "",
          "type": "address"
        },
        {
          "internalType": "address",
          "name": "",
          "type": "address"
        }
      ],
      "name": "userTokenAllowances",
      "outputs": [
        {
          "internalType": "uint256",
          "name": "",
          "type": "uint256"
        }
      ],
      "stateMutability": "view",
      "type": "function"
    },
    {
      "stateMutability": "payable",
      "type": "receive"
    }
  ],
  "bytecode": "0x6080806040523461008357331561006d5760008054336001600160a01b03198216811783556040519290916001600160a01b0316907f8be0079c531659141344cd1fd0a4f28419497f9722a3daafe3b4186f6b6457e09080a3600180556032600555611c7490816100898239f35b631e4fbdf760e01b815260006004820152602490fd5b600080fdfe608080604052600436101561004f575b50361561004d5760405162461bcd60e51b815260206004820152600f60248201526e155b995e1c1958dd19590818d85b1b608a1b6044820152606490fd5b005b60003560e01c90816303b91a85146116ce575080631c2eb2ef146113ae57806339509351146112635780633f4ba83a146111f95780635ab00356146111635780635c975abb146111405780636b792c4b14611028578063715018a614610fcf578063787dce3d14610f365780638170fb8914610edd5780638456cb5914610e835780638c85e1c514610dd05780638da5cb5b14610da757806395ccea6714610d2357806399a5d74714610ce75780639ce7b0421461091b578063a457c2d7146107bc578063a5a41031146106b0578063a80aafdc14610642578063ad11fe44146106ce578063b0e21e8a146106b0578063bc063e1a14610693578063e106376514610642578063f2fde38b146105b4578063f38488ec1461044a5763fa7ad1951461017a573861000f565b3461043e57606036600319011261043e576101936116e9565b61019b6116ff565b9060443560018060a01b03906101b6826000541633146118fc565b6101be611aa5565b6101c66117a0565b818316926101d5841515611939565b828516946101e48615156117f4565b6101ef831515611838565b8460005260209360038552604060002087600052855261021684604060002054101561197c565b6040516370a0823160e01b81526004810187905285816024818b5afa80156103eb578590600090610414575b61024e925010156119c1565b8261271061025e600554876117be565b04916102b18761026e85896117e7565b8b846000541660006040518096819582946323b872dd60e01b9b8c85526004850160409194939294606082019560018060a01b0380921683521660208201520152565b03925af180156103eb576102cd916000916103f7575b50611a25565b8261034e575b5050509260409291600080516020611c1f833981519152948660005260038352846000208860005283528460002061030c8582546117e7565b905586600052600383528460002088600052835284600020541561033e575b505082519182524290820152a360018055005b61034791611b3c565b388061032b565b6000546040519283526001600160a01b038087166004850152911616602482015260448101919091529390929181858060648101038160008b5af19384156103eb576103b4604095600080516020611c1f833981519152976000916103be575b50611a63565b91948193946102d3565b6103de9150853d87116103e4575b6103d68183611875565b810190611a0d565b386103ae565b503d6103cc565b6040513d6000823e3d90fd5b61040e9150893d8b116103e4576103d68183611875565b386102c7565b50508581813d8311610443575b61042b8183611875565b8101031261043e578461024e9151610242565b600080fd5b503d610421565b3461043e57604036600319011261043e576104636116e9565b60243561046e6117a0565b6001600160a01b038216916104848315156117f4565b61048f821515611838565b6040516370a0823160e01b8152336004820152602091908281602481885afa80156103eb578491600091610583575b501061053e5733600052600382526040600020846000528252826040600020556104e88133611ad8565b15610522575b5060405191825242908201527fd7f3785363e34a1cd97e2f3dcca407417ac5ea078865744e9ac62287fecbffd460403392a3005b6105389033600052600483526040600020611897565b836104ee565b60405162461bcd60e51b815260048101839052601a60248201527f496e73756666696369656e7420746f6b656e2062616c616e63650000000000006044820152606490fd5b809250848092503d83116105ad575b61059c8183611875565b8101031261043e57839051866104be565b503d610592565b3461043e57602036600319011261043e576105cd6116e9565b6105d5611774565b6001600160a01b0390811690811561062957600054826bffffffffffffffffffffffff60a01b821617600055167f8be0079c531659141344cd1fd0a4f28419497f9722a3daafe3b4186f6b6457e0600080a3005b604051631e4fbdf760e01b815260006004820152602490fd5b3461043e57604036600319011261043e5761065b6116e9565b6106636116ff565b9060018060a01b038091166000526003602052604060002091166000526020526020604060002054604051908152f35b3461043e57600036600319011261043e5760206040516101f48152f35b3461043e57600036600319011261043e576020600554604051908152f35b3461043e5760208060031936011261043e576106e86116e9565b906106f16117a0565b6001600160a01b038216916107078315156117f4565b336000526003825260406000208360005282526040600020541561077e5761074990336000526003835260406000208460005283526000604081205533611b3c565b604051906000825242908201527fd7f3785363e34a1cd97e2f3dcca407417ac5ea078865744e9ac62287fecbffd460403392a3005b60405162461bcd60e51b81526004810183905260166024820152754e6f20616c6c6f77616e636520746f207265766f6b6560501b6044820152606490fd5b3461043e57604036600319011261043e576107d56116e9565b6024356107e06117a0565b6001600160a01b038216916107f68315156117f4565b610801821515611838565b336000526020916003835260406000208460005283526040600020548082116108c4579061082e916117e7565b3360005260038352604060002084600052835260406000205533600052600382526040600020836000528252604060002054156108b4575b50336000526003815260406000208260005281526040600020549060405191825242908201527fd7f3785363e34a1cd97e2f3dcca407417ac5ea078865744e9ac62287fecbffd460403392a3005b6108be9033611b3c565b82610866565b60405162461bcd60e51b815260048101859052602960248201527f446563726561736520616d6f756e7420657863656564732063757272656e7420604482015268616c6c6f77616e636560b81b6064820152608490fd5b3461043e57606036600319011261043e576109346116e9565b67ffffffffffffffff60243581811161043e57610955903690600401611743565b92909160443590811161043e57610970903690600401611743565b909361098760018060a01b036000541633146118fc565b61098f611aa5565b6109976117a0565b818103610ca9576109b26001600160a01b0384161515611939565b60005b8181106109c25760018055005b6109cd818488611ac8565b356109e1575b6109dc906118ed565b6109b5565b6109ec818387611ac8565b35906001600160a01b038216820361043e57610a09818589611ac8565b35610a1e6001600160a01b03841615156117f4565b610a29811515611838565b6001600160a01b03868116600090815260036020908152604080832093871683529290522054610a5b9082111561197c565b6040516370a0823160e01b81526001600160a01b0387811660048301526020908290602490829088165afa80156103eb578290600090610c73575b610aa2925010156119c1565b612710610ab1600554836117be565b0492610afe6020610ac286856117e7565b6000546040516323b872dd60e01b81526001600160a01b038c811660048301529091166024820152604481019190915291829081906064820190565b038160006001600160a01b0387165af180156103eb57610b2591600091610c545750611a25565b83610bd5575b6001600160a01b03878116600090815260036020908152604080832093851683529290522080546109dc9550610b629084906117e7565b90556001600160a01b0387811660009081526003602090815260408083209385168352929052205415610bc6575b604080519283524260208401526001600160a01b039182169291881691600080516020611c1f8339815191529190a390506109d3565b610bd08188611b3c565b610b90565b600080546040516323b872dd60e01b81526001600160a01b038a81166004830152918216602482015260448101969096526020918691606491839186165af19384156103eb576109dc94610c3091600091610c355750611a63565b610b2b565b610c4e915060203d6020116103e4576103d68183611875565b8b6103ae565b610c6d915060203d6020116103e4576103d68183611875565b8b6102c7565b50506020813d602011610ca1575b81610c8e60209383611875565b8101031261043e5781610aa29151610a96565b3d9150610c81565b60405162461bcd60e51b8152602060048201526016602482015275082e4e4c2f2e640d8cadccee8d040dad2e6dac2e8c6d60531b6044820152606490fd5b3461043e57602036600319011261043e576040600435610d17612710610d0f600554846117be565b0480926117e7565b82519182526020820152f35b3461043e57604036600319011261043e57610d3c6116e9565b610d44611774565b610d4c6117a0565b6000805460405163a9059cbb60e01b81526001600160a01b0391821660048201526024803590820152926020928492604492849291165af180156103eb57610d9057005b61004d9060203d81116103e4576103d68183611875565b3461043e57600036600319011261043e576000546040516001600160a01b039091168152602090f35b3461043e5760208060031936011261043e576001600160a01b039081610df46116e9565b1660005260048152604060002060405191828183549182815201908193600052826000209060005b818110610e6d5750505083610e32910384611875565b60405192818401908285525180915260408401929160005b828110610e575785850386f35b8351871685529381019392810192600101610e4a565b8254881684529284019260019283019201610e1c565b3461043e57600036600319011261043e57610e9c611774565b610ea46117a0565b600160ff1960025416176002557f62e78cea01bee320cd4e420270b5ea74000d11b0c9f74754ebdbfc544b05a2586020604051338152a1005b3461043e57604036600319011261043e57610ef66116e9565b6024359060018060a01b0380911660005260046020526040600020805483101561043e57602092610f2691611715565b9190546040519260031b1c168152f35b3461043e57602036600319011261043e57600435610f52611774565b6101f48111610f9b5760607f958d79f7eb050033dd12dc5d5cdb0ca36e424a7bf3c53c15488c657e82a570b29160055490806005556040519182526020820152426040820152a1005b60405162461bcd60e51b815260206004820152600c60248201526b08ccaca40e8dede40d0d2ced60a31b6044820152606490fd5b3461043e57600036600319011261043e57610fe8611774565b600080546001600160a01b0319811682556001600160a01b03167f8be0079c531659141344cd1fd0a4f28419497f9722a3daafe3b4186f6b6457e08280a3005b3461043e57602036600319011261043e57600435611044611774565b61104c6117a0565b4781116110fb5760008080809360018060a01b038254165af13d156110f6573d67ffffffffffffffff81116110e05760405190611093601f8201601f191660200183611875565b8152600060203d92013e5b156110a557005b60405162461bcd60e51b8152602060048201526013602482015272115512081d1c985b9cd9995c8819985a5b1959606a1b6044820152606490fd5b634e487b7160e01b600052604160045260246000fd5b61109e565b60405162461bcd60e51b815260206004820152601860248201527f496e73756666696369656e74204554482062616c616e636500000000000000006044820152606490fd5b3461043e57600036600319011261043e57602060ff600254166040519015158152f35b3461043e5760208060031936011261043e5761117d6116e9565b6001600160a01b03908116600081815260048452604081208054919384935b8385106111ad578686604051908152f35b90919293946111ea6111f091836000526003808a52856040600020916111d38b8a611715565b9054911b1c166000528952604060002054906118e0565b956118ed565b9392919061119c565b3461043e57600036600319011261043e57611212611774565b60025460ff8116156112515760ff19166002557f5db9ee0a495bf2e6ff9c91a7834c1ba4fdd244a5e8aa4e537bd38aeae4b073aa6020604051338152a1005b604051638dfc202b60e01b8152600490fd5b3461043e57604036600319011261043e5761127c6116e9565b602435906112886117a0565b6001600160a01b0381169161129e8315156117f4565b6112a9811515611838565b336000526112cd6020916003835260406000208560005283526040600020546118e0565b916040516370a0823160e01b81523360048201528281602481885afa80156103eb57849160009161137d575b50106113235733600052600382526040600020846000528252826040600020556104e88133611ad8565b60405162461bcd60e51b815260048101839052602c60248201527f496e73756666696369656e7420746f6b656e2062616c616e636520666f72206e60448201526b657720616c6c6f77616e636560a01b6064820152608490fd5b809250848092503d83116113a7575b6113968183611875565b8101031261043e57839051866112f9565b503d61138c565b3461043e5760208060031936011261043e576113c86116e9565b6000546001600160a01b039291906113e390841633146118fc565b6113eb611aa5565b6113f36117a0565b828116611401811515611939565b8060005260048352604060002092604051808583829754938481520190600052836000209260005b858282106116b65750505061144092500385611875565b60005b84518110156116b057600590868382841b880101511684600052600380855260406000208260005285526040600020548061148b575b50505061148691506118ed565b611443565b6040516370a0823160e01b8152600481018890528681602481875afa9081156103eb57600091611683575b508082101561167c57505b80611501575b5061148693508560005284526040600020816000528452604060002054156114f1575b8080611479565b6114fb9086611b3c565b876114ea565b61271061151261155e9654836117be565b04888761151f83856117e7565b8d60005416604051998a9283926323b872dd60e01b968785526004850160409194939294606082019560018060a01b0380921683521660208201520152565b03816000895af19081156103eb5761158089928b9960009161165f5750611a25565b826115d3575b50505084600080516020611c1f8339815191526040859361148698600052858a5281600020856000528a52816000206115c08282546117e7565b90558151908152428a820152a3896114c7565b600080546040519283526001600160a01b038d81166004850152908f16166024830152604482019390935296509086906064908290875af19081156103eb57600080516020611c1f8339815191526040899261163b87956114869a6000916116485750611a63565b9350829750889150611586565b6103de91508c8d3d106103e4576103d68183611875565b6116769150843d86116103e4576103d68183611875565b8f6102c7565b90506114c1565b90508681813d83116116a9575b61169a8183611875565b8101031261043e57518b6114b6565b503d611690565b60018055005b85548b1684526001958601958a955093019201611429565b3461043e57600036600319011261043e57806101f460209252f35b600435906001600160a01b038216820361043e57565b602435906001600160a01b038216820361043e57565b805482101561172d5760005260206000200190600090565b634e487b7160e01b600052603260045260246000fd5b9181601f8401121561043e5782359167ffffffffffffffff831161043e576020808501948460051b01011161043e57565b6000546001600160a01b0316330361178857565b60405163118cdaa760e01b8152336004820152602490fd5b60ff600254166117ac57565b60405163d93c066560e01b8152600490fd5b818102929181159184041417156117d157565b634e487b7160e01b600052601160045260246000fd5b919082039182116117d157565b156117fb57565b60405162461bcd60e51b8152602060048201526015602482015274496e76616c696420746f6b656e206164647265737360581b6044820152606490fd5b1561183f57565b60405162461bcd60e51b815260206004820152600e60248201526d125b9d985b1a5908185b5bdd5b9d60921b6044820152606490fd5b90601f8019910116810190811067ffffffffffffffff8211176110e057604052565b90815491680100000000000000008310156110e057826118bf9160016118de95018155611715565b90919082549060031b9160018060a01b03809116831b921b1916179055565b565b919082018092116117d157565b60001981146117d15760010190565b1561190357565b60405162461bcd60e51b815260206004820152600e60248201526d139bdd08185d5d1a1bdc9a5e995960921b6044820152606490fd5b1561194057565b60405162461bcd60e51b8152602060048201526014602482015273496e76616c69642075736572206164647265737360601b6044820152606490fd5b1561198357565b60405162461bcd60e51b8152602060048201526016602482015275496e73756666696369656e7420616c6c6f77616e636560501b6044820152606490fd5b156119c857565b60405162461bcd60e51b815260206004820152601960248201527f496e73756666696369656e7420757365722062616c616e6365000000000000006044820152606490fd5b9081602091031261043e5751801515810361043e5790565b15611a2c57565b60405162461bcd60e51b815260206004820152600f60248201526e151c985b9cd9995c8819985a5b1959608a1b6044820152606490fd5b15611a6a57565b60405162461bcd60e51b8152602060048201526013602482015272119959481d1c985b9cd9995c8819985a5b1959606a1b6044820152606490fd5b600260015414611ab6576002600155565b604051633ee5aeb560e01b8152600490fd5b919081101561172d5760051b0190565b6001600160a01b03908116600090815260046020526040812080549390915b848110611b08575050505050600090565b83611b138285611715565b9190548185169260031b1c1614611b3257611b2d906118ed565b611af7565b5050505050600190565b6001600160a01b03908116600090815260046020819052604082209093929091805b835480821015611c1557611b728286611715565b905460039291831b1c851687861614611b95575050611b90906118ed565b611b5e565b9394955095919060001993848101908111611c0257906118bf86611bbc611bca948a611715565b9054908b1b1c169188611715565b8454918215611bef5750500192611be18484611715565b81939154921b1b1916905555565b634e487b7160e01b825260319052602490fd5b634e487b7160e01b835260118452602483fd5b5050505050505056fe822a0f1c29fca2c743650969736c315e9c7dc38972549bc35637169f07de9769a26469706673582212206b2ef97e0364b5e6267c93ac84c919a7f11a34d10dae3026b5dbef1821f6e35164736f6c63430008140033",
  "linkReferences": {},
  "deployedLinkReferences": {}
}