{
  "_format": "hh-sol-artifact-1",
  "contractName": "WHYPE",
  "sourceName": "contracts/WHYPE.sol",
  "abi": [
    {
      "inputs": [],
      "stateMutability": "nonpayable",
      "type": "constructor"
    },
    {
      "inputs": [
        {
          "internalType": "address",
          "name": "spender",
          "type": "address"
        },
        {
          "internalType": "uint256",
          "name": "allowance",
          "type": "uint256"
        },
        {
          "internalType": "uint256",
          "name": "needed",
          "type": "uint256"
        }
      ],
      "name": "ERC20InsufficientAllowance",
      "type": "error"
    },
    {
      "inputs": [
        {
          "internalType": "address",
          "name": "sender",
          "type": "address"
        },
        {
          "internalType": "uint256",
          "name": "balance",
          "type": "uint256"
        },
        {
          "internalType": "uint256",
          "name": "needed",
          "type": "uint256"
        }
      ],
      "name": "ERC20InsufficientBalance",
      "type": "error"
    },
    {
      "inputs": [
        {
          "internalType": "address",
          "name": "approver",
          "type": "address"
        }
      ],
      "name": "ERC20InvalidApprover",
      "type": "error"
    },
    {
      "inputs": [
        {
          "internalType": "address",
          "name": "receiver",
          "type": "address"
        }
      ],
      "name": "ERC20InvalidReceiver",
      "type": "error"
    },
    {
      "inputs": [
        {
          "internalType": "address",
          "name": "sender",
          "type": "address"
        }
      ],
      "name": "ERC20InvalidSender",
      "type": "error"
    },
    {
      "inputs": [
        {
          "internalType": "address",
          "name": "spender",
          "type": "address"
        }
      ],
      "name": "ERC20InvalidSpender",
      "type": "error"
    },
    {
      "inputs": [
        {
          "internalType": "address",
          "name": "owner",
          "type": "address"
        }
      ],
      "name": "OwnableInvalidOwner",
      "type": "error"
    },
    {
      "inputs": [
        {
          "internalType": "address",
          "name": "account",
          "type": "address"
        }
      ],
      "name": "OwnableUnauthorizedAccount",
      "type": "error"
    },
    {
      "anonymous": false,
      "inputs": [
        {
          "indexed": true,
          "internalType": "address",
          "name": "owner",
          "type": "address"
        },
        {
          "indexed": true,
          "internalType": "address",
          "name": "spender",
          "type": "address"
        },
        {
          "indexed": false,
          "internalType": "uint256",
          "name": "value",
          "type": "uint256"
        }
      ],
      "name": "Approval",
      "type": "event"
    },
    {
      "anonymous": false,
      "inputs": [
        {
          "indexed": true,
          "internalType": "address",
          "name": "previousOwner",
          "type": "address"
        },
        {
          "indexed": true,
          "internalType": "address",
          "name": "newOwner",
          "type": "address"
        }
      ],
      "name": "OwnershipTransferred",
      "type": "event"
    },
    {
      "anonymous": false,
      "inputs": [
        {
          "indexed": true,
          "internalType": "address",
          "name": "from",
          "type": "address"
        },
        {
          "indexed": true,
          "internalType": "address",
          "name": "to",
          "type": "address"
        },
        {
          "indexed": false,
          "internalType": "uint256",
          "name": "value",
          "type": "uint256"
        }
      ],
      "name": "Transfer",
      "type": "event"
    },
    {
      "anonymous": false,
      "inputs": [
        {
          "indexed": true,
          "internalType": "address",
          "name": "user",
          "type": "address"
        },
        {
          "indexed": false,
          "internalType": "uint256",
          "name": "amount",
          "type": "uint256"
        }
      ],
      "name": "Unwrapped",
      "type": "event"
    },
    {
      "anonymous": false,
      "inputs": [
        {
          "indexed": true,
          "internalType": "address",
          "name": "user",
          "type": "address"
        },
        {
          "indexed": false,
          "internalType": "uint256",
          "name": "amount",
          "type": "uint256"
        }
      ],
      "name": "Wrapped",
      "type": "event"
    },
    {
      "inputs": [
        {
          "internalType": "address",
          "name": "owner",
          "type": "address"
        },
        {
          "internalType": "address",
          "name": "spender",
          "type": "address"
        }
      ],
      "name": "allowance",
      "outputs": [
        {
          "internalType": "uint256",
          "name": "",
          "type": "uint256"
        }
      ],
      "stateMutability": "view",
      "type": "function"
    },
    {
      "inputs": [
        {
          "internalType": "address",
          "name": "spender",
          "type": "address"
        },
        {
          "internalType": "uint256",
          "name": "value",
          "type": "uint256"
        }
      ],
      "name": "approve",
      "outputs": [
        {
          "internalType": "bool",
          "name": "",
          "type": "bool"
        }
      ],
      "stateMutability": "nonpayable",
      "type": "function"
    },
    {
      "inputs": [
        {
          "internalType": "address",
          "name": "account",
          "type": "address"
        }
      ],
      "name": "balanceOf",
      "outputs": [
        {
          "internalType": "uint256",
          "name": "",
          "type": "uint256"
        }
      ],
      "stateMutability": "view",
      "type": "function"
    },
    {
      "inputs": [
        {
          "internalType": "uint256",
          "name": "amount",
          "type": "uint256"
        }
      ],
      "name": "burn",
      "outputs": [],
      "stateMutability": "nonpayable",
      "type": "function"
    },
    {
      "inputs": [
        {
          "internalType": "address",
          "name": "from",
          "type": "address"
        },
        {
          "internalType": "uint256",
          "name": "amount",
          "type": "uint256"
        }
      ],
      "name": "burnFrom",
      "outputs": [],
      "stateMutability": "nonpayable",
      "type": "function"
    },
    {
      "inputs": [],
      "name": "decimals",
      "outputs": [
        {
          "internalType": "uint8",
          "name": "",
          "type": "uint8"
        }
      ],
      "stateMutability": "view",
      "type": "function"
    },
    {
      "inputs": [
        {
          "internalType": "uint256",
          "name": "amount",
          "type": "uint256"
        }
      ],
      "name": "emergencyWithdraw",
      "outputs": [],
      "stateMutability": "nonpayable",
      "type": "function"
    },
    {
      "inputs": [],
      "name": "getHYPEBalance",
      "outputs": [
        {
          "internalType": "uint256",
          "name": "",
          "type": "uint256"
        }
      ],
      "stateMutability": "view",
      "type": "function"
    },
    {
      "inputs": [
        {
          "internalType": "address",
          "name": "to",
          "type": "address"
        },
        {
          "internalType": "uint256",
          "name": "amount",
          "type": "uint256"
        }
      ],
      "name": "mint",
      "outputs": [],
      "stateMutability": "nonpayable",
      "type": "function"
    },
    {
      "inputs": [],
      "name": "name",
      "outputs": [
        {
          "internalType": "string",
          "name": "",
          "type": "string"
        }
      ],
      "stateMutability": "view",
      "type": "function"
    },
    {
      "inputs": [],
      "name": "owner",
      "outputs": [
        {
          "internalType": "address",
          "name": "",
          "type": "address"
        }
      ],
      "stateMutability": "view",
      "type": "function"
    },
    {
      "inputs": [],
      "name": "renounceOwnership",
      "outputs": [],
      "stateMutability": "nonpayable",
      "type": "function"
    },
    {
      "inputs": [],
      "name": "symbol",
      "outputs": [
        {
          "internalType": "string",
          "name": "",
          "type": "string"
        }
      ],
      "stateMutability": "view",
      "type": "function"
    },
    {
      "inputs": [],
      "name": "totalSupply",
      "outputs": [
        {
          "internalType": "uint256",
          "name": "",
          "type": "uint256"
        }
      ],
      "stateMutability": "view",
      "type": "function"
    },
    {
      "inputs": [
        {
          "internalType": "address",
          "name": "to",
          "type": "address"
        },
        {
          "internalType": "uint256",
          "name": "value",
          "type": "uint256"
        }
      ],
      "name": "transfer",
      "outputs": [
        {
          "internalType": "bool",
          "name": "",
          "type": "bool"
        }
      ],
      "stateMutability": "nonpayable",
      "type": "function"
    },
    {
      "inputs": [
        {
          "internalType": "address",
          "name": "from",
          "type": "address"
        },
        {
          "internalType": "address",
          "name": "to",
          "type": "address"
        },
        {
          "internalType": "uint256",
          "name": "value",
          "type": "uint256"
        }
      ],
      "name": "transferFrom",
      "outputs": [
        {
          "internalType": "bool",
          "name": "",
          "type": "bool"
        }
      ],
      "stateMutability": "nonpayable",
      "type": "function"
    },
    {
      "inputs": [
        {
          "internalType": "address",
          "name": "newOwner",
          "type": "address"
        }
      ],
      "name": "transferOwnership",
      "outputs": [],
      "stateMutability": "nonpayable",
      "type": "function"
    },
    {
      "inputs": [
        {
          "internalType": "uint256",
          "name": "amount",
          "type": "uint256"
        }
      ],
      "name": "unwrap",
      "outputs": [],
      "stateMutability": "nonpayable",
      "type": "function"
    },
    {
      "inputs": [],
      "name": "wrap",
      "outputs": [],
      "stateMutability": "payable",
      "type": "function"
    },
    {
      "stateMutability": "payable",
      "type": "receive"
    }
  ],
  "bytecode": "0x60803462000375576001600160401b03906040908082018381118282101762000276578252600c81526020906b57726170706564204859504560a01b82820152825193838501858110828211176200027657845260059485815264574859504560d81b84820152825182811162000276576003918254916001958684811c941680156200036a575b8885101462000354578190601f94858111620002ff575b50889085831160011462000298576000926200028c575b505060001982861b1c191690861b1783555b8051938411620002765760049586548681811c911680156200026b575b8282101462000256578381116200020d575b50809285116001146200019f575093839491849260009562000193575b50501b92600019911b1c19161781555b33156200017d57508154336001600160a01b031982168117909355905191906001600160a01b03167f8be0079c531659141344cd1fd0a4f28419497f9722a3daafe3b4186f6b6457e0600080a3610d3990816200037b8239f35b60006024925191631e4fbdf760e01b8352820152fd5b01519350388062000113565b92919084601f1981168860005285600020956000905b89838310620001f25750505010620001d7575b50505050811b01815562000123565b01519060f884600019921b161c1916905538808080620001c8565b858701518955909701969485019488935090810190620001b5565b8760005281600020848088018c1c8201928489106200024c575b018b1c019087905b8281106200023f575050620000f6565b600081550187906200022f565b9250819262000227565b602288634e487b7160e01b6000525260246000fd5b90607f1690620000e4565b634e487b7160e01b600052604160045260246000fd5b015190503880620000b5565b90889350601f19831691876000528a6000209260005b8c828210620002e85750508411620002cf575b505050811b018355620000c7565b015160001983881b60f8161c19169055388080620002c1565b8385015186558c97909501949384019301620002ae565b9091508560005288600020858085018d1c8201928b86106200034a575b918d8b928796959401901c01915b8281106200033a5750506200009e565b600081558594508a91016200032a565b925081926200031c565b634e487b7160e01b600052602260045260246000fd5b93607f169362000087565b600080fdfe60806040818152600480361015610021575b505050361561001f57600080fd5b005b600092833560e01c90816306fdde031461079957508063095ea7b3146106f057806318160ddd146106d157806323b872dd14610694578063313ce5671461067857806340c10f191461064b57806342966c681461062d5780635312ea8e146105a857806370a0823114610571578063715018a61461051157806379cc6790146104675780638da5cb5b1461043e57806395d89b411461033a578063a02df6891461031f578063a9059cbb146102ee578063d46eb1191461029f578063dd62ed3e14610252578063de0e9a3e1461018d5763f2fde38b036100115734610189576020366003190112610189576101146108d8565b9061011d610909565b6001600160a01b03918216928315610173575050600554826bffffffffffffffffffffffff60a01b821617600555167f8be0079c531659141344cd1fd0a4f28419497f9722a3daafe3b4186f6b6457e08380a380f35b51631e4fbdf760e01b8152908101849052602490fd5b8280fd5b509034610189576020366003190112610189578135916101ae831515610b1e565b3384528360205282828520541061021057506101ca8233610c64565b6101e38380808086335af16101dd610be1565b50610c21565b519081527f95ae649bfaaef9def56a52f4fb2d9e8fa5496bb7082930e442c74cc76b03dcb360203392a280f35b6020606492519162461bcd60e51b8352820152601a60248201527f496e73756666696369656e742057485950452062616c616e63650000000000006044820152fd5b50503461029b578060031936011261029b57806020926102706108d8565b6102786108f3565b6001600160a01b0391821683526001865283832091168252845220549051908152f35b5080fd5b50508160031936011261029b576102b7341515610b1e565b6102c13433610b6a565b513481527f4700c1726b4198077cd40320a32c45265a1910521eb0ef713dd1d8412413d7fc60203392a280f35b50503461029b578060031936011261029b5760209061031861030e6108d8565b602435903361096d565b5160018152f35b50503461029b578160031936011261029b5751478152602090f35b5091903461029b578160031936011261029b57805191809380549160019083821c92828516948515610434575b6020958686108114610421578589529081156103fd57506001146103a5575b6103a18787610397828c0383610935565b519182918261088f565b0390f35b81529295507f8a35acfbc15ff81a39ae7d344fd709f28e8600b4aa8c65c6b64bfe7fe36bd19b5b8284106103ea57505050826103a19461039792820101943880610386565b80548685018801529286019281016103cc565b60ff19168887015250505050151560051b8301019250610397826103a13880610386565b634e487b7160e01b845260228352602484fd5b93607f1693610367565b50503461029b578160031936011261029b5760055490516001600160a01b039091168152602090f35b5082903461029b578260031936011261029b576104826108d8565b6024359160018060a01b038216845260016020528484203385526020528285852054106104c25750906104bf916104ba823383610a4b565b610c64565b80f35b608490602086519162461bcd60e51b83528201526024808201527f45524332303a206275726e20616d6f756e74206578636565647320616c6c6f77604482015263616e636560e01b6064820152fd5b833461056e578060031936011261056e5761052a610909565b600580546001600160a01b0319811690915581906001600160a01b03167f8be0079c531659141344cd1fd0a4f28419497f9722a3daafe3b4186f6b6457e08280a380f35b80fd5b50503461029b57602036600319011261029b5760209181906001600160a01b036105996108d8565b16815280845220549051908152f35b5034610189576020366003190112610189578035916105c5610909565b4783116105ea57836104bf818080808860018060a01b03600554165af16101dd610be1565b906020606492519162461bcd60e51b8352820152601960248201527f496e73756666696369656e7420485950452062616c616e6365000000000000006044820152fd5b83823461029b57602036600319011261029b576104bf903533610c64565b50503461029b5736600319011261056e576104bf6106676108d8565b61066f610909565b60243590610b6a565b50503461029b578160031936011261029b576020905160128152f35b50503461029b57606036600319011261029b576020906103186106b56108d8565b6106bd6108f3565b604435916106cc833383610a4b565b61096d565b50503461029b578160031936011261029b576020906002549051908152f35b50346101895781600319360112610189576107096108d8565b602435903315610782576001600160a01b031691821561076b57508083602095338152600187528181208582528752205582519081527f8c5be1e5ebec7d5bd14f71427d1e84f3dd0314c0f7b2291e5b200ac8c7c3b925843392a35160018152f35b8351634a1406b160e11b8152908101859052602490fd5b835163e602df0560e01b8152808401869052602490fd5b929190503461088b578360031936011261088b57600354600181811c9186908281168015610881575b602095868610821461086e575084885290811561084c57506001146107f3575b6103a18686610397828b0383610935565b929550600383527fc2575a0e9e593c00f959f8c92f12db2869c3395a3b0502d05e2516446f71f85b5b82841061083957505050826103a1946103979282010194386107e2565b805486850188015292860192810161081c565b60ff191687860152505050151560051b8301019250610397826103a1386107e2565b634e487b7160e01b845260229052602483fd5b93607f16936107c2565b8380fd5b6020808252825181830181905290939260005b8281106108c457505060409293506000838284010152601f8019910116010190565b8181018601518482016040015285016108a2565b600435906001600160a01b03821682036108ee57565b600080fd5b602435906001600160a01b03821682036108ee57565b6005546001600160a01b0316330361091d57565b60405163118cdaa760e01b8152336004820152602490fd5b90601f8019910116810190811067ffffffffffffffff82111761095757604052565b634e487b7160e01b600052604160045260246000fd5b916001600160a01b03808416928315610a325716928315610a1957600090838252816020526040822054908382106109e7575091604082827fddf252ad1be2c89b69c2b068fc378daa952ba7f163c4a11628f55a4df523b3ef958760209652828652038282205586815220818154019055604051908152a3565b60405163391434e360e21b81526001600160a01b03919091166004820152602481019190915260448101839052606490fd5b60405163ec442f0560e01b815260006004820152602490fd5b604051634b637e8f60e11b815260006004820152602490fd5b9160018060a01b038093169160009383855260016020526040938486209183169182875260205284862054926000198410610a8a575b50505050505050565b848410610aee57508015610ad6578115610abe57855260016020528385209085526020520391205538808080808080610a81565b8451634a1406b160e11b815260048101879052602490fd5b845163e602df0560e01b815260048101879052602490fd5b8551637dc7a0d960e11b81526001600160a01b039190911660048201526024810184905260448101859052606490fd5b15610b2557565b60405162461bcd60e51b815260206004820152601d60248201527f416d6f756e74206d7573742062652067726561746572207468616e20300000006044820152606490fd5b6001600160a01b0316908115610a195760025490808201809211610bcb5760207fddf252ad1be2c89b69c2b068fc378daa952ba7f163c4a11628f55a4df523b3ef9160009360025584845283825260408420818154019055604051908152a3565b634e487b7160e01b600052601160045260246000fd5b3d15610c1c573d9067ffffffffffffffff82116109575760405191610c10601f8201601f191660200184610935565b82523d6000602084013e565b606090565b15610c2857565b60405162461bcd60e51b815260206004820152601460248201527312165411481d1c985b9cd9995c8819985a5b195960621b6044820152606490fd5b906001600160a01b038216908115610a325760009282845283602052604084205490828210610cd15750817fddf252ad1be2c89b69c2b068fc378daa952ba7f163c4a11628f55a4df523b3ef926020928587528684520360408620558060025403600255604051908152a3565b60405163391434e360e21b81526001600160a01b03919091166004820152602481019190915260448101829052606490fdfea26469706673582212202dbb0dee1d5b4d6c84dd56f856449af69574addc9da68fd8cc8ebda45de67f5564736f6c63430008140033",
  "linkReferences": {},
  "deployedLinkReferences": {}
}