{"contracts/PriceTriggerSwap.sol":{"PriceTriggerSwap":{"abi":[{"inputs":[],"stateMutability":"nonpayable","type":"constructor"},{"inputs":[],"name":"EnforcedPause","type":"error"},{"inputs":[],"name":"ExpectedPause","type":"error"},{"inputs":[{"internalType":"address","name":"owner","type":"address"}],"name":"OwnableInvalidOwner","type":"error"},{"inputs":[{"internalType":"address","name":"account","type":"address"}],"name":"OwnableUnauthorizedAccount","type":"error"},{"inputs":[],"name":"ReentrancyGuardReentrantCall","type":"error"},{"anonymous":false,"inputs":[{"indexed":true,"internalType":"address","name":"user","type":"address"},{"indexed":false,"internalType":"uint256","name":"amount","type":"uint256"},{"indexed":false,"internalType":"uint256","name":"timestamp","type":"uint256"}],"name":"GasDeposited","type":"event"},{"anonymous":false,"inputs":[{"indexed":true,"internalType":"address","name":"user","type":"address"},{"indexed":false,"internalType":"uint256","name":"amount","type":"uint256"},{"indexed":false,"internalType":"uint256","name":"timestamp","type":"uint256"}],"name":"GasRefunded","type":"event"},{"anonymous":false,"inputs":[{"indexed":true,"internalType":"address","name":"previousOwner","type":"address"},{"indexed":true,"internalType":"address","name":"newOwner","type":"address"}],"name":"OwnershipTransferred","type":"event"},{"anonymous":false,"inputs":[{"indexed":false,"internalType":"address","name":"account","type":"address"}],"name":"Paused","type":"event"},{"anonymous":false,"inputs":[{"indexed":true,"internalType":"address","name":"user","type":"address"},{"indexed":true,"internalType":"address","name":"tokenIn","type":"address"},{"indexed":true,"internalType":"address","name":"tokenOut","type":"address"},{"indexed":false,"internalType":"uint256","name":"amountIn","type":"uint256"},{"indexed":false,"internalType":"uint256","name":"amountOut","type":"uint256"},{"indexed":false,"internalType":"uint256","name":"timestamp","type":"uint256"},{"indexed":false,"internalType":"string","name":"triggerId","type":"string"},{"indexed":false,"internalType":"uint256","name":"gasUsed","type":"uint256"}],"name":"SwapExecuted","type":"event"},{"anonymous":false,"inputs":[{"indexed":true,"internalType":"string","name":"triggerId","type":"string"},{"indexed":true,"internalType":"address","name":"user","type":"address"},{"indexed":false,"internalType":"string","name":"reason","type":"string"},{"indexed":false,"internalType":"uint256","name":"timestamp","type":"uint256"}],"name":"SwapFailed","type":"event"},{"anonymous":false,"inputs":[{"indexed":false,"internalType":"address","name":"account","type":"address"}],"name":"Unpaused","type":"event"},{"stateMutability":"payable","type":"fallback"},{"inputs":[],"name":"GLUEX_QUOTE_ENDPOINT","outputs":[{"internalType":"string","name":"","type":"string"}],"stateMutability":"view","type":"function"},{"inputs":[],"name":"GLUEX_ROUTER","outputs":[{"internalType":"address","name":"","type":"address"}],"stateMutability":"view","type":"function"},{"inputs":[],"name":"MAX_FEE","outputs":[{"internalType":"uint256","name":"","type":"uint256"}],"stateMutability":"view","type":"function"},{"inputs":[],"name":"NATIVE_TOKEN","outputs":[{"internalType":"address","name":"","type":"address"}],"stateMutability":"view","type":"function"},{"inputs":[],"name":"WHYPE_TOKEN","outputs":[{"internalType":"address","name":"","type":"address"}],"stateMutability":"view","type":"function"},{"inputs":[{"internalType":"address","name":"","type":"address"}],"name":"authorizedCallers","outputs":[{"internalType":"bool","name":"","type":"bool"}],"stateMutability":"view","type":"function"},{"inputs":[{"internalType":"string","name":"swapId","type":"string"}],"name":"cancelSwapRequest","outputs":[],"stateMutability":"nonpayable","type":"function"},{"inputs":[{"internalType":"string","name":"swapId","type":"string"},{"internalType":"address","name":"user","type":"address"},{"internalType":"address","name":"tokenIn","type":"address"},{"internalType":"address","name":"tokenOut","type":"address"},{"internalType":"uint256","name":"amountIn","type":"uint256"},{"internalType":"uint256","name":"minAmountOut","type":"uint256"}],"name":"createSwapRequest","outputs":[],"stateMutability":"nonpayable","type":"function"},{"inputs":[],"name":"depositGas","outputs":[],"stateMutability":"payable","type":"function"},{"inputs":[{"internalType":"address","name":"token","type":"address"},{"internalType":"uint256","name":"amount","type":"uint256"}],"name":"emergencyWithdraw","outputs":[],"stateMutability":"nonpayable","type":"function"},{"inputs":[{"internalType":"uint256","name":"amount","type":"uint256"}],"name":"emergencyWithdrawHYPE","outputs":[],"stateMutability":"nonpayable","type":"function"},{"inputs":[],"name":"estimatedGasPerSwap","outputs":[{"internalType":"uint256","name":"","type":"uint256"}],"stateMutability":"view","type":"function"},{"inputs":[{"internalType":"string","name":"swapId","type":"string"}],"name":"executeSwap","outputs":[],"stateMutability":"nonpayable","type":"function"},{"inputs":[{"internalType":"string","name":"swapId","type":"string"}],"name":"getSwapRequest","outputs":[{"components":[{"internalType":"address","name":"user","type":"address"},{"internalType":"address","name":"tokenIn","type":"address"},{"internalType":"address","name":"tokenOut","type":"address"},{"internalType":"uint256","name":"amountIn","type":"uint256"},{"internalType":"uint256","name":"minAmountOut","type":"uint256"},{"internalType":"bool","name":"isActive","type":"bool"},{"internalType":"uint256","name":"createdAt","type":"uint256"},{"internalType":"uint256","name":"gasReserved","type":"uint256"}],"internalType":"struct PriceTriggerSwap.SwapRequest","name":"","type":"tuple"}],"stateMutability":"view","type":"function"},{"inputs":[{"internalType":"address","name":"user","type":"address"}],"name":"getUserGasBalance","outputs":[{"internalType":"uint256","name":"","type":"uint256"}],"stateMutability":"view","type":"function"},{"inputs":[{"internalType":"address","name":"user","type":"address"}],"name":"getUserSwaps","outputs":[{"internalType":"string[]","name":"","type":"string[]"}],"stateMutability":"view","type":"function"},{"inputs":[],"name":"owner","outputs":[{"internalType":"address","name":"","type":"address"}],"stateMutability":"view","type":"function"},{"inputs":[],"name":"pause","outputs":[],"stateMutability":"nonpayable","type":"function"},{"inputs":[],"name":"paused","outputs":[{"internalType":"bool","name":"","type":"bool"}],"stateMutability":"view","type":"function"},{"inputs":[],"name":"protocolFee","outputs":[{"internalType":"uint256","name":"","type":"uint256"}],"stateMutability":"view","type":"function"},{"inputs":[],"name":"renounceOwnership","outputs":[],"stateMutability":"nonpayable","type":"function"},{"inputs":[{"internalType":"address","name":"caller","type":"address"},{"internalType":"bool","name":"isAuthorized","type":"bool"}],"name":"setAuthorizedCaller","outputs":[],"stateMutability":"nonpayable","type":"function"},{"inputs":[{"internalType":"uint256","name":"newGasEstimate","type":"uint256"}],"name":"setEstimatedGasPerSwap","outputs":[],"stateMutability":"nonpayable","type":"function"},{"inputs":[{"internalType":"uint256","name":"newFee","type":"uint256"}],"name":"setProtocolFee","outputs":[],"stateMutability":"nonpayable","type":"function"},{"inputs":[{"internalType":"string","name":"","type":"string"}],"name":"swapRequests","outputs":[{"internalType":"address","name":"user","type":"address"},{"internalType":"address","name":"tokenIn","type":"address"},{"internalType":"address","name":"tokenOut","type":"address"},{"internalType":"uint256","name":"amountIn","type":"uint256"},{"internalType":"uint256","name":"minAmountOut","type":"uint256"},{"internalType":"bool","name":"isActive","type":"bool"},{"internalType":"uint256","name":"createdAt","type":"uint256"},{"internalType":"uint256","name":"gasReserved","type":"uint256"}],"stateMutability":"view","type":"function"},{"inputs":[{"internalType":"address","name":"newOwner","type":"address"}],"name":"transferOwnership","outputs":[],"stateMutability":"nonpayable","type":"function"},{"inputs":[],"name":"unpause","outputs":[],"stateMutability":"nonpayable","type":"function"},{"inputs":[{"internalType":"address","name":"","type":"address"}],"name":"userGasDeposits","outputs":[{"internalType":"uint256","name":"","type":"uint256"}],"stateMutability":"view","type":"function"},{"inputs":[{"internalType":"address","name":"","type":"address"},{"internalType":"uint256","name":"","type":"uint256"}],"name":"userSwapIds","outputs":[{"internalType":"string","name":"","type":"string"}],"stateMutability":"view","type":"function"},{"inputs":[{"internalType":"uint256","name":"amount","type":"uint256"}],"name":"withdrawGas","outputs":[],"stateMutability":"nonpayable","type":"function"},{"stateMutability":"payable","type":"receive"}],"evm":{"bytecode":{"linkReferences":{},"object":"608080604052346100a557331561008f5760008054336001600160a01b0319821681178355604080519390929091906001600160a01b03167f8be0079c531659141344cd1fd0a4f28419497f9722a3daafe3b4186f6b6457e08380a3600180556032600755662386f26fc10000600855338152600660205220600160ff1982541617905561219890816100ab8239f35b631e4fbdf760e01b815260006004820152602490fd5b600080fdfe6080806040526004908136101561009d575b50361561004e5760649060206040519162461bcd60e51b8352820152600f60248201526e155b995e1c1958dd19590818d85b1b608a1b6044820152fd5b33600052600560205260406000206100673482546119e6565b90556040513481524260208201527fbeaea95c6bf16edeaceb13f9155dd3ddf0da63acd6de7ebaa62e433e4336c2b660403392a2005b600090813560e01c9081630ab81e45146115a85750806310386bb41461158a57806317d87c4d146110a557806331f7d964146110765780633f4ba83a1461100b578063454bbd2914610fb5578063473c389714610ef65780634a159fc114610e77578063536fff6c14610e385780635c975abb14610e1557806363f8bb0314610d01578063715018a614610ca7578063770333d614610c8b578063787dce3d14610c2a5780637938187314610b385780638456cb5914610add5780638c73c00014610a715780638da5cb5b14610a4a57806391657544146108bd57806392c4b289146105c357806395ccea67146105175780639e9a2c431461034b578063ae9bb692146104aa578063b0e21e8a1461048c578063b477033514610384578063bb383c691461034b578063bc063e1a1461032b578063c89e02f71461029c578063dcd6df781461027a5763f2fde38b036100115790346102765760203660031901126102765761020a6116af565b61021261181b565b6001600160a01b0390811691821561025e575082546001600160a01b0319811683178455167f8be0079c531659141344cd1fd0a4f28419497f9722a3daafe3b4186f6b6457e08380a380f35b604051631e4fbdf760e01b8152908101849052602490fd5b5080fd5b5090346102765760203660031901126102765761029561181b565b3560085580f35b509034610276576020366003190112610276578035906102ba61181b565b4782116102e75750818080806102e49460018060a01b038254165af16102de6120ef565b5061211f565b80f35b60649060206040519162461bcd60e51b8352820152601960248201527f496e73756666696369656e7420485950452062616c616e6365000000000000006044820152fd5b503461034857806003193601126103485760206040516101f48152f35b80fd5b5034610348576020366003190112610348576020906040906001600160a01b036103736116af565b168152600583522054604051908152f35b5090346102765760209081600319360112610488576001600160a01b036103a96116af565b168352808252604083209081549067ffffffffffffffff821161047557509192604051926103dc858260051b0185611625565b8084528484018093835285832083915b8383106104515750505050604051928484019085855251809152604084019460408260051b8601019392955b8287106104255785850386f35b909192938280610441600193603f198a820301865288516117f6565b9601920196019592919092610418565b6001888192610463859b9a989b611750565b815201920192019190969395966103ec565b634e487b7160e01b855260419052602484fd5b8280fd5b50346103485780600319360112610348576020600754604051908152f35b5080600319360112610348576104be611930565b6104c9341515611884565b3381526005602052604081206104e03482546119e6565b90556040513481524260208201527fbeaea95c6bf16edeaceb13f9155dd3ddf0da63acd6de7ebaa62e433e4336c2b660403392a280f35b50903461027657604036600319011261027657602061057a916105386116af565b61054061181b565b84546040805163a9059cbb60e01b81526001600160a01b039283169481019485526024356020860152958694859389939092859290910190565b0393165af180156105b85761058d575080f35b6105ad9060203d81116105b1575b6105a58183611625565b8101906119f3565b5080f35b503d61059b565b6040513d84823e3d90fd5b509034610276576020908160031936011261048857803567ffffffffffffffff81116108b9576105f69036908301611663565b903384526006835260ff60408520541680156108a6575b61061690611847565b604051928251938184019461062c8183886116c5565b60039082018181528290038301909120546001600160a01b039190610654908316151561194e565b61068060ff600560405186818061066f8d8d519283916116c5565b81018781520301902001541661199a565b6040518381875161069281838c6116c5565b810184815203019020956001968388820154168585835416604460405180948193636eb1769f60e11b83528c8301523060248301525afa91821561089b5784918b93610864575b5001541161082757836107309161071f60405183818b516106fb8183886116c5565b810188815203019020868154168c5260058452600760408d205491015411156118c1565b604051809381928a519283916116c5565b81018481520301902083838883015416938254166024604051809681936370a0823160e01b83528a8301525afa92831561081c5788936107e9575b500154116107a7575060028354146107985750610793906002835561078e611930565b611a78565b805580f35b604051633ee5aeb560e01b8152fd5b60405162461bcd60e51b815291820152601a60248201527f496e73756666696369656e7420746f6b656e2062616c616e63650000000000006044820152606490fd5b9092508381813d8311610815575b6108018183611625565b810103126108115751913861076b565b8780fd5b503d6107f7565b6040513d8a823e3d90fd5b60405162461bcd60e51b81528086018590526016602482015275496e73756666696369656e7420616c6c6f77616e636560501b6044820152606490fd5b87809294508193503d8311610894575b61087e8183611625565b810103126108905783905191386106d9565b8980fd5b503d610874565b6040513d8c823e3d90fd5b5083546001600160a01b0316331461060d565b8380fd5b50903461027657602080600319360112610488578135916108dc611930565b6108e7831515611884565b33845260059081835261090084604087205410156118c1565b3385528083526040852080548691825b8281106109e65750505061092e90338752838552604087205461190d565b8411610992575033845281526040832061094983825461190d565b905561095e8380808086335af16102de6120ef565b60405191825242908201527fa19d57269317c281371ffe2b730b52866df4324ba61a647a735c5837c13aefd760403392a280f35b60405162461bcd60e51b8152908101839052602760248201527f416d6f756e74206578636565647320617661696c61626c6520666f72207769746044820152661a191c985dd85b60ca1b6064820152608490fd5b60ff866109fc6109f684866116e8565b5061205c565b015416610a28575b6000198114610a1557600101610910565b634e487b7160e01b895260118552602489fd5b92610a44906007610a3c6109f687866116e8565b0154906119e6565b92610a04565b5034610348578060031936011261034857546040516001600160a01b039091168152602090f35b5034610348578060031936011261034857610ad9604051610a9181611609565b602181527f68747470733a2f2f726f757465722e676c7565782e78797a2f76312f71756f746020820152606560f81b60408201526040519182916020835260208301906117f6565b0390f35b5034610348578060031936011261034857610af661181b565b610afe611930565b600160ff1960025416176002557f62e78cea01bee320cd4e420270b5ea74000d11b0c9f74754ebdbfc544b05a2586020604051338152a180f35b509034610276576020908160031936011261048857803567ffffffffffffffff81116108b957610bc18361010095610b7860e095610bd095369101611663565b9085604051610b86816115d6565b82815282858201528260408201528260608201528260808201528260a08201528260c0820152015281604051938285809451938492016116c5565b81016003815203019020611a0b565b6040519260018060a01b0390818351168552818184015116908501526040820151166040840152606081015160608401526080810151608084015260a0810151151560a084015260c081015160c0840152015160e0820152f35b50903461027657602036600319011261027657803590610c4861181b565b6101f48211610c58575060075580f35b60649060206040519162461bcd60e51b8352820152600c60248201526b08ccaca40e8dede40d0d2ced60a31b6044820152fd5b5034610348578060031936011261034857602090604051908152f35b5034610348578060031936011261034857610cc061181b565b80546001600160a01b03198116825581906001600160a01b03167f8be0079c531659141344cd1fd0a4f28419497f9722a3daafe3b4186f6b6457e08280a380f35b509034610276576020908160031936011261048857803567ffffffffffffffff81116108b957600591610d3691369101611663565b913384526006815260ff6040852054168015610e02575b610d5690611847565b610dcd8160405194805190610d9283820192610d73818a866116c5565b880160038152888560018060a01b039a8b93030190205416151561194e565b610dbc60ff8760405186818651610daa81838b6116c5565b8101600381520301902001541661199a565b6040519384928392519283916116c5565b810160038152030190209282840160ff1981541690556007840154935416845252610dfd604083209182546119e6565b905580f35b5083546001600160a01b03163314610d4d565b5034610348578060031936011261034857602060ff600254166040519015158152f35b50346103485760203660031901126103485760209060ff906040906001600160a01b03610e636116af565b168152600684522054166040519015158152f35b503461034857604036600319011261034857610e916116af565b6001600160a01b03168152602082905260408120805460243591908210156104885790610ebd916116e8565b929092610ee457610ad9610ed084611750565b6040519182916020835260208301906117f6565b634e487b7160e01b8252819052602490fd5b5090346102765760203660031901126102765780359167ffffffffffffffff83116103485750610f446020610f316101009436908501611663565b81604051938285809451938492016116c5565b8101600381520301902060018060a01b039081815416928260018301541692600283015416906003830154908301549060ff6005850154169260076006860154950154956040519788526020880152604087015260608601526080850152151560a084015260c083015260e0820152f35b503461034857604036600319011261034857610fcf6116af565b6024358015158103610488576102e491610fe761181b565b60018060a01b031683526006602052604083209060ff801983541691151516179055565b50903461027657816003193601126102765761102561181b565b6002549060ff821615611067575060ff19166002557f5db9ee0a495bf2e6ff9c91a7834c1ba4fdd244a5e8aa4e537bd38aeae4b073aa6020604051338152a180f35b604051638dfc202b60e01b8152fd5b5034610348578060031936011261034857602060405173eeeeeeeeeeeeeeeeeeeeeeeeeeeeeeeeeeeeeeee8152f35b50346103485760c036600319011261034857813567ffffffffffffffff8111610276576110d59036908401611663565b916024356001600160a01b0381168103610488576044356001600160a01b03811681036108b957606435906001600160a01b038216820361158657338552600660205260ff6040862054168015611573575b61113090611847565b611138611930565b85511561153d576001600160a01b03831615611502576001600160a01b0381161515806114f0575b156114ac576111726084351515611884565b6040518651611185818360208b016116c5565b60039082019081528190036020019020546001600160a01b031661146f57600790866112e86008549260018060a01b038716895260056020526111ce8460408b205410156118c1565b6001600160a01b038716895260056020526040892080546111f090869061190d565b9055604051956111ff876115d6565b60018060a01b0388168752602087019160018060a01b03168252604087019060018060a01b03168152606087016084358152608088019160a435835260a08901936001855261126b602060c08c0198428a5260e08d019a8b5281604051938285809451938492016116c5565b810160038152030190209960018060a01b03905116906bffffffffffffffffffffffff60a01b91828c5416178b5560018b019060018060a01b039051168282541617905560028a019160018060a01b03905116908254161790555160038801555188870155511515600586019060ff801983541691151516179055565b516006840155519101556001600160a01b031682526020819052604082208054906801000000000000000082101561145c579061132a916001820181556116e8565b91909161144a5783519067ffffffffffffffff8211611437575061134e8254611716565b601f81116113f2575b506020601f821160011461139257839482939492611387575b50508160011b916000199060031b1c191617905580f35b015190503880611370565b8284526020842090601f198316855b8181106113da575095836001959697106113c1575b505050811b01905580f35b015160001960f88460031b161c191690553880806113b6565b9192602060018192868b0151815501940192016113a1565b82845260208420601f830160051c8101916020841061142d575b601f0160051c01905b8181106114225750611357565b848155600101611415565b909150819061140c565b634e487b7160e01b845260419052602483fd5b634e487b7160e01b8352829052602482fd5b634e487b7160e01b845260418352602484fd5b60405162461bcd60e51b815260208186015260166024820152755377617020494420616c72656164792065786973747360501b6044820152606490fd5b60405162461bcd60e51b8152602081860152601760248201527f496e76616c696420746f6b656e206164647265737365730000000000000000006044820152606490fd5b506001600160a01b0382161515611160565b60405162461bcd60e51b81526020818601526014602482015273496e76616c69642075736572206164647265737360601b6044820152606490fd5b60405162461bcd60e51b8152602081860152600f60248201526e125b9d985b1a59081cddd85c081251608a1b6044820152606490fd5b5084546001600160a01b03163314611127565b8480fd5b50346103485780600319360112610348576020600854604051908152f35b9050346102765781600319360112610276578073555555555555555555555555555555555555555560209252f35b610100810190811067ffffffffffffffff8211176115f357604052565b634e487b7160e01b600052604160045260246000fd5b6060810190811067ffffffffffffffff8211176115f357604052565b90601f8019910116810190811067ffffffffffffffff8211176115f357604052565b67ffffffffffffffff81116115f357601f01601f191660200190565b81601f820112156116aa5780359061167a82611647565b926116886040519485611625565b828452602083830101116116aa57816000926020809301838601378301015290565b600080fd5b600435906001600160a01b03821682036116aa57565b60005b8381106116d85750506000910152565b81810151838201526020016116c8565b80548210156117005760005260206000200190600090565b634e487b7160e01b600052603260045260246000fd5b90600182811c92168015611746575b602083101461173057565b634e487b7160e01b600052602260045260246000fd5b91607f1691611725565b906040519182600082549261176484611716565b9081845260019485811690816000146117d35750600114611790575b505061178e92500383611625565b565b9093915060005260209081600020936000915b8183106117bb57505061178e93508201013880611780565b855488840185015294850194879450918301916117a3565b91505061178e94506020925060ff191682840152151560051b8201013880611780565b9060209161180f815180928185528580860191016116c5565b601f01601f1916010190565b6000546001600160a01b0316330361182f57565b60405163118cdaa760e01b8152336004820152602490fd5b1561184e57565b60405162461bcd60e51b815260206004820152600e60248201526d139bdd08185d5d1a1bdc9a5e995960921b6044820152606490fd5b1561188b57565b60405162461bcd60e51b815260206004820152600e60248201526d125b9d985b1a5908185b5bdd5b9d60921b6044820152606490fd5b156118c857565b60405162461bcd60e51b815260206004820152601860248201527f496e73756666696369656e7420676173206465706f73697400000000000000006044820152606490fd5b9190820391821161191a57565b634e487b7160e01b600052601160045260246000fd5b60ff6002541661193c57565b60405163d93c066560e01b8152600490fd5b1561195557565b60405162461bcd60e51b815260206004820152601b60248201527f53776170207265717565737420646f6573206e6f7420657869737400000000006044820152606490fd5b156119a157565b60405162461bcd60e51b815260206004820152601a60248201527f537761702072657175657374206973206e6f74206163746976650000000000006044820152606490fd5b9190820180921161191a57565b908160209103126116aa575180151581036116aa5790565b90604051611a18816115d6565b82546001600160a01b03908116825260018401548116602083015260028401541660408201526003830154606082015260048301546080820152600583015460ff16151560a0820152600683015460c082015260079092015460e0830152565b6040805191805192602090818181850196611a9481838a6116c5565b810160038152030190206005810160ff1981541690556001908181019360018060a01b0395868654169680845416978251998a996370a0823160e01b8b52888b600494838683015260249d8e915afa9b8c15611dd65760009c61202d575b50600387019b8c5411611f7a5750508954600754808202908282041482151715611f66576127108a910491898c606487611b2c878661190d565b9554166000898d5416918b5196879586946323b872dd60e01b86528c860152309085015260448401525af18015611f5b57611f3e575b50611b6c87611a0b565b898101908c8b6000604488828c898d8a51169151978896879563095ea7b360e01b87528601528401525af18015611f3357611f16575b50865190611baf82611609565b60028252868c830193893686375116825115611f0257835286888201511682518c1015611f0257906080918984015201998a519161012c420192834211611eee579392918f8e928b5196848801986338ed173960e01b8a5260c4890193890152604488015260a060648801525180915260e4860194926000905b828210611ed857505050505091611c598160009593869530608484015260a483015203601f198101835282611625565b519082805af196611c686120ef565b9715611ea257519688815181811015600014611e99578290810103126116aa57880151965b8710611e57578781611de1575b50506002850198611cdf8888858d5416868a54166000895180968195829463a9059cbb60e01b84528b840160209093929193604081019460018060a01b031681520152565b03925af18015611dd657611db9575b5060085491605083029280840460501490151715611da65750509181807f216b6dddcc480b5221a056316a2c455e6d34a90d265c7c45d4f565ae2e6949de98979695936064611d79960496611d4788600783015461190d565b80611d84575b50541699541699541699549481519687968752860152429085015260a0606085015260a08401906117f6565b9060808301520390a4565b8282541660005260058b52611d9e866000209182546119e6565b905538611d4d565b601190634e487b7160e01b600052526000fd5b611dcf90893d8b116105b1576105a58183611625565b5038611cee565b85513d6000823e3d90fd5b895460008054875163a9059cbb60e01b81529087166001600160a01b031686820190815260208101959095529384928716918391829060400103925af18015611e4c57611e2f575b87611c9a565b611e4590883d8a116105b1576105a58183611625565b5038611e29565b84513d6000823e3d90fd5b835162461bcd60e51b8152808301899052601a818c01527f496e73756666696369656e74206f757470757420616d6f756e740000000000006044820152606490fd5b50505086611c8d565b845162461bcd60e51b81528084018a90526011818d01527011db1d5956081cddd85c0819985a5b1959607a1b6044820152606490fd5b84518c168752958601959093019282018f611c29565b8f601189634e487b7160e01b600052526000fd5b8e603288634e487b7160e01b600052526000fd5b611f2c908c8d3d106105b1576105a58183611625565b5038611ba2565b88513d6000823e3d90fd5b611f54908a3d8c116105b1576105a58183611625565b5038611b62565b86513d6000823e3d90fd5b8a601184634e487b7160e01b600052526000fd5b91509399506120229698507f22618fbf04dd88e5bedf3b4495a0d69174c4df34545953edb53dee3c1b4c04c0975084919295506007611fe19501549060005260058952611fcc866000209182546119e6565b905554169683519283928392519283916116c5565b81010390209381519282849384528301604090601a81527f496e73756666696369656e7420746f6b656e2062616c616e636500000000000060208201520190565b9042908301520390a3565b909b8982813d8311612055575b6120448183611625565b810103126103485750519a38611af2565b503d61203a565b60405190816000825461206e81611716565b936001918083169081156120d35750600114612096575b505060209250600381520301902090565b90915060005260209081600020906000915b8583106120bf575050505060209181013880612085565b8054878401528694509183019181016120a8565b92505050602093915060ff191682528015150281013880612085565b3d1561211a573d9061210082611647565b9161210e6040519384611625565b82523d6000602084013e565b606090565b1561212657565b60405162461bcd60e51b815260206004820152601460248201527312165411481d1c985b9cd9995c8819985a5b195960621b6044820152606490fdfea2646970667358221220af488d9d50a4de32b96504b6872902bb55817bf5f8c8d002779667f09ce7a42264736f6c63430008140033","opcodes":"PUSH1 0x80 DUP1 PUSH1 0x40 MSTORE CALLVALUE PUSH2 0xA5 JUMPI CALLER ISZERO PUSH2 0x8F JUMPI PUSH1 0x0 DUP1 SLOAD CALLER PUSH1 0x1 PUSH1 0x1 PUSH1 0xA0 SHL SUB NOT DUP3 AND DUP2 OR DUP4 SSTORE PUSH1 0x40 DUP1 MLOAD SWAP4 SWAP1 SWAP3 SWAP1 SWAP2 SWAP1 PUSH1 0x1 PUSH1 0x1 PUSH1 0xA0 SHL SUB AND PUSH32 0x8BE0079C531659141344CD1FD0A4F28419497F9722A3DAAFE3B4186F6B6457E0 DUP4 DUP1 LOG3 PUSH1 0x1 DUP1 SSTORE PUSH1 0x32 PUSH1 0x7 SSTORE PUSH7 0x2386F26FC10000 PUSH1 0x8 SSTORE CALLER DUP2 MSTORE PUSH1 0x6 PUSH1 0x20 MSTORE KECCAK256 PUSH1 0x1 PUSH1 0xFF NOT DUP3 SLOAD AND OR SWAP1 SSTORE PUSH2 0x2198 SWAP1 DUP2 PUSH2 0xAB DUP3 CODECOPY RETURN JUMPDEST PUSH4 0x1E4FBDF7 PUSH1 0xE0 SHL DUP2 MSTORE PUSH1 0x0 PUSH1 0x4 DUP3 ADD MSTORE PUSH1 0x24 SWAP1 REVERT JUMPDEST PUSH1 0x0 DUP1 REVERT INVALID PUSH1 0x80 DUP1 PUSH1 0x40 MSTORE PUSH1 0x4 SWAP1 DUP2 CALLDATASIZE LT ISZERO PUSH2 0x9D JUMPI JUMPDEST POP CALLDATASIZE ISZERO PUSH2 0x4E JUMPI PUSH1 0x64 SWAP1 PUSH1 0x20 PUSH1 0x40 MLOAD SWAP2 PUSH3 0x461BCD PUSH1 0xE5 SHL DUP4 MSTORE DUP3 ADD MSTORE PUSH1 0xF PUSH1 0x24 DUP3 ADD MSTORE PUSH15 0x155B995E1C1958DD19590818D85B1B PUSH1 0x8A SHL PUSH1 0x44 DUP3 ADD MSTORE REVERT JUMPDEST CALLER PUSH1 0x0 MSTORE PUSH1 0x5 PUSH1 0x20 MSTORE PUSH1 0x40 PUSH1 0x0 KECCAK256 PUSH2 0x67 CALLVALUE DUP3 SLOAD PUSH2 0x19E6 JUMP JUMPDEST SWAP1 SSTORE PUSH1 0x40 MLOAD CALLVALUE DUP2 MSTORE TIMESTAMP PUSH1 0x20 DUP3 ADD MSTORE PUSH32 0xBEAEA95C6BF16EDEACEB13F9155DD3DDF0DA63ACD6DE7EBAA62E433E4336C2B6 PUSH1 0x40 CALLER SWAP3 LOG2 STOP JUMPDEST PUSH1 0x0 SWAP1 DUP2 CALLDATALOAD PUSH1 0xE0 SHR SWAP1 DUP2 PUSH4 0xAB81E45 EQ PUSH2 0x15A8 JUMPI POP DUP1 PUSH4 0x10386BB4 EQ PUSH2 0x158A JUMPI DUP1 PUSH4 0x17D87C4D EQ PUSH2 0x10A5 JUMPI DUP1 PUSH4 0x31F7D964 EQ PUSH2 0x1076 JUMPI DUP1 PUSH4 0x3F4BA83A EQ PUSH2 0x100B JUMPI DUP1 PUSH4 0x454BBD29 EQ PUSH2 0xFB5 JUMPI DUP1 PUSH4 0x473C3897 EQ PUSH2 0xEF6 JUMPI DUP1 PUSH4 0x4A159FC1 EQ PUSH2 0xE77 JUMPI DUP1 PUSH4 0x536FFF6C EQ PUSH2 0xE38 JUMPI DUP1 PUSH4 0x5C975ABB EQ PUSH2 0xE15 JUMPI DUP1 PUSH4 0x63F8BB03 EQ PUSH2 0xD01 JUMPI DUP1 PUSH4 0x715018A6 EQ PUSH2 0xCA7 JUMPI DUP1 PUSH4 0x770333D6 EQ PUSH2 0xC8B JUMPI DUP1 PUSH4 0x787DCE3D EQ PUSH2 0xC2A JUMPI DUP1 PUSH4 0x79381873 EQ PUSH2 0xB38 JUMPI DUP1 PUSH4 0x8456CB59 EQ PUSH2 0xADD JUMPI DUP1 PUSH4 0x8C73C000 EQ PUSH2 0xA71 JUMPI DUP1 PUSH4 0x8DA5CB5B EQ PUSH2 0xA4A JUMPI DUP1 PUSH4 0x91657544 EQ PUSH2 0x8BD JUMPI DUP1 PUSH4 0x92C4B289 EQ PUSH2 0x5C3 JUMPI DUP1 PUSH4 0x95CCEA67 EQ PUSH2 0x517 JUMPI DUP1 PUSH4 0x9E9A2C43 EQ PUSH2 0x34B JUMPI DUP1 PUSH4 0xAE9BB692 EQ PUSH2 0x4AA JUMPI DUP1 PUSH4 0xB0E21E8A EQ PUSH2 0x48C JUMPI DUP1 PUSH4 0xB4770335 EQ PUSH2 0x384 JUMPI DUP1 PUSH4 0xBB383C69 EQ PUSH2 0x34B JUMPI DUP1 PUSH4 0xBC063E1A EQ PUSH2 0x32B JUMPI DUP1 PUSH4 0xC89E02F7 EQ PUSH2 0x29C JUMPI DUP1 PUSH4 0xDCD6DF78 EQ PUSH2 0x27A JUMPI PUSH4 0xF2FDE38B SUB PUSH2 0x11 JUMPI SWAP1 CALLVALUE PUSH2 0x276 JUMPI PUSH1 0x20 CALLDATASIZE PUSH1 0x3 NOT ADD SLT PUSH2 0x276 JUMPI PUSH2 0x20A PUSH2 0x16AF JUMP JUMPDEST PUSH2 0x212 PUSH2 0x181B JUMP JUMPDEST PUSH1 0x1 PUSH1 0x1 PUSH1 0xA0 SHL SUB SWAP1 DUP2 AND SWAP2 DUP3 ISZERO PUSH2 0x25E JUMPI POP DUP3 SLOAD PUSH1 0x1 PUSH1 0x1 PUSH1 0xA0 SHL SUB NOT DUP2 AND DUP4 OR DUP5 SSTORE AND PUSH32 0x8BE0079C531659141344CD1FD0A4F28419497F9722A3DAAFE3B4186F6B6457E0 DUP4 DUP1 LOG3 DUP1 RETURN JUMPDEST PUSH1 0x40 MLOAD PUSH4 0x1E4FBDF7 PUSH1 0xE0 SHL DUP2 MSTORE SWAP1 DUP2 ADD DUP5 SWAP1 MSTORE PUSH1 0x24 SWAP1 REVERT JUMPDEST POP DUP1 REVERT JUMPDEST POP SWAP1 CALLVALUE PUSH2 0x276 JUMPI PUSH1 0x20 CALLDATASIZE PUSH1 0x3 NOT ADD SLT PUSH2 0x276 JUMPI PUSH2 0x295 PUSH2 0x181B JUMP JUMPDEST CALLDATALOAD PUSH1 0x8 SSTORE DUP1 RETURN JUMPDEST POP SWAP1 CALLVALUE PUSH2 0x276 JUMPI PUSH1 0x20 CALLDATASIZE PUSH1 0x3 NOT ADD SLT PUSH2 0x276 JUMPI DUP1 CALLDATALOAD SWAP1 PUSH2 0x2BA PUSH2 0x181B JUMP JUMPDEST SELFBALANCE DUP3 GT PUSH2 0x2E7 JUMPI POP DUP2 DUP1 DUP1 DUP1 PUSH2 0x2E4 SWAP5 PUSH1 0x1 DUP1 PUSH1 0xA0 SHL SUB DUP3 SLOAD AND GAS CALL PUSH2 0x2DE PUSH2 0x20EF JUMP JUMPDEST POP PUSH2 0x211F JUMP JUMPDEST DUP1 RETURN JUMPDEST PUSH1 0x64 SWAP1 PUSH1 0x20 PUSH1 0x40 MLOAD SWAP2 PUSH3 0x461BCD PUSH1 0xE5 SHL DUP4 MSTORE DUP3 ADD MSTORE PUSH1 0x19 PUSH1 0x24 DUP3 ADD MSTORE PUSH32 0x496E73756666696369656E7420485950452062616C616E636500000000000000 PUSH1 0x44 DUP3 ADD MSTORE REVERT JUMPDEST POP CALLVALUE PUSH2 0x348 JUMPI DUP1 PUSH1 0x3 NOT CALLDATASIZE ADD SLT PUSH2 0x348 JUMPI PUSH1 0x20 PUSH1 0x40 MLOAD PUSH2 0x1F4 DUP2 MSTORE RETURN JUMPDEST DUP1 REVERT JUMPDEST POP CALLVALUE PUSH2 0x348 JUMPI PUSH1 0x20 CALLDATASIZE PUSH1 0x3 NOT ADD SLT PUSH2 0x348 JUMPI PUSH1 0x20 SWAP1 PUSH1 0x40 SWAP1 PUSH1 0x1 PUSH1 0x1 PUSH1 0xA0 SHL SUB PUSH2 0x373 PUSH2 0x16AF JUMP JUMPDEST AND DUP2 MSTORE PUSH1 0x5 DUP4 MSTORE KECCAK256 SLOAD PUSH1 0x40 MLOAD SWAP1 DUP2 MSTORE RETURN JUMPDEST POP SWAP1 CALLVALUE PUSH2 0x276 JUMPI PUSH1 0x20 SWAP1 DUP2 PUSH1 0x3 NOT CALLDATASIZE ADD SLT PUSH2 0x488 JUMPI PUSH1 0x1 PUSH1 0x1 PUSH1 0xA0 SHL SUB PUSH2 0x3A9 PUSH2 0x16AF JUMP JUMPDEST AND DUP4 MSTORE DUP1 DUP3 MSTORE PUSH1 0x40 DUP4 KECCAK256 SWAP1 DUP2 SLOAD SWAP1 PUSH8 0xFFFFFFFFFFFFFFFF DUP3 GT PUSH2 0x475 JUMPI POP SWAP2 SWAP3 PUSH1 0x40 MLOAD SWAP3 PUSH2 0x3DC DUP6 DUP3 PUSH1 0x5 SHL ADD DUP6 PUSH2 0x1625 JUMP JUMPDEST DUP1 DUP5 MSTORE DUP5 DUP5 ADD DUP1 SWAP4 DUP4 MSTORE DUP6 DUP4 KECCAK256 DUP4 SWAP2 JUMPDEST DUP4 DUP4 LT PUSH2 0x451 JUMPI POP POP POP POP PUSH1 0x40 MLOAD SWAP3 DUP5 DUP5 ADD SWAP1 DUP6 DUP6 MSTORE MLOAD DUP1 SWAP2 MSTORE PUSH1 0x40 DUP5 ADD SWAP5 PUSH1 0x40 DUP3 PUSH1 0x5 SHL DUP7 ADD ADD SWAP4 SWAP3 SWAP6 JUMPDEST DUP3 DUP8 LT PUSH2 0x425 JUMPI DUP6 DUP6 SUB DUP7 RETURN JUMPDEST SWAP1 SWAP2 SWAP3 SWAP4 DUP3 DUP1 PUSH2 0x441 PUSH1 0x1 SWAP4 PUSH1 0x3F NOT DUP11 DUP3 SUB ADD DUP7 MSTORE DUP9 MLOAD PUSH2 0x17F6 JUMP JUMPDEST SWAP7 ADD SWAP3 ADD SWAP7 ADD SWAP6 SWAP3 SWAP2 SWAP1 SWAP3 PUSH2 0x418 JUMP JUMPDEST PUSH1 0x1 DUP9 DUP2 SWAP3 PUSH2 0x463 DUP6 SWAP12 SWAP11 SWAP9 SWAP12 PUSH2 0x1750 JUMP JUMPDEST DUP2 MSTORE ADD SWAP3 ADD SWAP3 ADD SWAP2 SWAP1 SWAP7 SWAP4 SWAP6 SWAP7 PUSH2 0x3EC JUMP JUMPDEST PUSH4 0x4E487B71 PUSH1 0xE0 SHL DUP6 MSTORE PUSH1 0x41 SWAP1 MSTORE PUSH1 0x24 DUP5 REVERT JUMPDEST DUP3 DUP1 REVERT JUMPDEST POP CALLVALUE PUSH2 0x348 JUMPI DUP1 PUSH1 0x3 NOT CALLDATASIZE ADD SLT PUSH2 0x348 JUMPI PUSH1 0x20 PUSH1 0x7 SLOAD PUSH1 0x40 MLOAD SWAP1 DUP2 MSTORE RETURN JUMPDEST POP DUP1 PUSH1 0x3 NOT CALLDATASIZE ADD SLT PUSH2 0x348 JUMPI PUSH2 0x4BE PUSH2 0x1930 JUMP JUMPDEST PUSH2 0x4C9 CALLVALUE ISZERO ISZERO PUSH2 0x1884 JUMP JUMPDEST CALLER DUP2 MSTORE PUSH1 0x5 PUSH1 0x20 MSTORE PUSH1 0x40 DUP2 KECCAK256 PUSH2 0x4E0 CALLVALUE DUP3 SLOAD PUSH2 0x19E6 JUMP JUMPDEST SWAP1 SSTORE PUSH1 0x40 MLOAD CALLVALUE DUP2 MSTORE TIMESTAMP PUSH1 0x20 DUP3 ADD MSTORE PUSH32 0xBEAEA95C6BF16EDEACEB13F9155DD3DDF0DA63ACD6DE7EBAA62E433E4336C2B6 PUSH1 0x40 CALLER SWAP3 LOG2 DUP1 RETURN JUMPDEST POP SWAP1 CALLVALUE PUSH2 0x276 JUMPI PUSH1 0x40 CALLDATASIZE PUSH1 0x3 NOT ADD SLT PUSH2 0x276 JUMPI PUSH1 0x20 PUSH2 0x57A SWAP2 PUSH2 0x538 PUSH2 0x16AF JUMP JUMPDEST PUSH2 0x540 PUSH2 0x181B JUMP JUMPDEST DUP5 SLOAD PUSH1 0x40 DUP1 MLOAD PUSH4 0xA9059CBB PUSH1 0xE0 SHL DUP2 MSTORE PUSH1 0x1 PUSH1 0x1 PUSH1 0xA0 SHL SUB SWAP3 DUP4 AND SWAP5 DUP2 ADD SWAP5 DUP6 MSTORE PUSH1 0x24 CALLDATALOAD PUSH1 0x20 DUP7 ADD MSTORE SWAP6 DUP7 SWAP5 DUP6 SWAP4 DUP10 SWAP4 SWAP1 SWAP3 DUP6 SWAP3 SWAP1 SWAP2 ADD SWAP1 JUMP JUMPDEST SUB SWAP4 AND GAS CALL DUP1 ISZERO PUSH2 0x5B8 JUMPI PUSH2 0x58D JUMPI POP DUP1 RETURN JUMPDEST PUSH2 0x5AD SWAP1 PUSH1 0x20 RETURNDATASIZE DUP2 GT PUSH2 0x5B1 JUMPI JUMPDEST PUSH2 0x5A5 DUP2 DUP4 PUSH2 0x1625 JUMP JUMPDEST DUP2 ADD SWAP1 PUSH2 0x19F3 JUMP JUMPDEST POP DUP1 RETURN JUMPDEST POP RETURNDATASIZE PUSH2 0x59B JUMP JUMPDEST PUSH1 0x40 MLOAD RETURNDATASIZE DUP5 DUP3 RETURNDATACOPY RETURNDATASIZE SWAP1 REVERT JUMPDEST POP SWAP1 CALLVALUE PUSH2 0x276 JUMPI PUSH1 0x20 SWAP1 DUP2 PUSH1 0x3 NOT CALLDATASIZE ADD SLT PUSH2 0x488 JUMPI DUP1 CALLDATALOAD PUSH8 0xFFFFFFFFFFFFFFFF DUP2 GT PUSH2 0x8B9 JUMPI PUSH2 0x5F6 SWAP1 CALLDATASIZE SWAP1 DUP4 ADD PUSH2 0x1663 JUMP JUMPDEST SWAP1 CALLER DUP5 MSTORE PUSH1 0x6 DUP4 MSTORE PUSH1 0xFF PUSH1 0x40 DUP6 KECCAK256 SLOAD AND DUP1 ISZERO PUSH2 0x8A6 JUMPI JUMPDEST PUSH2 0x616 SWAP1 PUSH2 0x1847 JUMP JUMPDEST PUSH1 0x40 MLOAD SWAP3 DUP3 MLOAD SWAP4 DUP2 DUP5 ADD SWAP5 PUSH2 0x62C DUP2 DUP4 DUP9 PUSH2 0x16C5 JUMP JUMPDEST PUSH1 0x3 SWAP1 DUP3 ADD DUP2 DUP2 MSTORE DUP3 SWAP1 SUB DUP4 ADD SWAP1 SWAP2 KECCAK256 SLOAD PUSH1 0x1 PUSH1 0x1 PUSH1 0xA0 SHL SUB SWAP2 SWAP1 PUSH2 0x654 SWAP1 DUP4 AND ISZERO ISZERO PUSH2 0x194E JUMP JUMPDEST PUSH2 0x680 PUSH1 0xFF PUSH1 0x5 PUSH1 0x40 MLOAD DUP7 DUP2 DUP1 PUSH2 0x66F DUP14 DUP14 MLOAD SWAP3 DUP4 SWAP2 PUSH2 0x16C5 JUMP JUMPDEST DUP2 ADD DUP8 DUP2 MSTORE SUB ADD SWAP1 KECCAK256 ADD SLOAD AND PUSH2 0x199A JUMP JUMPDEST PUSH1 0x40 MLOAD DUP4 DUP2 DUP8 MLOAD PUSH2 0x692 DUP2 DUP4 DUP13 PUSH2 0x16C5 JUMP JUMPDEST DUP2 ADD DUP5 DUP2 MSTORE SUB ADD SWAP1 KECCAK256 SWAP6 PUSH1 0x1 SWAP7 DUP4 DUP9 DUP3 ADD SLOAD AND DUP6 DUP6 DUP4 SLOAD AND PUSH1 0x44 PUSH1 0x40 MLOAD DUP1 SWAP5 DUP2 SWAP4 PUSH4 0x6EB1769F PUSH1 0xE1 SHL DUP4 MSTORE DUP13 DUP4 ADD MSTORE ADDRESS PUSH1 0x24 DUP4 ADD MSTORE GAS STATICCALL SWAP2 DUP3 ISZERO PUSH2 0x89B JUMPI DUP5 SWAP2 DUP12 SWAP4 PUSH2 0x864 JUMPI JUMPDEST POP ADD SLOAD GT PUSH2 0x827 JUMPI DUP4 PUSH2 0x730 SWAP2 PUSH2 0x71F PUSH1 0x40 MLOAD DUP4 DUP2 DUP12 MLOAD PUSH2 0x6FB DUP2 DUP4 DUP9 PUSH2 0x16C5 JUMP JUMPDEST DUP2 ADD DUP9 DUP2 MSTORE SUB ADD SWAP1 KECCAK256 DUP7 DUP2 SLOAD AND DUP13 MSTORE PUSH1 0x5 DUP5 MSTORE PUSH1 0x7 PUSH1 0x40 DUP14 KECCAK256 SLOAD SWAP2 ADD SLOAD GT ISZERO PUSH2 0x18C1 JUMP JUMPDEST PUSH1 0x40 MLOAD DUP1 SWAP4 DUP2 SWAP3 DUP11 MLOAD SWAP3 DUP4 SWAP2 PUSH2 0x16C5 JUMP JUMPDEST DUP2 ADD DUP5 DUP2 MSTORE SUB ADD SWAP1 KECCAK256 DUP4 DUP4 DUP9 DUP4 ADD SLOAD AND SWAP4 DUP3 SLOAD AND PUSH1 0x24 PUSH1 0x40 MLOAD DUP1 SWAP7 DUP2 SWAP4 PUSH4 0x70A08231 PUSH1 0xE0 SHL DUP4 MSTORE DUP11 DUP4 ADD MSTORE GAS STATICCALL SWAP3 DUP4 ISZERO PUSH2 0x81C JUMPI DUP9 SWAP4 PUSH2 0x7E9 JUMPI JUMPDEST POP ADD SLOAD GT PUSH2 0x7A7 JUMPI POP PUSH1 0x2 DUP4 SLOAD EQ PUSH2 0x798 JUMPI POP PUSH2 0x793 SWAP1 PUSH1 0x2 DUP4 SSTORE PUSH2 0x78E PUSH2 0x1930 JUMP JUMPDEST PUSH2 0x1A78 JUMP JUMPDEST DUP1 SSTORE DUP1 RETURN JUMPDEST PUSH1 0x40 MLOAD PUSH4 0x3EE5AEB5 PUSH1 0xE0 SHL DUP2 MSTORE REVERT JUMPDEST PUSH1 0x40 MLOAD PUSH3 0x461BCD PUSH1 0xE5 SHL DUP2 MSTORE SWAP2 DUP3 ADD MSTORE PUSH1 0x1A PUSH1 0x24 DUP3 ADD MSTORE PUSH32 0x496E73756666696369656E7420746F6B656E2062616C616E6365000000000000 PUSH1 0x44 DUP3 ADD MSTORE PUSH1 0x64 SWAP1 REVERT JUMPDEST SWAP1 SWAP3 POP DUP4 DUP2 DUP2 RETURNDATASIZE DUP4 GT PUSH2 0x815 JUMPI JUMPDEST PUSH2 0x801 DUP2 DUP4 PUSH2 0x1625 JUMP JUMPDEST DUP2 ADD SUB SLT PUSH2 0x811 JUMPI MLOAD SWAP2 CODESIZE PUSH2 0x76B JUMP JUMPDEST DUP8 DUP1 REVERT JUMPDEST POP RETURNDATASIZE PUSH2 0x7F7 JUMP JUMPDEST PUSH1 0x40 MLOAD RETURNDATASIZE DUP11 DUP3 RETURNDATACOPY RETURNDATASIZE SWAP1 REVERT JUMPDEST PUSH1 0x40 MLOAD PUSH3 0x461BCD PUSH1 0xE5 SHL DUP2 MSTORE DUP1 DUP7 ADD DUP6 SWAP1 MSTORE PUSH1 0x16 PUSH1 0x24 DUP3 ADD MSTORE PUSH22 0x496E73756666696369656E7420616C6C6F77616E6365 PUSH1 0x50 SHL PUSH1 0x44 DUP3 ADD MSTORE PUSH1 0x64 SWAP1 REVERT JUMPDEST DUP8 DUP1 SWAP3 SWAP5 POP DUP2 SWAP4 POP RETURNDATASIZE DUP4 GT PUSH2 0x894 JUMPI JUMPDEST PUSH2 0x87E DUP2 DUP4 PUSH2 0x1625 JUMP JUMPDEST DUP2 ADD SUB SLT PUSH2 0x890 JUMPI DUP4 SWAP1 MLOAD SWAP2 CODESIZE PUSH2 0x6D9 JUMP JUMPDEST DUP10 DUP1 REVERT JUMPDEST POP RETURNDATASIZE PUSH2 0x874 JUMP JUMPDEST PUSH1 0x40 MLOAD RETURNDATASIZE DUP13 DUP3 RETURNDATACOPY RETURNDATASIZE SWAP1 REVERT JUMPDEST POP DUP4 SLOAD PUSH1 0x1 PUSH1 0x1 PUSH1 0xA0 SHL SUB AND CALLER EQ PUSH2 0x60D JUMP JUMPDEST DUP4 DUP1 REVERT JUMPDEST POP SWAP1 CALLVALUE PUSH2 0x276 JUMPI PUSH1 0x20 DUP1 PUSH1 0x3 NOT CALLDATASIZE ADD SLT PUSH2 0x488 JUMPI DUP2 CALLDATALOAD SWAP2 PUSH2 0x8DC PUSH2 0x1930 JUMP JUMPDEST PUSH2 0x8E7 DUP4 ISZERO ISZERO PUSH2 0x1884 JUMP JUMPDEST CALLER DUP5 MSTORE PUSH1 0x5 SWAP1 DUP2 DUP4 MSTORE PUSH2 0x900 DUP5 PUSH1 0x40 DUP8 KECCAK256 SLOAD LT ISZERO PUSH2 0x18C1 JUMP JUMPDEST CALLER DUP6 MSTORE DUP1 DUP4 MSTORE PUSH1 0x40 DUP6 KECCAK256 DUP1 SLOAD DUP7 SWAP2 DUP3 JUMPDEST DUP3 DUP2 LT PUSH2 0x9E6 JUMPI POP POP POP PUSH2 0x92E SWAP1 CALLER DUP8 MSTORE DUP4 DUP6 MSTORE PUSH1 0x40 DUP8 KECCAK256 SLOAD PUSH2 0x190D JUMP JUMPDEST DUP5 GT PUSH2 0x992 JUMPI POP CALLER DUP5 MSTORE DUP2 MSTORE PUSH1 0x40 DUP4 KECCAK256 PUSH2 0x949 DUP4 DUP3 SLOAD PUSH2 0x190D JUMP JUMPDEST SWAP1 SSTORE PUSH2 0x95E DUP4 DUP1 DUP1 DUP1 DUP7 CALLER GAS CALL PUSH2 0x2DE PUSH2 0x20EF JUMP JUMPDEST PUSH1 0x40 MLOAD SWAP2 DUP3 MSTORE TIMESTAMP SWAP1 DUP3 ADD MSTORE PUSH32 0xA19D57269317C281371FFE2B730B52866DF4324BA61A647A735C5837C13AEFD7 PUSH1 0x40 CALLER SWAP3 LOG2 DUP1 RETURN JUMPDEST PUSH1 0x40 MLOAD PUSH3 0x461BCD PUSH1 0xE5 SHL DUP2 MSTORE SWAP1 DUP2 ADD DUP4 SWAP1 MSTORE PUSH1 0x27 PUSH1 0x24 DUP3 ADD MSTORE PUSH32 0x416D6F756E74206578636565647320617661696C61626C6520666F7220776974 PUSH1 0x44 DUP3 ADD MSTORE PUSH7 0x1A191C985DD85B PUSH1 0xCA SHL PUSH1 0x64 DUP3 ADD MSTORE PUSH1 0x84 SWAP1 REVERT JUMPDEST PUSH1 0xFF DUP7 PUSH2 0x9FC PUSH2 0x9F6 DUP5 DUP7 PUSH2 0x16E8 JUMP JUMPDEST POP PUSH2 0x205C JUMP JUMPDEST ADD SLOAD AND PUSH2 0xA28 JUMPI JUMPDEST PUSH1 0x0 NOT DUP2 EQ PUSH2 0xA15 JUMPI PUSH1 0x1 ADD PUSH2 0x910 JUMP JUMPDEST PUSH4 0x4E487B71 PUSH1 0xE0 SHL DUP10 MSTORE PUSH1 0x11 DUP6 MSTORE PUSH1 0x24 DUP10 REVERT JUMPDEST SWAP3 PUSH2 0xA44 SWAP1 PUSH1 0x7 PUSH2 0xA3C PUSH2 0x9F6 DUP8 DUP7 PUSH2 0x16E8 JUMP JUMPDEST ADD SLOAD SWAP1 PUSH2 0x19E6 JUMP JUMPDEST SWAP3 PUSH2 0xA04 JUMP JUMPDEST POP CALLVALUE PUSH2 0x348 JUMPI DUP1 PUSH1 0x3 NOT CALLDATASIZE ADD SLT PUSH2 0x348 JUMPI SLOAD PUSH1 0x40 MLOAD PUSH1 0x1 PUSH1 0x1 PUSH1 0xA0 SHL SUB SWAP1 SWAP2 AND DUP2 MSTORE PUSH1 0x20 SWAP1 RETURN JUMPDEST POP CALLVALUE PUSH2 0x348 JUMPI DUP1 PUSH1 0x3 NOT CALLDATASIZE ADD SLT PUSH2 0x348 JUMPI PUSH2 0xAD9 PUSH1 0x40 MLOAD PUSH2 0xA91 DUP2 PUSH2 0x1609 JUMP JUMPDEST PUSH1 0x21 DUP2 MSTORE PUSH32 0x68747470733A2F2F726F757465722E676C7565782E78797A2F76312F71756F74 PUSH1 0x20 DUP3 ADD MSTORE PUSH1 0x65 PUSH1 0xF8 SHL PUSH1 0x40 DUP3 ADD MSTORE PUSH1 0x40 MLOAD SWAP2 DUP3 SWAP2 PUSH1 0x20 DUP4 MSTORE PUSH1 0x20 DUP4 ADD SWAP1 PUSH2 0x17F6 JUMP JUMPDEST SUB SWAP1 RETURN JUMPDEST POP CALLVALUE PUSH2 0x348 JUMPI DUP1 PUSH1 0x3 NOT CALLDATASIZE ADD SLT PUSH2 0x348 JUMPI PUSH2 0xAF6 PUSH2 0x181B JUMP JUMPDEST PUSH2 0xAFE PUSH2 0x1930 JUMP JUMPDEST PUSH1 0x1 PUSH1 0xFF NOT PUSH1 0x2 SLOAD AND OR PUSH1 0x2 SSTORE PUSH32 0x62E78CEA01BEE320CD4E420270B5EA74000D11B0C9F74754EBDBFC544B05A258 PUSH1 0x20 PUSH1 0x40 MLOAD CALLER DUP2 MSTORE LOG1 DUP1 RETURN JUMPDEST POP SWAP1 CALLVALUE PUSH2 0x276 JUMPI PUSH1 0x20 SWAP1 DUP2 PUSH1 0x3 NOT CALLDATASIZE ADD SLT PUSH2 0x488 JUMPI DUP1 CALLDATALOAD PUSH8 0xFFFFFFFFFFFFFFFF DUP2 GT PUSH2 0x8B9 JUMPI PUSH2 0xBC1 DUP4 PUSH2 0x100 SWAP6 PUSH2 0xB78 PUSH1 0xE0 SWAP6 PUSH2 0xBD0 SWAP6 CALLDATASIZE SWAP2 ADD PUSH2 0x1663 JUMP JUMPDEST SWAP1 DUP6 PUSH1 0x40 MLOAD PUSH2 0xB86 DUP2 PUSH2 0x15D6 JUMP JUMPDEST DUP3 DUP2 MSTORE DUP3 DUP6 DUP3 ADD MSTORE DUP3 PUSH1 0x40 DUP3 ADD MSTORE DUP3 PUSH1 0x60 DUP3 ADD MSTORE DUP3 PUSH1 0x80 DUP3 ADD MSTORE DUP3 PUSH1 0xA0 DUP3 ADD MSTORE DUP3 PUSH1 0xC0 DUP3 ADD MSTORE ADD MSTORE DUP2 PUSH1 0x40 MLOAD SWAP4 DUP3 DUP6 DUP1 SWAP5 MLOAD SWAP4 DUP5 SWAP3 ADD PUSH2 0x16C5 JUMP JUMPDEST DUP2 ADD PUSH1 0x3 DUP2 MSTORE SUB ADD SWAP1 KECCAK256 PUSH2 0x1A0B JUMP JUMPDEST PUSH1 0x40 MLOAD SWAP3 PUSH1 0x1 DUP1 PUSH1 0xA0 SHL SUB SWAP1 DUP2 DUP4 MLOAD AND DUP6 MSTORE DUP2 DUP2 DUP5 ADD MLOAD AND SWAP1 DUP6 ADD MSTORE PUSH1 0x40 DUP3 ADD MLOAD AND PUSH1 0x40 DUP5 ADD MSTORE PUSH1 0x60 DUP2 ADD MLOAD PUSH1 0x60 DUP5 ADD MSTORE PUSH1 0x80 DUP2 ADD MLOAD PUSH1 0x80 DUP5 ADD MSTORE PUSH1 0xA0 DUP2 ADD MLOAD ISZERO ISZERO PUSH1 0xA0 DUP5 ADD MSTORE PUSH1 0xC0 DUP2 ADD MLOAD PUSH1 0xC0 DUP5 ADD MSTORE ADD MLOAD PUSH1 0xE0 DUP3 ADD MSTORE RETURN JUMPDEST POP SWAP1 CALLVALUE PUSH2 0x276 JUMPI PUSH1 0x20 CALLDATASIZE PUSH1 0x3 NOT ADD SLT PUSH2 0x276 JUMPI DUP1 CALLDATALOAD SWAP1 PUSH2 0xC48 PUSH2 0x181B JUMP JUMPDEST PUSH2 0x1F4 DUP3 GT PUSH2 0xC58 JUMPI POP PUSH1 0x7 SSTORE DUP1 RETURN JUMPDEST PUSH1 0x64 SWAP1 PUSH1 0x20 PUSH1 0x40 MLOAD SWAP2 PUSH3 0x461BCD PUSH1 0xE5 SHL DUP4 MSTORE DUP3 ADD MSTORE PUSH1 0xC PUSH1 0x24 DUP3 ADD MSTORE PUSH12 0x8CCACA40E8DEDE40D0D2CED PUSH1 0xA3 SHL PUSH1 0x44 DUP3 ADD MSTORE REVERT JUMPDEST POP CALLVALUE PUSH2 0x348 JUMPI DUP1 PUSH1 0x3 NOT CALLDATASIZE ADD SLT PUSH2 0x348 JUMPI PUSH1 0x20 SWAP1 PUSH1 0x40 MLOAD SWAP1 DUP2 MSTORE RETURN JUMPDEST POP CALLVALUE PUSH2 0x348 JUMPI DUP1 PUSH1 0x3 NOT CALLDATASIZE ADD SLT PUSH2 0x348 JUMPI PUSH2 0xCC0 PUSH2 0x181B JUMP JUMPDEST DUP1 SLOAD PUSH1 0x1 PUSH1 0x1 PUSH1 0xA0 SHL SUB NOT DUP2 AND DUP3 SSTORE DUP2 SWAP1 PUSH1 0x1 PUSH1 0x1 PUSH1 0xA0 SHL SUB AND PUSH32 0x8BE0079C531659141344CD1FD0A4F28419497F9722A3DAAFE3B4186F6B6457E0 DUP3 DUP1 LOG3 DUP1 RETURN JUMPDEST POP SWAP1 CALLVALUE PUSH2 0x276 JUMPI PUSH1 0x20 SWAP1 DUP2 PUSH1 0x3 NOT CALLDATASIZE ADD SLT PUSH2 0x488 JUMPI DUP1 CALLDATALOAD PUSH8 0xFFFFFFFFFFFFFFFF DUP2 GT PUSH2 0x8B9 JUMPI PUSH1 0x5 SWAP2 PUSH2 0xD36 SWAP2 CALLDATASIZE SWAP2 ADD PUSH2 0x1663 JUMP JUMPDEST SWAP2 CALLER DUP5 MSTORE PUSH1 0x6 DUP2 MSTORE PUSH1 0xFF PUSH1 0x40 DUP6 KECCAK256 SLOAD AND DUP1 ISZERO PUSH2 0xE02 JUMPI JUMPDEST PUSH2 0xD56 SWAP1 PUSH2 0x1847 JUMP JUMPDEST PUSH2 0xDCD DUP2 PUSH1 0x40 MLOAD SWAP5 DUP1 MLOAD SWAP1 PUSH2 0xD92 DUP4 DUP3 ADD SWAP3 PUSH2 0xD73 DUP2 DUP11 DUP7 PUSH2 0x16C5 JUMP JUMPDEST DUP9 ADD PUSH1 0x3 DUP2 MSTORE DUP9 DUP6 PUSH1 0x1 DUP1 PUSH1 0xA0 SHL SUB SWAP11 DUP12 SWAP4 SUB ADD SWAP1 KECCAK256 SLOAD AND ISZERO ISZERO PUSH2 0x194E JUMP JUMPDEST PUSH2 0xDBC PUSH1 0xFF DUP8 PUSH1 0x40 MLOAD DUP7 DUP2 DUP7 MLOAD PUSH2 0xDAA DUP2 DUP4 DUP12 PUSH2 0x16C5 JUMP JUMPDEST DUP2 ADD PUSH1 0x3 DUP2 MSTORE SUB ADD SWAP1 KECCAK256 ADD SLOAD AND PUSH2 0x199A JUMP JUMPDEST PUSH1 0x40 MLOAD SWAP4 DUP5 SWAP3 DUP4 SWAP3 MLOAD SWAP3 DUP4 SWAP2 PUSH2 0x16C5 JUMP JUMPDEST DUP2 ADD PUSH1 0x3 DUP2 MSTORE SUB ADD SWAP1 KECCAK256 SWAP3 DUP3 DUP5 ADD PUSH1 0xFF NOT DUP2 SLOAD AND SWAP1 SSTORE PUSH1 0x7 DUP5 ADD SLOAD SWAP4 SLOAD AND DUP5 MSTORE MSTORE PUSH2 0xDFD PUSH1 0x40 DUP4 KECCAK256 SWAP2 DUP3 SLOAD PUSH2 0x19E6 JUMP JUMPDEST SWAP1 SSTORE DUP1 RETURN JUMPDEST POP DUP4 SLOAD PUSH1 0x1 PUSH1 0x1 PUSH1 0xA0 SHL SUB AND CALLER EQ PUSH2 0xD4D JUMP JUMPDEST POP CALLVALUE PUSH2 0x348 JUMPI DUP1 PUSH1 0x3 NOT CALLDATASIZE ADD SLT PUSH2 0x348 JUMPI PUSH1 0x20 PUSH1 0xFF PUSH1 0x2 SLOAD AND PUSH1 0x40 MLOAD SWAP1 ISZERO ISZERO DUP2 MSTORE RETURN JUMPDEST POP CALLVALUE PUSH2 0x348 JUMPI PUSH1 0x20 CALLDATASIZE PUSH1 0x3 NOT ADD SLT PUSH2 0x348 JUMPI PUSH1 0x20 SWAP1 PUSH1 0xFF SWAP1 PUSH1 0x40 SWAP1 PUSH1 0x1 PUSH1 0x1 PUSH1 0xA0 SHL SUB PUSH2 0xE63 PUSH2 0x16AF JUMP JUMPDEST AND DUP2 MSTORE PUSH1 0x6 DUP5 MSTORE KECCAK256 SLOAD AND PUSH1 0x40 MLOAD SWAP1 ISZERO ISZERO DUP2 MSTORE RETURN JUMPDEST POP CALLVALUE PUSH2 0x348 JUMPI PUSH1 0x40 CALLDATASIZE PUSH1 0x3 NOT ADD SLT PUSH2 0x348 JUMPI PUSH2 0xE91 PUSH2 0x16AF JUMP JUMPDEST PUSH1 0x1 PUSH1 0x1 PUSH1 0xA0 SHL SUB AND DUP2 MSTORE PUSH1 0x20 DUP3 SWAP1 MSTORE PUSH1 0x40 DUP2 KECCAK256 DUP1 SLOAD PUSH1 0x24 CALLDATALOAD SWAP2 SWAP1 DUP3 LT ISZERO PUSH2 0x488 JUMPI SWAP1 PUSH2 0xEBD SWAP2 PUSH2 0x16E8 JUMP JUMPDEST SWAP3 SWAP1 SWAP3 PUSH2 0xEE4 JUMPI PUSH2 0xAD9 PUSH2 0xED0 DUP5 PUSH2 0x1750 JUMP JUMPDEST PUSH1 0x40 MLOAD SWAP2 DUP3 SWAP2 PUSH1 0x20 DUP4 MSTORE PUSH1 0x20 DUP4 ADD SWAP1 PUSH2 0x17F6 JUMP JUMPDEST PUSH4 0x4E487B71 PUSH1 0xE0 SHL DUP3 MSTORE DUP2 SWAP1 MSTORE PUSH1 0x24 SWAP1 REVERT JUMPDEST POP SWAP1 CALLVALUE PUSH2 0x276 JUMPI PUSH1 0x20 CALLDATASIZE PUSH1 0x3 NOT ADD SLT PUSH2 0x276 JUMPI DUP1 CALLDATALOAD SWAP2 PUSH8 0xFFFFFFFFFFFFFFFF DUP4 GT PUSH2 0x348 JUMPI POP PUSH2 0xF44 PUSH1 0x20 PUSH2 0xF31 PUSH2 0x100 SWAP5 CALLDATASIZE SWAP1 DUP6 ADD PUSH2 0x1663 JUMP JUMPDEST DUP2 PUSH1 0x40 MLOAD SWAP4 DUP3 DUP6 DUP1 SWAP5 MLOAD SWAP4 DUP5 SWAP3 ADD PUSH2 0x16C5 JUMP JUMPDEST DUP2 ADD PUSH1 0x3 DUP2 MSTORE SUB ADD SWAP1 KECCAK256 PUSH1 0x1 DUP1 PUSH1 0xA0 SHL SUB SWAP1 DUP2 DUP2 SLOAD AND SWAP3 DUP3 PUSH1 0x1 DUP4 ADD SLOAD AND SWAP3 PUSH1 0x2 DUP4 ADD SLOAD AND SWAP1 PUSH1 0x3 DUP4 ADD SLOAD SWAP1 DUP4 ADD SLOAD SWAP1 PUSH1 0xFF PUSH1 0x5 DUP6 ADD SLOAD AND SWAP3 PUSH1 0x7 PUSH1 0x6 DUP7 ADD SLOAD SWAP6 ADD SLOAD SWAP6 PUSH1 0x40 MLOAD SWAP8 DUP9 MSTORE PUSH1 0x20 DUP9 ADD MSTORE PUSH1 0x40 DUP8 ADD MSTORE PUSH1 0x60 DUP7 ADD MSTORE PUSH1 0x80 DUP6 ADD MSTORE ISZERO ISZERO PUSH1 0xA0 DUP5 ADD MSTORE PUSH1 0xC0 DUP4 ADD MSTORE PUSH1 0xE0 DUP3 ADD MSTORE RETURN JUMPDEST POP CALLVALUE PUSH2 0x348 JUMPI PUSH1 0x40 CALLDATASIZE PUSH1 0x3 NOT ADD SLT PUSH2 0x348 JUMPI PUSH2 0xFCF PUSH2 0x16AF JUMP JUMPDEST PUSH1 0x24 CALLDATALOAD DUP1 ISZERO ISZERO DUP2 SUB PUSH2 0x488 JUMPI PUSH2 0x2E4 SWAP2 PUSH2 0xFE7 PUSH2 0x181B JUMP JUMPDEST PUSH1 0x1 DUP1 PUSH1 0xA0 SHL SUB AND DUP4 MSTORE PUSH1 0x6 PUSH1 0x20 MSTORE PUSH1 0x40 DUP4 KECCAK256 SWAP1 PUSH1 0xFF DUP1 NOT DUP4 SLOAD AND SWAP2 ISZERO ISZERO AND OR SWAP1 SSTORE JUMP JUMPDEST POP SWAP1 CALLVALUE PUSH2 0x276 JUMPI DUP2 PUSH1 0x3 NOT CALLDATASIZE ADD SLT PUSH2 0x276 JUMPI PUSH2 0x1025 PUSH2 0x181B JUMP JUMPDEST PUSH1 0x2 SLOAD SWAP1 PUSH1 0xFF DUP3 AND ISZERO PUSH2 0x1067 JUMPI POP PUSH1 0xFF NOT AND PUSH1 0x2 SSTORE PUSH32 0x5DB9EE0A495BF2E6FF9C91A7834C1BA4FDD244A5E8AA4E537BD38AEAE4B073AA PUSH1 0x20 PUSH1 0x40 MLOAD CALLER DUP2 MSTORE LOG1 DUP1 RETURN JUMPDEST PUSH1 0x40 MLOAD PUSH4 0x8DFC202B PUSH1 0xE0 SHL DUP2 MSTORE REVERT JUMPDEST POP CALLVALUE PUSH2 0x348 JUMPI DUP1 PUSH1 0x3 NOT CALLDATASIZE ADD SLT PUSH2 0x348 JUMPI PUSH1 0x20 PUSH1 0x40 MLOAD PUSH20 0xEEEEEEEEEEEEEEEEEEEEEEEEEEEEEEEEEEEEEEEE DUP2 MSTORE RETURN JUMPDEST POP CALLVALUE PUSH2 0x348 JUMPI PUSH1 0xC0 CALLDATASIZE PUSH1 0x3 NOT ADD SLT PUSH2 0x348 JUMPI DUP2 CALLDATALOAD PUSH8 0xFFFFFFFFFFFFFFFF DUP2 GT PUSH2 0x276 JUMPI PUSH2 0x10D5 SWAP1 CALLDATASIZE SWAP1 DUP5 ADD PUSH2 0x1663 JUMP JUMPDEST SWAP2 PUSH1 0x24 CALLDATALOAD PUSH1 0x1 PUSH1 0x1 PUSH1 0xA0 SHL SUB DUP2 AND DUP2 SUB PUSH2 0x488 JUMPI PUSH1 0x44 CALLDATALOAD PUSH1 0x1 PUSH1 0x1 PUSH1 0xA0 SHL SUB DUP2 AND DUP2 SUB PUSH2 0x8B9 JUMPI PUSH1 0x64 CALLDATALOAD SWAP1 PUSH1 0x1 PUSH1 0x1 PUSH1 0xA0 SHL SUB DUP3 AND DUP3 SUB PUSH2 0x1586 JUMPI CALLER DUP6 MSTORE PUSH1 0x6 PUSH1 0x20 MSTORE PUSH1 0xFF PUSH1 0x40 DUP7 KECCAK256 SLOAD AND DUP1 ISZERO PUSH2 0x1573 JUMPI JUMPDEST PUSH2 0x1130 SWAP1 PUSH2 0x1847 JUMP JUMPDEST PUSH2 0x1138 PUSH2 0x1930 JUMP JUMPDEST DUP6 MLOAD ISZERO PUSH2 0x153D JUMPI PUSH1 0x1 PUSH1 0x1 PUSH1 0xA0 SHL SUB DUP4 AND ISZERO PUSH2 0x1502 JUMPI PUSH1 0x1 PUSH1 0x1 PUSH1 0xA0 SHL SUB DUP2 AND ISZERO ISZERO DUP1 PUSH2 0x14F0 JUMPI JUMPDEST ISZERO PUSH2 0x14AC JUMPI PUSH2 0x1172 PUSH1 0x84 CALLDATALOAD ISZERO ISZERO PUSH2 0x1884 JUMP JUMPDEST PUSH1 0x40 MLOAD DUP7 MLOAD PUSH2 0x1185 DUP2 DUP4 PUSH1 0x20 DUP12 ADD PUSH2 0x16C5 JUMP JUMPDEST PUSH1 0x3 SWAP1 DUP3 ADD SWAP1 DUP2 MSTORE DUP2 SWAP1 SUB PUSH1 0x20 ADD SWAP1 KECCAK256 SLOAD PUSH1 0x1 PUSH1 0x1 PUSH1 0xA0 SHL SUB AND PUSH2 0x146F JUMPI PUSH1 0x7 SWAP1 DUP7 PUSH2 0x12E8 PUSH1 0x8 SLOAD SWAP3 PUSH1 0x1 DUP1 PUSH1 0xA0 SHL SUB DUP8 AND DUP10 MSTORE PUSH1 0x5 PUSH1 0x20 MSTORE PUSH2 0x11CE DUP5 PUSH1 0x40 DUP12 KECCAK256 SLOAD LT ISZERO PUSH2 0x18C1 JUMP JUMPDEST PUSH1 0x1 PUSH1 0x1 PUSH1 0xA0 SHL SUB DUP8 AND DUP10 MSTORE PUSH1 0x5 PUSH1 0x20 MSTORE PUSH1 0x40 DUP10 KECCAK256 DUP1 SLOAD PUSH2 0x11F0 SWAP1 DUP7 SWAP1 PUSH2 0x190D JUMP JUMPDEST SWAP1 SSTORE PUSH1 0x40 MLOAD SWAP6 PUSH2 0x11FF DUP8 PUSH2 0x15D6 JUMP JUMPDEST PUSH1 0x1 DUP1 PUSH1 0xA0 SHL SUB DUP9 AND DUP8 MSTORE PUSH1 0x20 DUP8 ADD SWAP2 PUSH1 0x1 DUP1 PUSH1 0xA0 SHL SUB AND DUP3 MSTORE PUSH1 0x40 DUP8 ADD SWAP1 PUSH1 0x1 DUP1 PUSH1 0xA0 SHL SUB AND DUP2 MSTORE PUSH1 0x60 DUP8 ADD PUSH1 0x84 CALLDATALOAD DUP2 MSTORE PUSH1 0x80 DUP9 ADD SWAP2 PUSH1 0xA4 CALLDATALOAD DUP4 MSTORE PUSH1 0xA0 DUP10 ADD SWAP4 PUSH1 0x1 DUP6 MSTORE PUSH2 0x126B PUSH1 0x20 PUSH1 0xC0 DUP13 ADD SWAP9 TIMESTAMP DUP11 MSTORE PUSH1 0xE0 DUP14 ADD SWAP11 DUP12 MSTORE DUP2 PUSH1 0x40 MLOAD SWAP4 DUP3 DUP6 DUP1 SWAP5 MLOAD SWAP4 DUP5 SWAP3 ADD PUSH2 0x16C5 JUMP JUMPDEST DUP2 ADD PUSH1 0x3 DUP2 MSTORE SUB ADD SWAP1 KECCAK256 SWAP10 PUSH1 0x1 DUP1 PUSH1 0xA0 SHL SUB SWAP1 MLOAD AND SWAP1 PUSH12 0xFFFFFFFFFFFFFFFFFFFFFFFF PUSH1 0xA0 SHL SWAP2 DUP3 DUP13 SLOAD AND OR DUP12 SSTORE PUSH1 0x1 DUP12 ADD SWAP1 PUSH1 0x1 DUP1 PUSH1 0xA0 SHL SUB SWAP1 MLOAD AND DUP3 DUP3 SLOAD AND OR SWAP1 SSTORE PUSH1 0x2 DUP11 ADD SWAP2 PUSH1 0x1 DUP1 PUSH1 0xA0 SHL SUB SWAP1 MLOAD AND SWAP1 DUP3 SLOAD AND OR SWAP1 SSTORE MLOAD PUSH1 0x3 DUP9 ADD SSTORE MLOAD DUP9 DUP8 ADD SSTORE MLOAD ISZERO ISZERO PUSH1 0x5 DUP7 ADD SWAP1 PUSH1 0xFF DUP1 NOT DUP4 SLOAD AND SWAP2 ISZERO ISZERO AND OR SWAP1 SSTORE JUMP JUMPDEST MLOAD PUSH1 0x6 DUP5 ADD SSTORE MLOAD SWAP2 ADD SSTORE PUSH1 0x1 PUSH1 0x1 PUSH1 0xA0 SHL SUB AND DUP3 MSTORE PUSH1 0x20 DUP2 SWAP1 MSTORE PUSH1 0x40 DUP3 KECCAK256 DUP1 SLOAD SWAP1 PUSH9 0x10000000000000000 DUP3 LT ISZERO PUSH2 0x145C JUMPI SWAP1 PUSH2 0x132A SWAP2 PUSH1 0x1 DUP3 ADD DUP2 SSTORE PUSH2 0x16E8 JUMP JUMPDEST SWAP2 SWAP1 SWAP2 PUSH2 0x144A JUMPI DUP4 MLOAD SWAP1 PUSH8 0xFFFFFFFFFFFFFFFF DUP3 GT PUSH2 0x1437 JUMPI POP PUSH2 0x134E DUP3 SLOAD PUSH2 0x1716 JUMP JUMPDEST PUSH1 0x1F DUP2 GT PUSH2 0x13F2 JUMPI JUMPDEST POP PUSH1 0x20 PUSH1 0x1F DUP3 GT PUSH1 0x1 EQ PUSH2 0x1392 JUMPI DUP4 SWAP5 DUP3 SWAP4 SWAP5 SWAP3 PUSH2 0x1387 JUMPI JUMPDEST POP POP DUP2 PUSH1 0x1 SHL SWAP2 PUSH1 0x0 NOT SWAP1 PUSH1 0x3 SHL SHR NOT AND OR SWAP1 SSTORE DUP1 RETURN JUMPDEST ADD MLOAD SWAP1 POP CODESIZE DUP1 PUSH2 0x1370 JUMP JUMPDEST DUP3 DUP5 MSTORE PUSH1 0x20 DUP5 KECCAK256 SWAP1 PUSH1 0x1F NOT DUP4 AND DUP6 JUMPDEST DUP2 DUP2 LT PUSH2 0x13DA JUMPI POP SWAP6 DUP4 PUSH1 0x1 SWAP6 SWAP7 SWAP8 LT PUSH2 0x13C1 JUMPI JUMPDEST POP POP POP DUP2 SHL ADD SWAP1 SSTORE DUP1 RETURN JUMPDEST ADD MLOAD PUSH1 0x0 NOT PUSH1 0xF8 DUP5 PUSH1 0x3 SHL AND SHR NOT AND SWAP1 SSTORE CODESIZE DUP1 DUP1 PUSH2 0x13B6 JUMP JUMPDEST SWAP2 SWAP3 PUSH1 0x20 PUSH1 0x1 DUP2 SWAP3 DUP7 DUP12 ADD MLOAD DUP2 SSTORE ADD SWAP5 ADD SWAP3 ADD PUSH2 0x13A1 JUMP JUMPDEST DUP3 DUP5 MSTORE PUSH1 0x20 DUP5 KECCAK256 PUSH1 0x1F DUP4 ADD PUSH1 0x5 SHR DUP2 ADD SWAP2 PUSH1 0x20 DUP5 LT PUSH2 0x142D JUMPI JUMPDEST PUSH1 0x1F ADD PUSH1 0x5 SHR ADD SWAP1 JUMPDEST DUP2 DUP2 LT PUSH2 0x1422 JUMPI POP PUSH2 0x1357 JUMP JUMPDEST DUP5 DUP2 SSTORE PUSH1 0x1 ADD PUSH2 0x1415 JUMP JUMPDEST SWAP1 SWAP2 POP DUP2 SWAP1 PUSH2 0x140C JUMP JUMPDEST PUSH4 0x4E487B71 PUSH1 0xE0 SHL DUP5 MSTORE PUSH1 0x41 SWAP1 MSTORE PUSH1 0x24 DUP4 REVERT JUMPDEST PUSH4 0x4E487B71 PUSH1 0xE0 SHL DUP4 MSTORE DUP3 SWAP1 MSTORE PUSH1 0x24 DUP3 REVERT JUMPDEST PUSH4 0x4E487B71 PUSH1 0xE0 SHL DUP5 MSTORE PUSH1 0x41 DUP4 MSTORE PUSH1 0x24 DUP5 REVERT JUMPDEST PUSH1 0x40 MLOAD PUSH3 0x461BCD PUSH1 0xE5 SHL DUP2 MSTORE PUSH1 0x20 DUP2 DUP7 ADD MSTORE PUSH1 0x16 PUSH1 0x24 DUP3 ADD MSTORE PUSH22 0x5377617020494420616C726561647920657869737473 PUSH1 0x50 SHL PUSH1 0x44 DUP3 ADD MSTORE PUSH1 0x64 SWAP1 REVERT JUMPDEST PUSH1 0x40 MLOAD PUSH3 0x461BCD PUSH1 0xE5 SHL DUP2 MSTORE PUSH1 0x20 DUP2 DUP7 ADD MSTORE PUSH1 0x17 PUSH1 0x24 DUP3 ADD MSTORE PUSH32 0x496E76616C696420746F6B656E20616464726573736573000000000000000000 PUSH1 0x44 DUP3 ADD MSTORE PUSH1 0x64 SWAP1 REVERT JUMPDEST POP PUSH1 0x1 PUSH1 0x1 PUSH1 0xA0 SHL SUB DUP3 AND ISZERO ISZERO PUSH2 0x1160 JUMP JUMPDEST PUSH1 0x40 MLOAD PUSH3 0x461BCD PUSH1 0xE5 SHL DUP2 MSTORE PUSH1 0x20 DUP2 DUP7 ADD MSTORE PUSH1 0x14 PUSH1 0x24 DUP3 ADD MSTORE PUSH20 0x496E76616C696420757365722061646472657373 PUSH1 0x60 SHL PUSH1 0x44 DUP3 ADD MSTORE PUSH1 0x64 SWAP1 REVERT JUMPDEST PUSH1 0x40 MLOAD PUSH3 0x461BCD PUSH1 0xE5 SHL DUP2 MSTORE PUSH1 0x20 DUP2 DUP7 ADD MSTORE PUSH1 0xF PUSH1 0x24 DUP3 ADD MSTORE PUSH15 0x125B9D985B1A59081CDDD85C081251 PUSH1 0x8A SHL PUSH1 0x44 DUP3 ADD MSTORE PUSH1 0x64 SWAP1 REVERT JUMPDEST POP DUP5 SLOAD PUSH1 0x1 PUSH1 0x1 PUSH1 0xA0 SHL SUB AND CALLER EQ PUSH2 0x1127 JUMP JUMPDEST DUP5 DUP1 REVERT JUMPDEST POP CALLVALUE PUSH2 0x348 JUMPI DUP1 PUSH1 0x3 NOT CALLDATASIZE ADD SLT PUSH2 0x348 JUMPI PUSH1 0x20 PUSH1 0x8 SLOAD PUSH1 0x40 MLOAD SWAP1 DUP2 MSTORE RETURN JUMPDEST SWAP1 POP CALLVALUE PUSH2 0x276 JUMPI DUP2 PUSH1 0x3 NOT CALLDATASIZE ADD SLT PUSH2 0x276 JUMPI DUP1 PUSH20 0x5555555555555555555555555555555555555555 PUSH1 0x20 SWAP3 MSTORE RETURN JUMPDEST PUSH2 0x100 DUP2 ADD SWAP1 DUP2 LT PUSH8 0xFFFFFFFFFFFFFFFF DUP3 GT OR PUSH2 0x15F3 JUMPI PUSH1 0x40 MSTORE JUMP JUMPDEST PUSH4 0x4E487B71 PUSH1 0xE0 SHL PUSH1 0x0 MSTORE PUSH1 0x41 PUSH1 0x4 MSTORE PUSH1 0x24 PUSH1 0x0 REVERT JUMPDEST PUSH1 0x60 DUP2 ADD SWAP1 DUP2 LT PUSH8 0xFFFFFFFFFFFFFFFF DUP3 GT OR PUSH2 0x15F3 JUMPI PUSH1 0x40 MSTORE JUMP JUMPDEST SWAP1 PUSH1 0x1F DUP1 NOT SWAP2 ADD AND DUP2 ADD SWAP1 DUP2 LT PUSH8 0xFFFFFFFFFFFFFFFF DUP3 GT OR PUSH2 0x15F3 JUMPI PUSH1 0x40 MSTORE JUMP JUMPDEST PUSH8 0xFFFFFFFFFFFFFFFF DUP2 GT PUSH2 0x15F3 JUMPI PUSH1 0x1F ADD PUSH1 0x1F NOT AND PUSH1 0x20 ADD SWAP1 JUMP JUMPDEST DUP2 PUSH1 0x1F DUP3 ADD SLT ISZERO PUSH2 0x16AA JUMPI DUP1 CALLDATALOAD SWAP1 PUSH2 0x167A DUP3 PUSH2 0x1647 JUMP JUMPDEST SWAP3 PUSH2 0x1688 PUSH1 0x40 MLOAD SWAP5 DUP6 PUSH2 0x1625 JUMP JUMPDEST DUP3 DUP5 MSTORE PUSH1 0x20 DUP4 DUP4 ADD ADD GT PUSH2 0x16AA JUMPI DUP2 PUSH1 0x0 SWAP3 PUSH1 0x20 DUP1 SWAP4 ADD DUP4 DUP7 ADD CALLDATACOPY DUP4 ADD ADD MSTORE SWAP1 JUMP JUMPDEST PUSH1 0x0 DUP1 REVERT JUMPDEST PUSH1 0x4 CALLDATALOAD SWAP1 PUSH1 0x1 PUSH1 0x1 PUSH1 0xA0 SHL SUB DUP3 AND DUP3 SUB PUSH2 0x16AA JUMPI JUMP JUMPDEST PUSH1 0x0 JUMPDEST DUP4 DUP2 LT PUSH2 0x16D8 JUMPI POP POP PUSH1 0x0 SWAP2 ADD MSTORE JUMP JUMPDEST DUP2 DUP2 ADD MLOAD DUP4 DUP3 ADD MSTORE PUSH1 0x20 ADD PUSH2 0x16C8 JUMP JUMPDEST DUP1 SLOAD DUP3 LT ISZERO PUSH2 0x1700 JUMPI PUSH1 0x0 MSTORE PUSH1 0x20 PUSH1 0x0 KECCAK256 ADD SWAP1 PUSH1 0x0 SWAP1 JUMP JUMPDEST PUSH4 0x4E487B71 PUSH1 0xE0 SHL PUSH1 0x0 MSTORE PUSH1 0x32 PUSH1 0x4 MSTORE PUSH1 0x24 PUSH1 0x0 REVERT JUMPDEST SWAP1 PUSH1 0x1 DUP3 DUP2 SHR SWAP3 AND DUP1 ISZERO PUSH2 0x1746 JUMPI JUMPDEST PUSH1 0x20 DUP4 LT EQ PUSH2 0x1730 JUMPI JUMP JUMPDEST PUSH4 0x4E487B71 PUSH1 0xE0 SHL PUSH1 0x0 MSTORE PUSH1 0x22 PUSH1 0x4 MSTORE PUSH1 0x24 PUSH1 0x0 REVERT JUMPDEST SWAP2 PUSH1 0x7F AND SWAP2 PUSH2 0x1725 JUMP JUMPDEST SWAP1 PUSH1 0x40 MLOAD SWAP2 DUP3 PUSH1 0x0 DUP3 SLOAD SWAP3 PUSH2 0x1764 DUP5 PUSH2 0x1716 JUMP JUMPDEST SWAP1 DUP2 DUP5 MSTORE PUSH1 0x1 SWAP5 DUP6 DUP2 AND SWAP1 DUP2 PUSH1 0x0 EQ PUSH2 0x17D3 JUMPI POP PUSH1 0x1 EQ PUSH2 0x1790 JUMPI JUMPDEST POP POP PUSH2 0x178E SWAP3 POP SUB DUP4 PUSH2 0x1625 JUMP JUMPDEST JUMP JUMPDEST SWAP1 SWAP4 SWAP2 POP PUSH1 0x0 MSTORE PUSH1 0x20 SWAP1 DUP2 PUSH1 0x0 KECCAK256 SWAP4 PUSH1 0x0 SWAP2 JUMPDEST DUP2 DUP4 LT PUSH2 0x17BB JUMPI POP POP PUSH2 0x178E SWAP4 POP DUP3 ADD ADD CODESIZE DUP1 PUSH2 0x1780 JUMP JUMPDEST DUP6 SLOAD DUP9 DUP5 ADD DUP6 ADD MSTORE SWAP5 DUP6 ADD SWAP5 DUP8 SWAP5 POP SWAP2 DUP4 ADD SWAP2 PUSH2 0x17A3 JUMP JUMPDEST SWAP2 POP POP PUSH2 0x178E SWAP5 POP PUSH1 0x20 SWAP3 POP PUSH1 0xFF NOT AND DUP3 DUP5 ADD MSTORE ISZERO ISZERO PUSH1 0x5 SHL DUP3 ADD ADD CODESIZE DUP1 PUSH2 0x1780 JUMP JUMPDEST SWAP1 PUSH1 0x20 SWAP2 PUSH2 0x180F DUP2 MLOAD DUP1 SWAP3 DUP2 DUP6 MSTORE DUP6 DUP1 DUP7 ADD SWAP2 ADD PUSH2 0x16C5 JUMP JUMPDEST PUSH1 0x1F ADD PUSH1 0x1F NOT AND ADD ADD SWAP1 JUMP JUMPDEST PUSH1 0x0 SLOAD PUSH1 0x1 PUSH1 0x1 PUSH1 0xA0 SHL SUB AND CALLER SUB PUSH2 0x182F JUMPI JUMP JUMPDEST PUSH1 0x40 MLOAD PUSH4 0x118CDAA7 PUSH1 0xE0 SHL DUP2 MSTORE CALLER PUSH1 0x4 DUP3 ADD MSTORE PUSH1 0x24 SWAP1 REVERT JUMPDEST ISZERO PUSH2 0x184E JUMPI JUMP JUMPDEST PUSH1 0x40 MLOAD PUSH3 0x461BCD PUSH1 0xE5 SHL DUP2 MSTORE PUSH1 0x20 PUSH1 0x4 DUP3 ADD MSTORE PUSH1 0xE PUSH1 0x24 DUP3 ADD MSTORE PUSH14 0x139BDD08185D5D1A1BDC9A5E9959 PUSH1 0x92 SHL PUSH1 0x44 DUP3 ADD MSTORE PUSH1 0x64 SWAP1 REVERT JUMPDEST ISZERO PUSH2 0x188B JUMPI JUMP JUMPDEST PUSH1 0x40 MLOAD PUSH3 0x461BCD PUSH1 0xE5 SHL DUP2 MSTORE PUSH1 0x20 PUSH1 0x4 DUP3 ADD MSTORE PUSH1 0xE PUSH1 0x24 DUP3 ADD MSTORE PUSH14 0x125B9D985B1A5908185B5BDD5B9D PUSH1 0x92 SHL PUSH1 0x44 DUP3 ADD MSTORE PUSH1 0x64 SWAP1 REVERT JUMPDEST ISZERO PUSH2 0x18C8 JUMPI JUMP JUMPDEST PUSH1 0x40 MLOAD PUSH3 0x461BCD PUSH1 0xE5 SHL DUP2 MSTORE PUSH1 0x20 PUSH1 0x4 DUP3 ADD MSTORE PUSH1 0x18 PUSH1 0x24 DUP3 ADD MSTORE PUSH32 0x496E73756666696369656E7420676173206465706F7369740000000000000000 PUSH1 0x44 DUP3 ADD MSTORE PUSH1 0x64 SWAP1 REVERT JUMPDEST SWAP2 SWAP1 DUP3 SUB SWAP2 DUP3 GT PUSH2 0x191A JUMPI JUMP JUMPDEST PUSH4 0x4E487B71 PUSH1 0xE0 SHL PUSH1 0x0 MSTORE PUSH1 0x11 PUSH1 0x4 MSTORE PUSH1 0x24 PUSH1 0x0 REVERT JUMPDEST PUSH1 0xFF PUSH1 0x2 SLOAD AND PUSH2 0x193C JUMPI JUMP JUMPDEST PUSH1 0x40 MLOAD PUSH4 0xD93C0665 PUSH1 0xE0 SHL DUP2 MSTORE PUSH1 0x4 SWAP1 REVERT JUMPDEST ISZERO PUSH2 0x1955 JUMPI JUMP JUMPDEST PUSH1 0x40 MLOAD PUSH3 0x461BCD PUSH1 0xE5 SHL DUP2 MSTORE PUSH1 0x20 PUSH1 0x4 DUP3 ADD MSTORE PUSH1 0x1B PUSH1 0x24 DUP3 ADD MSTORE PUSH32 0x53776170207265717565737420646F6573206E6F742065786973740000000000 PUSH1 0x44 DUP3 ADD MSTORE PUSH1 0x64 SWAP1 REVERT JUMPDEST ISZERO PUSH2 0x19A1 JUMPI JUMP JUMPDEST PUSH1 0x40 MLOAD PUSH3 0x461BCD PUSH1 0xE5 SHL DUP2 MSTORE PUSH1 0x20 PUSH1 0x4 DUP3 ADD MSTORE PUSH1 0x1A PUSH1 0x24 DUP3 ADD MSTORE PUSH32 0x537761702072657175657374206973206E6F7420616374697665000000000000 PUSH1 0x44 DUP3 ADD MSTORE PUSH1 0x64 SWAP1 REVERT JUMPDEST SWAP2 SWAP1 DUP3 ADD DUP1 SWAP3 GT PUSH2 0x191A JUMPI JUMP JUMPDEST SWAP1 DUP2 PUSH1 0x20 SWAP2 SUB SLT PUSH2 0x16AA JUMPI MLOAD DUP1 ISZERO ISZERO DUP2 SUB PUSH2 0x16AA JUMPI SWAP1 JUMP JUMPDEST SWAP1 PUSH1 0x40 MLOAD PUSH2 0x1A18 DUP2 PUSH2 0x15D6 JUMP JUMPDEST DUP3 SLOAD PUSH1 0x1 PUSH1 0x1 PUSH1 0xA0 SHL SUB SWAP1 DUP2 AND DUP3 MSTORE PUSH1 0x1 DUP5 ADD SLOAD DUP2 AND PUSH1 0x20 DUP4 ADD MSTORE PUSH1 0x2 DUP5 ADD SLOAD AND PUSH1 0x40 DUP3 ADD MSTORE PUSH1 0x3 DUP4 ADD SLOAD PUSH1 0x60 DUP3 ADD MSTORE PUSH1 0x4 DUP4 ADD SLOAD PUSH1 0x80 DUP3 ADD MSTORE PUSH1 0x5 DUP4 ADD SLOAD PUSH1 0xFF AND ISZERO ISZERO PUSH1 0xA0 DUP3 ADD MSTORE PUSH1 0x6 DUP4 ADD SLOAD PUSH1 0xC0 DUP3 ADD MSTORE PUSH1 0x7 SWAP1 SWAP3 ADD SLOAD PUSH1 0xE0 DUP4 ADD MSTORE JUMP JUMPDEST PUSH1 0x40 DUP1 MLOAD SWAP2 DUP1 MLOAD SWAP3 PUSH1 0x20 SWAP1 DUP2 DUP2 DUP2 DUP6 ADD SWAP7 PUSH2 0x1A94 DUP2 DUP4 DUP11 PUSH2 0x16C5 JUMP JUMPDEST DUP2 ADD PUSH1 0x3 DUP2 MSTORE SUB ADD SWAP1 KECCAK256 PUSH1 0x5 DUP2 ADD PUSH1 0xFF NOT DUP2 SLOAD AND SWAP1 SSTORE PUSH1 0x1 SWAP1 DUP2 DUP2 ADD SWAP4 PUSH1 0x1 DUP1 PUSH1 0xA0 SHL SUB SWAP6 DUP7 DUP7 SLOAD AND SWAP7 DUP1 DUP5 SLOAD AND SWAP8 DUP3 MLOAD SWAP10 DUP11 SWAP10 PUSH4 0x70A08231 PUSH1 0xE0 SHL DUP12 MSTORE DUP9 DUP12 PUSH1 0x4 SWAP5 DUP4 DUP7 DUP4 ADD MSTORE PUSH1 0x24 SWAP14 DUP15 SWAP2 GAS STATICCALL SWAP12 DUP13 ISZERO PUSH2 0x1DD6 JUMPI PUSH1 0x0 SWAP13 PUSH2 0x202D JUMPI JUMPDEST POP PUSH1 0x3 DUP8 ADD SWAP12 DUP13 SLOAD GT PUSH2 0x1F7A JUMPI POP POP DUP10 SLOAD PUSH1 0x7 SLOAD DUP1 DUP3 MUL SWAP1 DUP3 DUP3 DIV EQ DUP3 ISZERO OR ISZERO PUSH2 0x1F66 JUMPI PUSH2 0x2710 DUP11 SWAP2 DIV SWAP2 DUP10 DUP13 PUSH1 0x64 DUP8 PUSH2 0x1B2C DUP8 DUP7 PUSH2 0x190D JUMP JUMPDEST SWAP6 SLOAD AND PUSH1 0x0 DUP10 DUP14 SLOAD AND SWAP2 DUP12 MLOAD SWAP7 DUP8 SWAP6 DUP7 SWAP5 PUSH4 0x23B872DD PUSH1 0xE0 SHL DUP7 MSTORE DUP13 DUP7 ADD MSTORE ADDRESS SWAP1 DUP6 ADD MSTORE PUSH1 0x44 DUP5 ADD MSTORE GAS CALL DUP1 ISZERO PUSH2 0x1F5B JUMPI PUSH2 0x1F3E JUMPI JUMPDEST POP PUSH2 0x1B6C DUP8 PUSH2 0x1A0B JUMP JUMPDEST DUP10 DUP2 ADD SWAP1 DUP13 DUP12 PUSH1 0x0 PUSH1 0x44 DUP9 DUP3 DUP13 DUP10 DUP14 DUP11 MLOAD AND SWAP2 MLOAD SWAP8 DUP9 SWAP7 DUP8 SWAP6 PUSH4 0x95EA7B3 PUSH1 0xE0 SHL DUP8 MSTORE DUP7 ADD MSTORE DUP5 ADD MSTORE GAS CALL DUP1 ISZERO PUSH2 0x1F33 JUMPI PUSH2 0x1F16 JUMPI JUMPDEST POP DUP7 MLOAD SWAP1 PUSH2 0x1BAF DUP3 PUSH2 0x1609 JUMP JUMPDEST PUSH1 0x2 DUP3 MSTORE DUP7 DUP13 DUP4 ADD SWAP4 DUP10 CALLDATASIZE DUP7 CALLDATACOPY MLOAD AND DUP3 MLOAD ISZERO PUSH2 0x1F02 JUMPI DUP4 MSTORE DUP7 DUP9 DUP3 ADD MLOAD AND DUP3 MLOAD DUP13 LT ISZERO PUSH2 0x1F02 JUMPI SWAP1 PUSH1 0x80 SWAP2 DUP10 DUP5 ADD MSTORE ADD SWAP10 DUP11 MLOAD SWAP2 PUSH2 0x12C TIMESTAMP ADD SWAP3 DUP4 TIMESTAMP GT PUSH2 0x1EEE JUMPI SWAP4 SWAP3 SWAP2 DUP16 DUP15 SWAP3 DUP12 MLOAD SWAP7 DUP5 DUP9 ADD SWAP9 PUSH4 0x38ED1739 PUSH1 0xE0 SHL DUP11 MSTORE PUSH1 0xC4 DUP10 ADD SWAP4 DUP10 ADD MSTORE PUSH1 0x44 DUP9 ADD MSTORE PUSH1 0xA0 PUSH1 0x64 DUP9 ADD MSTORE MLOAD DUP1 SWAP2 MSTORE PUSH1 0xE4 DUP7 ADD SWAP5 SWAP3 PUSH1 0x0 SWAP1 JUMPDEST DUP3 DUP3 LT PUSH2 0x1ED8 JUMPI POP POP POP POP POP SWAP2 PUSH2 0x1C59 DUP2 PUSH1 0x0 SWAP6 SWAP4 DUP7 SWAP6 ADDRESS PUSH1 0x84 DUP5 ADD MSTORE PUSH1 0xA4 DUP4 ADD MSTORE SUB PUSH1 0x1F NOT DUP2 ADD DUP4 MSTORE DUP3 PUSH2 0x1625 JUMP JUMPDEST MLOAD SWAP1 DUP3 DUP1 GAS CALL SWAP7 PUSH2 0x1C68 PUSH2 0x20EF JUMP JUMPDEST SWAP8 ISZERO PUSH2 0x1EA2 JUMPI MLOAD SWAP7 DUP9 DUP2 MLOAD DUP2 DUP2 LT ISZERO PUSH1 0x0 EQ PUSH2 0x1E99 JUMPI DUP3 SWAP1 DUP2 ADD SUB SLT PUSH2 0x16AA JUMPI DUP9 ADD MLOAD SWAP7 JUMPDEST DUP8 LT PUSH2 0x1E57 JUMPI DUP8 DUP2 PUSH2 0x1DE1 JUMPI JUMPDEST POP POP PUSH1 0x2 DUP6 ADD SWAP9 PUSH2 0x1CDF DUP9 DUP9 DUP6 DUP14 SLOAD AND DUP7 DUP11 SLOAD AND PUSH1 0x0 DUP10 MLOAD DUP1 SWAP7 DUP2 SWAP6 DUP3 SWAP5 PUSH4 0xA9059CBB PUSH1 0xE0 SHL DUP5 MSTORE DUP12 DUP5 ADD PUSH1 0x20 SWAP1 SWAP4 SWAP3 SWAP2 SWAP4 PUSH1 0x40 DUP2 ADD SWAP5 PUSH1 0x1 DUP1 PUSH1 0xA0 SHL SUB AND DUP2 MSTORE ADD MSTORE JUMP JUMPDEST SUB SWAP3 GAS CALL DUP1 ISZERO PUSH2 0x1DD6 JUMPI PUSH2 0x1DB9 JUMPI JUMPDEST POP PUSH1 0x8 SLOAD SWAP2 PUSH1 0x50 DUP4 MUL SWAP3 DUP1 DUP5 DIV PUSH1 0x50 EQ SWAP1 ISZERO OR ISZERO PUSH2 0x1DA6 JUMPI POP POP SWAP2 DUP2 DUP1 PUSH32 0x216B6DDDCC480B5221A056316A2C455E6D34A90D265C7C45D4F565AE2E6949DE SWAP9 SWAP8 SWAP7 SWAP6 SWAP4 PUSH1 0x64 PUSH2 0x1D79 SWAP7 DIV SWAP7 PUSH2 0x1D47 DUP9 PUSH1 0x7 DUP4 ADD SLOAD PUSH2 0x190D JUMP JUMPDEST DUP1 PUSH2 0x1D84 JUMPI JUMPDEST POP SLOAD AND SWAP10 SLOAD AND SWAP10 SLOAD AND SWAP10 SLOAD SWAP5 DUP2 MLOAD SWAP7 DUP8 SWAP7 DUP8 MSTORE DUP7 ADD MSTORE TIMESTAMP SWAP1 DUP6 ADD MSTORE PUSH1 0xA0 PUSH1 0x60 DUP6 ADD MSTORE PUSH1 0xA0 DUP5 ADD SWAP1 PUSH2 0x17F6 JUMP JUMPDEST SWAP1 PUSH1 0x80 DUP4 ADD MSTORE SUB SWAP1 LOG4 JUMP JUMPDEST DUP3 DUP3 SLOAD AND PUSH1 0x0 MSTORE PUSH1 0x5 DUP12 MSTORE PUSH2 0x1D9E DUP7 PUSH1 0x0 KECCAK256 SWAP2 DUP3 SLOAD PUSH2 0x19E6 JUMP JUMPDEST SWAP1 SSTORE CODESIZE PUSH2 0x1D4D JUMP JUMPDEST PUSH1 0x11 SWAP1 PUSH4 0x4E487B71 PUSH1 0xE0 SHL PUSH1 0x0 MSTORE MSTORE PUSH1 0x0 REVERT JUMPDEST PUSH2 0x1DCF SWAP1 DUP10 RETURNDATASIZE DUP12 GT PUSH2 0x5B1 JUMPI PUSH2 0x5A5 DUP2 DUP4 PUSH2 0x1625 JUMP JUMPDEST POP CODESIZE PUSH2 0x1CEE JUMP JUMPDEST DUP6 MLOAD RETURNDATASIZE PUSH1 0x0 DUP3 RETURNDATACOPY RETURNDATASIZE SWAP1 REVERT JUMPDEST DUP10 SLOAD PUSH1 0x0 DUP1 SLOAD DUP8 MLOAD PUSH4 0xA9059CBB PUSH1 0xE0 SHL DUP2 MSTORE SWAP1 DUP8 AND PUSH1 0x1 PUSH1 0x1 PUSH1 0xA0 SHL SUB AND DUP7 DUP3 ADD SWAP1 DUP2 MSTORE PUSH1 0x20 DUP2 ADD SWAP6 SWAP1 SWAP6 MSTORE SWAP4 DUP5 SWAP3 DUP8 AND SWAP2 DUP4 SWAP2 DUP3 SWAP1 PUSH1 0x40 ADD SUB SWAP3 GAS CALL DUP1 ISZERO PUSH2 0x1E4C JUMPI PUSH2 0x1E2F JUMPI JUMPDEST DUP8 PUSH2 0x1C9A JUMP JUMPDEST PUSH2 0x1E45 SWAP1 DUP9 RETURNDATASIZE DUP11 GT PUSH2 0x5B1 JUMPI PUSH2 0x5A5 DUP2 DUP4 PUSH2 0x1625 JUMP JUMPDEST POP CODESIZE PUSH2 0x1E29 JUMP JUMPDEST DUP5 MLOAD RETURNDATASIZE PUSH1 0x0 DUP3 RETURNDATACOPY RETURNDATASIZE SWAP1 REVERT JUMPDEST DUP4 MLOAD PUSH3 0x461BCD PUSH1 0xE5 SHL DUP2 MSTORE DUP1 DUP4 ADD DUP10 SWAP1 MSTORE PUSH1 0x1A DUP2 DUP13 ADD MSTORE PUSH32 0x496E73756666696369656E74206F757470757420616D6F756E74000000000000 PUSH1 0x44 DUP3 ADD MSTORE PUSH1 0x64 SWAP1 REVERT JUMPDEST POP POP POP DUP7 PUSH2 0x1C8D JUMP JUMPDEST DUP5 MLOAD PUSH3 0x461BCD PUSH1 0xE5 SHL DUP2 MSTORE DUP1 DUP5 ADD DUP11 SWAP1 MSTORE PUSH1 0x11 DUP2 DUP14 ADD MSTORE PUSH17 0x11DB1D5956081CDDD85C0819985A5B1959 PUSH1 0x7A SHL PUSH1 0x44 DUP3 ADD MSTORE PUSH1 0x64 SWAP1 REVERT JUMPDEST DUP5 MLOAD DUP13 AND DUP8 MSTORE SWAP6 DUP7 ADD SWAP6 SWAP1 SWAP4 ADD SWAP3 DUP3 ADD DUP16 PUSH2 0x1C29 JUMP JUMPDEST DUP16 PUSH1 0x11 DUP10 PUSH4 0x4E487B71 PUSH1 0xE0 SHL PUSH1 0x0 MSTORE MSTORE PUSH1 0x0 REVERT JUMPDEST DUP15 PUSH1 0x32 DUP9 PUSH4 0x4E487B71 PUSH1 0xE0 SHL PUSH1 0x0 MSTORE MSTORE PUSH1 0x0 REVERT JUMPDEST PUSH2 0x1F2C SWAP1 DUP13 DUP14 RETURNDATASIZE LT PUSH2 0x5B1 JUMPI PUSH2 0x5A5 DUP2 DUP4 PUSH2 0x1625 JUMP JUMPDEST POP CODESIZE PUSH2 0x1BA2 JUMP JUMPDEST DUP9 MLOAD RETURNDATASIZE PUSH1 0x0 DUP3 RETURNDATACOPY RETURNDATASIZE SWAP1 REVERT JUMPDEST PUSH2 0x1F54 SWAP1 DUP11 RETURNDATASIZE DUP13 GT PUSH2 0x5B1 JUMPI PUSH2 0x5A5 DUP2 DUP4 PUSH2 0x1625 JUMP JUMPDEST POP CODESIZE PUSH2 0x1B62 JUMP JUMPDEST DUP7 MLOAD RETURNDATASIZE PUSH1 0x0 DUP3 RETURNDATACOPY RETURNDATASIZE SWAP1 REVERT JUMPDEST DUP11 PUSH1 0x11 DUP5 PUSH4 0x4E487B71 PUSH1 0xE0 SHL PUSH1 0x0 MSTORE MSTORE PUSH1 0x0 REVERT JUMPDEST SWAP2 POP SWAP4 SWAP10 POP PUSH2 0x2022 SWAP7 SWAP9 POP PUSH32 0x22618FBF04DD88E5BEDF3B4495A0D69174C4DF34545953EDB53DEE3C1B4C04C0 SWAP8 POP DUP5 SWAP2 SWAP3 SWAP6 POP PUSH1 0x7 PUSH2 0x1FE1 SWAP6 ADD SLOAD SWAP1 PUSH1 0x0 MSTORE PUSH1 0x5 DUP10 MSTORE PUSH2 0x1FCC DUP7 PUSH1 0x0 KECCAK256 SWAP2 DUP3 SLOAD PUSH2 0x19E6 JUMP JUMPDEST SWAP1 SSTORE SLOAD AND SWAP7 DUP4 MLOAD SWAP3 DUP4 SWAP3 DUP4 SWAP3 MLOAD SWAP3 DUP4 SWAP2 PUSH2 0x16C5 JUMP JUMPDEST DUP2 ADD SUB SWAP1 KECCAK256 SWAP4 DUP2 MLOAD SWAP3 DUP3 DUP5 SWAP4 DUP5 MSTORE DUP4 ADD PUSH1 0x40 SWAP1 PUSH1 0x1A DUP2 MSTORE PUSH32 0x496E73756666696369656E7420746F6B656E2062616C616E6365000000000000 PUSH1 0x20 DUP3 ADD MSTORE ADD SWAP1 JUMP JUMPDEST SWAP1 TIMESTAMP SWAP1 DUP4 ADD MSTORE SUB SWAP1 LOG3 JUMP JUMPDEST SWAP1 SWAP12 DUP10 DUP3 DUP2 RETURNDATASIZE DUP4 GT PUSH2 0x2055 JUMPI JUMPDEST PUSH2 0x2044 DUP2 DUP4 PUSH2 0x1625 JUMP JUMPDEST DUP2 ADD SUB SLT PUSH2 0x348 JUMPI POP MLOAD SWAP11 CODESIZE PUSH2 0x1AF2 JUMP JUMPDEST POP RETURNDATASIZE PUSH2 0x203A JUMP JUMPDEST PUSH1 0x40 MLOAD SWAP1 DUP2 PUSH1 0x0 DUP3 SLOAD PUSH2 0x206E DUP2 PUSH2 0x1716 JUMP JUMPDEST SWAP4 PUSH1 0x1 SWAP2 DUP1 DUP4 AND SWAP1 DUP2 ISZERO PUSH2 0x20D3 JUMPI POP PUSH1 0x1 EQ PUSH2 0x2096 JUMPI JUMPDEST POP POP PUSH1 0x20 SWAP3 POP PUSH1 0x3 DUP2 MSTORE SUB ADD SWAP1 KECCAK256 SWAP1 JUMP JUMPDEST SWAP1 SWAP2 POP PUSH1 0x0 MSTORE PUSH1 0x20 SWAP1 DUP2 PUSH1 0x0 KECCAK256 SWAP1 PUSH1 0x0 SWAP2 JUMPDEST DUP6 DUP4 LT PUSH2 0x20BF JUMPI POP POP POP POP PUSH1 0x20 SWAP2 DUP2 ADD CODESIZE DUP1 PUSH2 0x2085 JUMP JUMPDEST DUP1 SLOAD DUP8 DUP5 ADD MSTORE DUP7 SWAP5 POP SWAP2 DUP4 ADD SWAP2 DUP2 ADD PUSH2 0x20A8 JUMP JUMPDEST SWAP3 POP POP POP PUSH1 0x20 SWAP4 SWAP2 POP PUSH1 0xFF NOT AND DUP3 MSTORE DUP1 ISZERO ISZERO MUL DUP2 ADD CODESIZE DUP1 PUSH2 0x2085 JUMP JUMPDEST RETURNDATASIZE ISZERO PUSH2 0x211A JUMPI RETURNDATASIZE SWAP1 PUSH2 0x2100 DUP3 PUSH2 0x1647 JUMP JUMPDEST SWAP2 PUSH2 0x210E PUSH1 0x40 MLOAD SWAP4 DUP5 PUSH2 0x1625 JUMP JUMPDEST DUP3 MSTORE RETURNDATASIZE PUSH1 0x0 PUSH1 0x20 DUP5 ADD RETURNDATACOPY JUMP JUMPDEST PUSH1 0x60 SWAP1 JUMP JUMPDEST ISZERO PUSH2 0x2126 JUMPI JUMP JUMPDEST PUSH1 0x40 MLOAD PUSH3 0x461BCD PUSH1 0xE5 SHL DUP2 MSTORE PUSH1 0x20 PUSH1 0x4 DUP3 ADD MSTORE PUSH1 0x14 PUSH1 0x24 DUP3 ADD MSTORE PUSH20 0x12165411481D1C985B9CD9995C8819985A5B1959 PUSH1 0x62 SHL PUSH1 0x44 DUP3 ADD MSTORE PUSH1 0x64 SWAP1 REVERT INVALID LOG2 PUSH5 0x6970667358 0x22 SLT KECCAK256 0xAF BASEFEE DUP14 SWAP14 POP LOG4 0xDE ORIGIN 0xB9 PUSH6 0x4B6872902BB SSTORE DUP2 PUSH28 0xF5F8C8D002779667F09CE7A42264736F6C6343000814003300000000 "},"methodIdentifiers":{"GLUEX_QUOTE_ENDPOINT()":"8c73c000","GLUEX_ROUTER()":"770333d6","MAX_FEE()":"bc063e1a","NATIVE_TOKEN()":"31f7d964","WHYPE_TOKEN()":"0ab81e45","authorizedCallers(address)":"536fff6c","cancelSwapRequest(string)":"63f8bb03","createSwapRequest(string,address,address,address,uint256,uint256)":"17d87c4d","depositGas()":"ae9bb692","emergencyWithdraw(address,uint256)":"95ccea67","emergencyWithdrawHYPE(uint256)":"c89e02f7","estimatedGasPerSwap()":"10386bb4","executeSwap(string)":"92c4b289","getSwapRequest(string)":"79381873","getUserGasBalance(address)":"bb383c69","getUserSwaps(address)":"b4770335","owner()":"8da5cb5b","pause()":"8456cb59","paused()":"5c975abb","protocolFee()":"b0e21e8a","renounceOwnership()":"715018a6","setAuthorizedCaller(address,bool)":"454bbd29","setEstimatedGasPerSwap(uint256)":"dcd6df78","setProtocolFee(uint256)":"787dce3d","swapRequests(string)":"473c3897","transferOwnership(address)":"f2fde38b","unpause()":"3f4ba83a","userGasDeposits(address)":"9e9a2c43","userSwapIds(address,uint256)":"4a159fc1","withdrawGas(uint256)":"91657544"}}}}}