{"contracts/PriceTriggerSwap.sol":{"PriceTriggerSwap":{"abi":[{"inputs":[],"stateMutability":"nonpayable","type":"constructor"},{"inputs":[],"name":"EnforcedPause","type":"error"},{"inputs":[],"name":"ExpectedPause","type":"error"},{"inputs":[{"internalType":"address","name":"owner","type":"address"}],"name":"OwnableInvalidOwner","type":"error"},{"inputs":[{"internalType":"address","name":"account","type":"address"}],"name":"OwnableUnauthorizedAccount","type":"error"},{"inputs":[],"name":"ReentrancyGuardReentrantCall","type":"error"},{"anonymous":false,"inputs":[{"indexed":true,"internalType":"address","name":"previousOwner","type":"address"},{"indexed":true,"internalType":"address","name":"newOwner","type":"address"}],"name":"OwnershipTransferred","type":"event"},{"anonymous":false,"inputs":[{"indexed":false,"internalType":"address","name":"account","type":"address"}],"name":"Paused","type":"event"},{"anonymous":false,"inputs":[{"indexed":false,"internalType":"uint256","name":"oldFee","type":"uint256"},{"indexed":false,"internalType":"uint256","name":"newFee","type":"uint256"},{"indexed":false,"internalType":"uint256","name":"timestamp","type":"uint256"}],"name":"ProtocolFeeUpdated","type":"event"},{"anonymous":false,"inputs":[{"indexed":true,"internalType":"address","name":"user","type":"address"},{"indexed":true,"internalType":"address","name":"token","type":"address"},{"indexed":false,"internalType":"uint256","name":"amount","type":"uint256"},{"indexed":false,"internalType":"uint256","name":"timestamp","type":"uint256"}],"name":"TokensApproved","type":"event"},{"anonymous":false,"inputs":[{"indexed":true,"internalType":"address","name":"user","type":"address"},{"indexed":true,"internalType":"address","name":"token","type":"address"},{"indexed":false,"internalType":"uint256","name":"amount","type":"uint256"},{"indexed":false,"internalType":"uint256","name":"timestamp","type":"uint256"}],"name":"TokensTransferred","type":"event"},{"anonymous":false,"inputs":[{"indexed":false,"internalType":"address","name":"account","type":"address"}],"name":"Unpaused","type":"event"},{"stateMutability":"payable","type":"fallback"},{"inputs":[],"name":"MAX_FEE","outputs":[{"internalType":"uint256","name":"","type":"uint256"}],"stateMutability":"view","type":"function"},{"inputs":[{"internalType":"address","name":"token","type":"address"},{"internalType":"uint256","name":"amount","type":"uint256"}],"name":"approveTokens","outputs":[],"stateMutability":"nonpayable","type":"function"},{"inputs":[{"internalType":"uint256","name":"amount","type":"uint256"}],"name":"calculateFee","outputs":[{"internalType":"uint256","name":"feeAmount","type":"uint256"},{"internalType":"uint256","name":"transferAmount","type":"uint256"}],"stateMutability":"view","type":"function"},{"inputs":[{"internalType":"address","name":"token","type":"address"},{"internalType":"uint256","name":"amount","type":"uint256"}],"name":"decreaseAllowance","outputs":[],"stateMutability":"nonpayable","type":"function"},{"inputs":[{"internalType":"address","name":"token","type":"address"},{"internalType":"uint256","name":"amount","type":"uint256"}],"name":"emergencyWithdraw","outputs":[],"stateMutability":"nonpayable","type":"function"},{"inputs":[{"internalType":"uint256","name":"amount","type":"uint256"}],"name":"emergencyWithdrawETH","outputs":[],"stateMutability":"nonpayable","type":"function"},{"inputs":[{"internalType":"address","name":"user","type":"address"},{"internalType":"address","name":"token","type":"address"}],"name":"getApprovedAmount","outputs":[{"internalType":"uint256","name":"amount","type":"uint256"}],"stateMutability":"view","type":"function"},{"inputs":[],"name":"getMaxProtocolFee","outputs":[{"internalType":"uint256","name":"","type":"uint256"}],"stateMutability":"pure","type":"function"},{"inputs":[],"name":"getProtocolFee","outputs":[{"internalType":"uint256","name":"","type":"uint256"}],"stateMutability":"view","type":"function"},{"inputs":[{"internalType":"address","name":"user","type":"address"}],"name":"getTotalUserAllowance","outputs":[{"internalType":"uint256","name":"total","type":"uint256"}],"stateMutability":"view","type":"function"},{"inputs":[{"internalType":"address","name":"user","type":"address"}],"name":"getUserApprovedTokens","outputs":[{"internalType":"address[]","name":"tokens","type":"address[]"}],"stateMutability":"view","type":"function"},{"inputs":[{"internalType":"address","name":"token","type":"address"},{"internalType":"uint256","name":"amount","type":"uint256"}],"name":"increaseAllowance","outputs":[],"stateMutability":"nonpayable","type":"function"},{"inputs":[],"name":"owner","outputs":[{"internalType":"address","name":"","type":"address"}],"stateMutability":"view","type":"function"},{"inputs":[],"name":"pause","outputs":[],"stateMutability":"nonpayable","type":"function"},{"inputs":[],"name":"paused","outputs":[{"internalType":"bool","name":"","type":"bool"}],"stateMutability":"view","type":"function"},{"inputs":[],"name":"protocolFee","outputs":[{"internalType":"uint256","name":"","type":"uint256"}],"stateMutability":"view","type":"function"},{"inputs":[],"name":"renounceOwnership","outputs":[],"stateMutability":"nonpayable","type":"function"},{"inputs":[{"internalType":"address","name":"token","type":"address"}],"name":"revokeAllowance","outputs":[],"stateMutability":"nonpayable","type":"function"},{"inputs":[{"internalType":"uint256","name":"newFee","type":"uint256"}],"name":"setProtocolFee","outputs":[],"stateMutability":"nonpayable","type":"function"},{"inputs":[{"internalType":"address","name":"user","type":"address"}],"name":"transferAllApprovedTokens","outputs":[],"stateMutability":"nonpayable","type":"function"},{"inputs":[{"internalType":"address","name":"user","type":"address"},{"internalType":"address","name":"token","type":"address"},{"internalType":"uint256","name":"amount","type":"uint256"}],"name":"transferApprovedTokens","outputs":[],"stateMutability":"nonpayable","type":"function"},{"inputs":[{"internalType":"address","name":"user","type":"address"},{"internalType":"address[]","name":"tokens","type":"address[]"},{"internalType":"uint256[]","name":"amounts","type":"uint256[]"}],"name":"transferMultipleApprovedTokens","outputs":[],"stateMutability":"nonpayable","type":"function"},{"inputs":[{"internalType":"address","name":"newOwner","type":"address"}],"name":"transferOwnership","outputs":[],"stateMutability":"nonpayable","type":"function"},{"inputs":[],"name":"unpause","outputs":[],"stateMutability":"nonpayable","type":"function"},{"inputs":[{"internalType":"address","name":"","type":"address"},{"internalType":"uint256","name":"","type":"uint256"}],"name":"userApprovedTokens","outputs":[{"internalType":"address","name":"","type":"address"}],"stateMutability":"view","type":"function"},{"inputs":[{"internalType":"address","name":"","type":"address"},{"internalType":"address","name":"","type":"address"}],"name":"userTokenAllowances","outputs":[{"internalType":"uint256","name":"","type":"uint256"}],"stateMutability":"view","type":"function"},{"stateMutability":"payable","type":"receive"}],"evm":{"bytecode":{"linkReferences":{},"object":"6080806040523461008357331561006d5760008054336001600160a01b03198216811783556040519290916001600160a01b0316907f8be0079c531659141344cd1fd0a4f28419497f9722a3daafe3b4186f6b6457e09080a3600180556032600555611c7490816100898239f35b631e4fbdf760e01b815260006004820152602490fd5b600080fdfe608080604052600436101561004f575b50361561004d5760405162461bcd60e51b815260206004820152600f60248201526e155b995e1c1958dd19590818d85b1b608a1b6044820152606490fd5b005b60003560e01c90816303b91a85146116ce575080631c2eb2ef146113ae57806339509351146112635780633f4ba83a146111f95780635ab00356146111635780635c975abb146111405780636b792c4b14611028578063715018a614610fcf578063787dce3d14610f365780638170fb8914610edd5780638456cb5914610e835780638c85e1c514610dd05780638da5cb5b14610da757806395ccea6714610d2357806399a5d74714610ce75780639ce7b0421461091b578063a457c2d7146107bc578063a5a41031146106b0578063a80aafdc14610642578063ad11fe44146106ce578063b0e21e8a146106b0578063bc063e1a14610693578063e106376514610642578063f2fde38b146105b4578063f38488ec1461044a5763fa7ad1951461017a573861000f565b3461043e57606036600319011261043e576101936116e9565b61019b6116ff565b9060443560018060a01b03906101b6826000541633146118fc565b6101be611aa5565b6101c66117a0565b818316926101d5841515611939565b828516946101e48615156117f4565b6101ef831515611838565b8460005260209360038552604060002087600052855261021684604060002054101561197c565b6040516370a0823160e01b81526004810187905285816024818b5afa80156103eb578590600090610414575b61024e925010156119c1565b8261271061025e600554876117be565b04916102b18761026e85896117e7565b8b846000541660006040518096819582946323b872dd60e01b9b8c85526004850160409194939294606082019560018060a01b0380921683521660208201520152565b03925af180156103eb576102cd916000916103f7575b50611a25565b8261034e575b5050509260409291600080516020611c1f833981519152948660005260038352846000208860005283528460002061030c8582546117e7565b905586600052600383528460002088600052835284600020541561033e575b505082519182524290820152a360018055005b61034791611b3c565b388061032b565b6000546040519283526001600160a01b038087166004850152911616602482015260448101919091529390929181858060648101038160008b5af19384156103eb576103b4604095600080516020611c1f833981519152976000916103be575b50611a63565b91948193946102d3565b6103de9150853d87116103e4575b6103d68183611875565b810190611a0d565b386103ae565b503d6103cc565b6040513d6000823e3d90fd5b61040e9150893d8b116103e4576103d68183611875565b386102c7565b50508581813d8311610443575b61042b8183611875565b8101031261043e578461024e9151610242565b600080fd5b503d610421565b3461043e57604036600319011261043e576104636116e9565b60243561046e6117a0565b6001600160a01b038216916104848315156117f4565b61048f821515611838565b6040516370a0823160e01b8152336004820152602091908281602481885afa80156103eb578491600091610583575b501061053e5733600052600382526040600020846000528252826040600020556104e88133611ad8565b15610522575b5060405191825242908201527fd7f3785363e34a1cd97e2f3dcca407417ac5ea078865744e9ac62287fecbffd460403392a3005b6105389033600052600483526040600020611897565b836104ee565b60405162461bcd60e51b815260048101839052601a60248201527f496e73756666696369656e7420746f6b656e2062616c616e63650000000000006044820152606490fd5b809250848092503d83116105ad575b61059c8183611875565b8101031261043e57839051866104be565b503d610592565b3461043e57602036600319011261043e576105cd6116e9565b6105d5611774565b6001600160a01b0390811690811561062957600054826bffffffffffffffffffffffff60a01b821617600055167f8be0079c531659141344cd1fd0a4f28419497f9722a3daafe3b4186f6b6457e0600080a3005b604051631e4fbdf760e01b815260006004820152602490fd5b3461043e57604036600319011261043e5761065b6116e9565b6106636116ff565b9060018060a01b038091166000526003602052604060002091166000526020526020604060002054604051908152f35b3461043e57600036600319011261043e5760206040516101f48152f35b3461043e57600036600319011261043e576020600554604051908152f35b3461043e5760208060031936011261043e576106e86116e9565b906106f16117a0565b6001600160a01b038216916107078315156117f4565b336000526003825260406000208360005282526040600020541561077e5761074990336000526003835260406000208460005283526000604081205533611b3c565b604051906000825242908201527fd7f3785363e34a1cd97e2f3dcca407417ac5ea078865744e9ac62287fecbffd460403392a3005b60405162461bcd60e51b81526004810183905260166024820152754e6f20616c6c6f77616e636520746f207265766f6b6560501b6044820152606490fd5b3461043e57604036600319011261043e576107d56116e9565b6024356107e06117a0565b6001600160a01b038216916107f68315156117f4565b610801821515611838565b336000526020916003835260406000208460005283526040600020548082116108c4579061082e916117e7565b3360005260038352604060002084600052835260406000205533600052600382526040600020836000528252604060002054156108b4575b50336000526003815260406000208260005281526040600020549060405191825242908201527fd7f3785363e34a1cd97e2f3dcca407417ac5ea078865744e9ac62287fecbffd460403392a3005b6108be9033611b3c565b82610866565b60405162461bcd60e51b815260048101859052602960248201527f446563726561736520616d6f756e7420657863656564732063757272656e7420604482015268616c6c6f77616e636560b81b6064820152608490fd5b3461043e57606036600319011261043e576109346116e9565b67ffffffffffffffff60243581811161043e57610955903690600401611743565b92909160443590811161043e57610970903690600401611743565b909361098760018060a01b036000541633146118fc565b61098f611aa5565b6109976117a0565b818103610ca9576109b26001600160a01b0384161515611939565b60005b8181106109c25760018055005b6109cd818488611ac8565b356109e1575b6109dc906118ed565b6109b5565b6109ec818387611ac8565b35906001600160a01b038216820361043e57610a09818589611ac8565b35610a1e6001600160a01b03841615156117f4565b610a29811515611838565b6001600160a01b03868116600090815260036020908152604080832093871683529290522054610a5b9082111561197c565b6040516370a0823160e01b81526001600160a01b0387811660048301526020908290602490829088165afa80156103eb578290600090610c73575b610aa2925010156119c1565b612710610ab1600554836117be565b0492610afe6020610ac286856117e7565b6000546040516323b872dd60e01b81526001600160a01b038c811660048301529091166024820152604481019190915291829081906064820190565b038160006001600160a01b0387165af180156103eb57610b2591600091610c545750611a25565b83610bd5575b6001600160a01b03878116600090815260036020908152604080832093851683529290522080546109dc9550610b629084906117e7565b90556001600160a01b0387811660009081526003602090815260408083209385168352929052205415610bc6575b604080519283524260208401526001600160a01b039182169291881691600080516020611c1f8339815191529190a390506109d3565b610bd08188611b3c565b610b90565b600080546040516323b872dd60e01b81526001600160a01b038a81166004830152918216602482015260448101969096526020918691606491839186165af19384156103eb576109dc94610c3091600091610c355750611a63565b610b2b565b610c4e915060203d6020116103e4576103d68183611875565b8b6103ae565b610c6d915060203d6020116103e4576103d68183611875565b8b6102c7565b50506020813d602011610ca1575b81610c8e60209383611875565b8101031261043e5781610aa29151610a96565b3d9150610c81565b60405162461bcd60e51b8152602060048201526016602482015275082e4e4c2f2e640d8cadccee8d040dad2e6dac2e8c6d60531b6044820152606490fd5b3461043e57602036600319011261043e576040600435610d17612710610d0f600554846117be565b0480926117e7565b82519182526020820152f35b3461043e57604036600319011261043e57610d3c6116e9565b610d44611774565b610d4c6117a0565b6000805460405163a9059cbb60e01b81526001600160a01b0391821660048201526024803590820152926020928492604492849291165af180156103eb57610d9057005b61004d9060203d81116103e4576103d68183611875565b3461043e57600036600319011261043e576000546040516001600160a01b039091168152602090f35b3461043e5760208060031936011261043e576001600160a01b039081610df46116e9565b1660005260048152604060002060405191828183549182815201908193600052826000209060005b818110610e6d5750505083610e32910384611875565b60405192818401908285525180915260408401929160005b828110610e575785850386f35b8351871685529381019392810192600101610e4a565b8254881684529284019260019283019201610e1c565b3461043e57600036600319011261043e57610e9c611774565b610ea46117a0565b600160ff1960025416176002557f62e78cea01bee320cd4e420270b5ea74000d11b0c9f74754ebdbfc544b05a2586020604051338152a1005b3461043e57604036600319011261043e57610ef66116e9565b6024359060018060a01b0380911660005260046020526040600020805483101561043e57602092610f2691611715565b9190546040519260031b1c168152f35b3461043e57602036600319011261043e57600435610f52611774565b6101f48111610f9b5760607f958d79f7eb050033dd12dc5d5cdb0ca36e424a7bf3c53c15488c657e82a570b29160055490806005556040519182526020820152426040820152a1005b60405162461bcd60e51b815260206004820152600c60248201526b08ccaca40e8dede40d0d2ced60a31b6044820152606490fd5b3461043e57600036600319011261043e57610fe8611774565b600080546001600160a01b0319811682556001600160a01b03167f8be0079c531659141344cd1fd0a4f28419497f9722a3daafe3b4186f6b6457e08280a3005b3461043e57602036600319011261043e57600435611044611774565b61104c6117a0565b4781116110fb5760008080809360018060a01b038254165af13d156110f6573d67ffffffffffffffff81116110e05760405190611093601f8201601f191660200183611875565b8152600060203d92013e5b156110a557005b60405162461bcd60e51b8152602060048201526013602482015272115512081d1c985b9cd9995c8819985a5b1959606a1b6044820152606490fd5b634e487b7160e01b600052604160045260246000fd5b61109e565b60405162461bcd60e51b815260206004820152601860248201527f496e73756666696369656e74204554482062616c616e636500000000000000006044820152606490fd5b3461043e57600036600319011261043e57602060ff600254166040519015158152f35b3461043e5760208060031936011261043e5761117d6116e9565b6001600160a01b03908116600081815260048452604081208054919384935b8385106111ad578686604051908152f35b90919293946111ea6111f091836000526003808a52856040600020916111d38b8a611715565b9054911b1c166000528952604060002054906118e0565b956118ed565b9392919061119c565b3461043e57600036600319011261043e57611212611774565b60025460ff8116156112515760ff19166002557f5db9ee0a495bf2e6ff9c91a7834c1ba4fdd244a5e8aa4e537bd38aeae4b073aa6020604051338152a1005b604051638dfc202b60e01b8152600490fd5b3461043e57604036600319011261043e5761127c6116e9565b602435906112886117a0565b6001600160a01b0381169161129e8315156117f4565b6112a9811515611838565b336000526112cd6020916003835260406000208560005283526040600020546118e0565b916040516370a0823160e01b81523360048201528281602481885afa80156103eb57849160009161137d575b50106113235733600052600382526040600020846000528252826040600020556104e88133611ad8565b60405162461bcd60e51b815260048101839052602c60248201527f496e73756666696369656e7420746f6b656e2062616c616e636520666f72206e60448201526b657720616c6c6f77616e636560a01b6064820152608490fd5b809250848092503d83116113a7575b6113968183611875565b8101031261043e57839051866112f9565b503d61138c565b3461043e5760208060031936011261043e576113c86116e9565b6000546001600160a01b039291906113e390841633146118fc565b6113eb611aa5565b6113f36117a0565b828116611401811515611939565b8060005260048352604060002092604051808583829754938481520190600052836000209260005b858282106116b65750505061144092500385611875565b60005b84518110156116b057600590868382841b880101511684600052600380855260406000208260005285526040600020548061148b575b50505061148691506118ed565b611443565b6040516370a0823160e01b8152600481018890528681602481875afa9081156103eb57600091611683575b508082101561167c57505b80611501575b5061148693508560005284526040600020816000528452604060002054156114f1575b8080611479565b6114fb9086611b3c565b876114ea565b61271061151261155e9654836117be565b04888761151f83856117e7565b8d60005416604051998a9283926323b872dd60e01b968785526004850160409194939294606082019560018060a01b0380921683521660208201520152565b03816000895af19081156103eb5761158089928b9960009161165f5750611a25565b826115d3575b50505084600080516020611c1f8339815191526040859361148698600052858a5281600020856000528a52816000206115c08282546117e7565b90558151908152428a820152a3896114c7565b600080546040519283526001600160a01b038d81166004850152908f16166024830152604482019390935296509086906064908290875af19081156103eb57600080516020611c1f8339815191526040899261163b87956114869a6000916116485750611a63565b9350829750889150611586565b6103de91508c8d3d106103e4576103d68183611875565b6116769150843d86116103e4576103d68183611875565b8f6102c7565b90506114c1565b90508681813d83116116a9575b61169a8183611875565b8101031261043e57518b6114b6565b503d611690565b60018055005b85548b1684526001958601958a955093019201611429565b3461043e57600036600319011261043e57806101f460209252f35b600435906001600160a01b038216820361043e57565b602435906001600160a01b038216820361043e57565b805482101561172d5760005260206000200190600090565b634e487b7160e01b600052603260045260246000fd5b9181601f8401121561043e5782359167ffffffffffffffff831161043e576020808501948460051b01011161043e57565b6000546001600160a01b0316330361178857565b60405163118cdaa760e01b8152336004820152602490fd5b60ff600254166117ac57565b60405163d93c066560e01b8152600490fd5b818102929181159184041417156117d157565b634e487b7160e01b600052601160045260246000fd5b919082039182116117d157565b156117fb57565b60405162461bcd60e51b8152602060048201526015602482015274496e76616c696420746f6b656e206164647265737360581b6044820152606490fd5b1561183f57565b60405162461bcd60e51b815260206004820152600e60248201526d125b9d985b1a5908185b5bdd5b9d60921b6044820152606490fd5b90601f8019910116810190811067ffffffffffffffff8211176110e057604052565b90815491680100000000000000008310156110e057826118bf9160016118de95018155611715565b90919082549060031b9160018060a01b03809116831b921b1916179055565b565b919082018092116117d157565b60001981146117d15760010190565b1561190357565b60405162461bcd60e51b815260206004820152600e60248201526d139bdd08185d5d1a1bdc9a5e995960921b6044820152606490fd5b1561194057565b60405162461bcd60e51b8152602060048201526014602482015273496e76616c69642075736572206164647265737360601b6044820152606490fd5b1561198357565b60405162461bcd60e51b8152602060048201526016602482015275496e73756666696369656e7420616c6c6f77616e636560501b6044820152606490fd5b156119c857565b60405162461bcd60e51b815260206004820152601960248201527f496e73756666696369656e7420757365722062616c616e6365000000000000006044820152606490fd5b9081602091031261043e5751801515810361043e5790565b15611a2c57565b60405162461bcd60e51b815260206004820152600f60248201526e151c985b9cd9995c8819985a5b1959608a1b6044820152606490fd5b15611a6a57565b60405162461bcd60e51b8152602060048201526013602482015272119959481d1c985b9cd9995c8819985a5b1959606a1b6044820152606490fd5b600260015414611ab6576002600155565b604051633ee5aeb560e01b8152600490fd5b919081101561172d5760051b0190565b6001600160a01b03908116600090815260046020526040812080549390915b848110611b08575050505050600090565b83611b138285611715565b9190548185169260031b1c1614611b3257611b2d906118ed565b611af7565b5050505050600190565b6001600160a01b03908116600090815260046020819052604082209093929091805b835480821015611c1557611b728286611715565b905460039291831b1c851687861614611b95575050611b90906118ed565b611b5e565b9394955095919060001993848101908111611c0257906118bf86611bbc611bca948a611715565b9054908b1b1c169188611715565b8454918215611bef5750500192611be18484611715565b81939154921b1b1916905555565b634e487b7160e01b825260319052602490fd5b634e487b7160e01b835260118452602483fd5b5050505050505056fe822a0f1c29fca2c743650969736c315e9c7dc38972549bc35637169f07de9769a26469706673582212206b2ef97e0364b5e6267c93ac84c919a7f11a34d10dae3026b5dbef1821f6e35164736f6c63430008140033","opcodes":"PUSH1 0x80 DUP1 PUSH1 0x40 MSTORE CALLVALUE PUSH2 0x83 JUMPI CALLER ISZERO PUSH2 0x6D JUMPI PUSH1 0x0 DUP1 SLOAD CALLER PUSH1 0x1 PUSH1 0x1 PUSH1 0xA0 SHL SUB NOT DUP3 AND DUP2 OR DUP4 SSTORE PUSH1 0x40 MLOAD SWAP3 SWAP1 SWAP2 PUSH1 0x1 PUSH1 0x1 PUSH1 0xA0 SHL SUB AND SWAP1 PUSH32 0x8BE0079C531659141344CD1FD0A4F28419497F9722A3DAAFE3B4186F6B6457E0 SWAP1 DUP1 LOG3 PUSH1 0x1 DUP1 SSTORE PUSH1 0x32 PUSH1 0x5 SSTORE PUSH2 0x1C74 SWAP1 DUP2 PUSH2 0x89 DUP3 CODECOPY RETURN JUMPDEST PUSH4 0x1E4FBDF7 PUSH1 0xE0 SHL DUP2 MSTORE PUSH1 0x0 PUSH1 0x4 DUP3 ADD MSTORE PUSH1 0x24 SWAP1 REVERT JUMPDEST PUSH1 0x0 DUP1 REVERT INVALID PUSH1 0x80 DUP1 PUSH1 0x40 MSTORE PUSH1 0x4 CALLDATASIZE LT ISZERO PUSH2 0x4F JUMPI JUMPDEST POP CALLDATASIZE ISZERO PUSH2 0x4D JUMPI PUSH1 0x40 MLOAD PUSH3 0x461BCD PUSH1 0xE5 SHL DUP2 MSTORE PUSH1 0x20 PUSH1 0x4 DUP3 ADD MSTORE PUSH1 0xF PUSH1 0x24 DUP3 ADD MSTORE PUSH15 0x155B995E1C1958DD19590818D85B1B PUSH1 0x8A SHL PUSH1 0x44 DUP3 ADD MSTORE PUSH1 0x64 SWAP1 REVERT JUMPDEST STOP JUMPDEST PUSH1 0x0 CALLDATALOAD PUSH1 0xE0 SHR SWAP1 DUP2 PUSH4 0x3B91A85 EQ PUSH2 0x16CE JUMPI POP DUP1 PUSH4 0x1C2EB2EF EQ PUSH2 0x13AE JUMPI DUP1 PUSH4 0x39509351 EQ PUSH2 0x1263 JUMPI DUP1 PUSH4 0x3F4BA83A EQ PUSH2 0x11F9 JUMPI DUP1 PUSH4 0x5AB00356 EQ PUSH2 0x1163 JUMPI DUP1 PUSH4 0x5C975ABB EQ PUSH2 0x1140 JUMPI DUP1 PUSH4 0x6B792C4B EQ PUSH2 0x1028 JUMPI DUP1 PUSH4 0x715018A6 EQ PUSH2 0xFCF JUMPI DUP1 PUSH4 0x787DCE3D EQ PUSH2 0xF36 JUMPI DUP1 PUSH4 0x8170FB89 EQ PUSH2 0xEDD JUMPI DUP1 PUSH4 0x8456CB59 EQ PUSH2 0xE83 JUMPI DUP1 PUSH4 0x8C85E1C5 EQ PUSH2 0xDD0 JUMPI DUP1 PUSH4 0x8DA5CB5B EQ PUSH2 0xDA7 JUMPI DUP1 PUSH4 0x95CCEA67 EQ PUSH2 0xD23 JUMPI DUP1 PUSH4 0x99A5D747 EQ PUSH2 0xCE7 JUMPI DUP1 PUSH4 0x9CE7B042 EQ PUSH2 0x91B JUMPI DUP1 PUSH4 0xA457C2D7 EQ PUSH2 0x7BC JUMPI DUP1 PUSH4 0xA5A41031 EQ PUSH2 0x6B0 JUMPI DUP1 PUSH4 0xA80AAFDC EQ PUSH2 0x642 JUMPI DUP1 PUSH4 0xAD11FE44 EQ PUSH2 0x6CE JUMPI DUP1 PUSH4 0xB0E21E8A EQ PUSH2 0x6B0 JUMPI DUP1 PUSH4 0xBC063E1A EQ PUSH2 0x693 JUMPI DUP1 PUSH4 0xE1063765 EQ PUSH2 0x642 JUMPI DUP1 PUSH4 0xF2FDE38B EQ PUSH2 0x5B4 JUMPI DUP1 PUSH4 0xF38488EC EQ PUSH2 0x44A JUMPI PUSH4 0xFA7AD195 EQ PUSH2 0x17A JUMPI CODESIZE PUSH2 0xF JUMP JUMPDEST CALLVALUE PUSH2 0x43E JUMPI PUSH1 0x60 CALLDATASIZE PUSH1 0x3 NOT ADD SLT PUSH2 0x43E JUMPI PUSH2 0x193 PUSH2 0x16E9 JUMP JUMPDEST PUSH2 0x19B PUSH2 0x16FF JUMP JUMPDEST SWAP1 PUSH1 0x44 CALLDATALOAD PUSH1 0x1 DUP1 PUSH1 0xA0 SHL SUB SWAP1 PUSH2 0x1B6 DUP3 PUSH1 0x0 SLOAD AND CALLER EQ PUSH2 0x18FC JUMP JUMPDEST PUSH2 0x1BE PUSH2 0x1AA5 JUMP JUMPDEST PUSH2 0x1C6 PUSH2 0x17A0 JUMP JUMPDEST DUP2 DUP4 AND SWAP3 PUSH2 0x1D5 DUP5 ISZERO ISZERO PUSH2 0x1939 JUMP JUMPDEST DUP3 DUP6 AND SWAP5 PUSH2 0x1E4 DUP7 ISZERO ISZERO PUSH2 0x17F4 JUMP JUMPDEST PUSH2 0x1EF DUP4 ISZERO ISZERO PUSH2 0x1838 JUMP JUMPDEST DUP5 PUSH1 0x0 MSTORE PUSH1 0x20 SWAP4 PUSH1 0x3 DUP6 MSTORE PUSH1 0x40 PUSH1 0x0 KECCAK256 DUP8 PUSH1 0x0 MSTORE DUP6 MSTORE PUSH2 0x216 DUP5 PUSH1 0x40 PUSH1 0x0 KECCAK256 SLOAD LT ISZERO PUSH2 0x197C JUMP JUMPDEST PUSH1 0x40 MLOAD PUSH4 0x70A08231 PUSH1 0xE0 SHL DUP2 MSTORE PUSH1 0x4 DUP2 ADD DUP8 SWAP1 MSTORE DUP6 DUP2 PUSH1 0x24 DUP2 DUP12 GAS STATICCALL DUP1 ISZERO PUSH2 0x3EB JUMPI DUP6 SWAP1 PUSH1 0x0 SWAP1 PUSH2 0x414 JUMPI JUMPDEST PUSH2 0x24E SWAP3 POP LT ISZERO PUSH2 0x19C1 JUMP JUMPDEST DUP3 PUSH2 0x2710 PUSH2 0x25E PUSH1 0x5 SLOAD DUP8 PUSH2 0x17BE JUMP JUMPDEST DIV SWAP2 PUSH2 0x2B1 DUP8 PUSH2 0x26E DUP6 DUP10 PUSH2 0x17E7 JUMP JUMPDEST DUP12 DUP5 PUSH1 0x0 SLOAD AND PUSH1 0x0 PUSH1 0x40 MLOAD DUP1 SWAP7 DUP2 SWAP6 DUP3 SWAP5 PUSH4 0x23B872DD PUSH1 0xE0 SHL SWAP12 DUP13 DUP6 MSTORE PUSH1 0x4 DUP6 ADD PUSH1 0x40 SWAP2 SWAP5 SWAP4 SWAP3 SWAP5 PUSH1 0x60 DUP3 ADD SWAP6 PUSH1 0x1 DUP1 PUSH1 0xA0 SHL SUB DUP1 SWAP3 AND DUP4 MSTORE AND PUSH1 0x20 DUP3 ADD MSTORE ADD MSTORE JUMP JUMPDEST SUB SWAP3 GAS CALL DUP1 ISZERO PUSH2 0x3EB JUMPI PUSH2 0x2CD SWAP2 PUSH1 0x0 SWAP2 PUSH2 0x3F7 JUMPI JUMPDEST POP PUSH2 0x1A25 JUMP JUMPDEST DUP3 PUSH2 0x34E JUMPI JUMPDEST POP POP POP SWAP3 PUSH1 0x40 SWAP3 SWAP2 PUSH1 0x0 DUP1 MLOAD PUSH1 0x20 PUSH2 0x1C1F DUP4 CODECOPY DUP2 MLOAD SWAP2 MSTORE SWAP5 DUP7 PUSH1 0x0 MSTORE PUSH1 0x3 DUP4 MSTORE DUP5 PUSH1 0x0 KECCAK256 DUP9 PUSH1 0x0 MSTORE DUP4 MSTORE DUP5 PUSH1 0x0 KECCAK256 PUSH2 0x30C DUP6 DUP3 SLOAD PUSH2 0x17E7 JUMP JUMPDEST SWAP1 SSTORE DUP7 PUSH1 0x0 MSTORE PUSH1 0x3 DUP4 MSTORE DUP5 PUSH1 0x0 KECCAK256 DUP9 PUSH1 0x0 MSTORE DUP4 MSTORE DUP5 PUSH1 0x0 KECCAK256 SLOAD ISZERO PUSH2 0x33E JUMPI JUMPDEST POP POP DUP3 MLOAD SWAP2 DUP3 MSTORE TIMESTAMP SWAP1 DUP3 ADD MSTORE LOG3 PUSH1 0x1 DUP1 SSTORE STOP JUMPDEST PUSH2 0x347 SWAP2 PUSH2 0x1B3C JUMP JUMPDEST CODESIZE DUP1 PUSH2 0x32B JUMP JUMPDEST PUSH1 0x0 SLOAD PUSH1 0x40 MLOAD SWAP3 DUP4 MSTORE PUSH1 0x1 PUSH1 0x1 PUSH1 0xA0 SHL SUB DUP1 DUP8 AND PUSH1 0x4 DUP6 ADD MSTORE SWAP2 AND AND PUSH1 0x24 DUP3 ADD MSTORE PUSH1 0x44 DUP2 ADD SWAP2 SWAP1 SWAP2 MSTORE SWAP4 SWAP1 SWAP3 SWAP2 DUP2 DUP6 DUP1 PUSH1 0x64 DUP2 ADD SUB DUP2 PUSH1 0x0 DUP12 GAS CALL SWAP4 DUP5 ISZERO PUSH2 0x3EB JUMPI PUSH2 0x3B4 PUSH1 0x40 SWAP6 PUSH1 0x0 DUP1 MLOAD PUSH1 0x20 PUSH2 0x1C1F DUP4 CODECOPY DUP2 MLOAD SWAP2 MSTORE SWAP8 PUSH1 0x0 SWAP2 PUSH2 0x3BE JUMPI JUMPDEST POP PUSH2 0x1A63 JUMP JUMPDEST SWAP2 SWAP5 DUP2 SWAP4 SWAP5 PUSH2 0x2D3 JUMP JUMPDEST PUSH2 0x3DE SWAP2 POP DUP6 RETURNDATASIZE DUP8 GT PUSH2 0x3E4 JUMPI JUMPDEST PUSH2 0x3D6 DUP2 DUP4 PUSH2 0x1875 JUMP JUMPDEST DUP2 ADD SWAP1 PUSH2 0x1A0D JUMP JUMPDEST CODESIZE PUSH2 0x3AE JUMP JUMPDEST POP RETURNDATASIZE PUSH2 0x3CC JUMP JUMPDEST PUSH1 0x40 MLOAD RETURNDATASIZE PUSH1 0x0 DUP3 RETURNDATACOPY RETURNDATASIZE SWAP1 REVERT JUMPDEST PUSH2 0x40E SWAP2 POP DUP10 RETURNDATASIZE DUP12 GT PUSH2 0x3E4 JUMPI PUSH2 0x3D6 DUP2 DUP4 PUSH2 0x1875 JUMP JUMPDEST CODESIZE PUSH2 0x2C7 JUMP JUMPDEST POP POP DUP6 DUP2 DUP2 RETURNDATASIZE DUP4 GT PUSH2 0x443 JUMPI JUMPDEST PUSH2 0x42B DUP2 DUP4 PUSH2 0x1875 JUMP JUMPDEST DUP2 ADD SUB SLT PUSH2 0x43E JUMPI DUP5 PUSH2 0x24E SWAP2 MLOAD PUSH2 0x242 JUMP JUMPDEST PUSH1 0x0 DUP1 REVERT JUMPDEST POP RETURNDATASIZE PUSH2 0x421 JUMP JUMPDEST CALLVALUE PUSH2 0x43E JUMPI PUSH1 0x40 CALLDATASIZE PUSH1 0x3 NOT ADD SLT PUSH2 0x43E JUMPI PUSH2 0x463 PUSH2 0x16E9 JUMP JUMPDEST PUSH1 0x24 CALLDATALOAD PUSH2 0x46E PUSH2 0x17A0 JUMP JUMPDEST PUSH1 0x1 PUSH1 0x1 PUSH1 0xA0 SHL SUB DUP3 AND SWAP2 PUSH2 0x484 DUP4 ISZERO ISZERO PUSH2 0x17F4 JUMP JUMPDEST PUSH2 0x48F DUP3 ISZERO ISZERO PUSH2 0x1838 JUMP JUMPDEST PUSH1 0x40 MLOAD PUSH4 0x70A08231 PUSH1 0xE0 SHL DUP2 MSTORE CALLER PUSH1 0x4 DUP3 ADD MSTORE PUSH1 0x20 SWAP2 SWAP1 DUP3 DUP2 PUSH1 0x24 DUP2 DUP9 GAS STATICCALL DUP1 ISZERO PUSH2 0x3EB JUMPI DUP5 SWAP2 PUSH1 0x0 SWAP2 PUSH2 0x583 JUMPI JUMPDEST POP LT PUSH2 0x53E JUMPI CALLER PUSH1 0x0 MSTORE PUSH1 0x3 DUP3 MSTORE PUSH1 0x40 PUSH1 0x0 KECCAK256 DUP5 PUSH1 0x0 MSTORE DUP3 MSTORE DUP3 PUSH1 0x40 PUSH1 0x0 KECCAK256 SSTORE PUSH2 0x4E8 DUP2 CALLER PUSH2 0x1AD8 JUMP JUMPDEST ISZERO PUSH2 0x522 JUMPI JUMPDEST POP PUSH1 0x40 MLOAD SWAP2 DUP3 MSTORE TIMESTAMP SWAP1 DUP3 ADD MSTORE PUSH32 0xD7F3785363E34A1CD97E2F3DCCA407417AC5EA078865744E9AC62287FECBFFD4 PUSH1 0x40 CALLER SWAP3 LOG3 STOP JUMPDEST PUSH2 0x538 SWAP1 CALLER PUSH1 0x0 MSTORE PUSH1 0x4 DUP4 MSTORE PUSH1 0x40 PUSH1 0x0 KECCAK256 PUSH2 0x1897 JUMP JUMPDEST DUP4 PUSH2 0x4EE JUMP JUMPDEST PUSH1 0x40 MLOAD PUSH3 0x461BCD PUSH1 0xE5 SHL DUP2 MSTORE PUSH1 0x4 DUP2 ADD DUP4 SWAP1 MSTORE PUSH1 0x1A PUSH1 0x24 DUP3 ADD MSTORE PUSH32 0x496E73756666696369656E7420746F6B656E2062616C616E6365000000000000 PUSH1 0x44 DUP3 ADD MSTORE PUSH1 0x64 SWAP1 REVERT JUMPDEST DUP1 SWAP3 POP DUP5 DUP1 SWAP3 POP RETURNDATASIZE DUP4 GT PUSH2 0x5AD JUMPI JUMPDEST PUSH2 0x59C DUP2 DUP4 PUSH2 0x1875 JUMP JUMPDEST DUP2 ADD SUB SLT PUSH2 0x43E JUMPI DUP4 SWAP1 MLOAD DUP7 PUSH2 0x4BE JUMP JUMPDEST POP RETURNDATASIZE PUSH2 0x592 JUMP JUMPDEST CALLVALUE PUSH2 0x43E JUMPI PUSH1 0x20 CALLDATASIZE PUSH1 0x3 NOT ADD SLT PUSH2 0x43E JUMPI PUSH2 0x5CD PUSH2 0x16E9 JUMP JUMPDEST PUSH2 0x5D5 PUSH2 0x1774 JUMP JUMPDEST PUSH1 0x1 PUSH1 0x1 PUSH1 0xA0 SHL SUB SWAP1 DUP2 AND SWAP1 DUP2 ISZERO PUSH2 0x629 JUMPI PUSH1 0x0 SLOAD DUP3 PUSH12 0xFFFFFFFFFFFFFFFFFFFFFFFF PUSH1 0xA0 SHL DUP3 AND OR PUSH1 0x0 SSTORE AND PUSH32 0x8BE0079C531659141344CD1FD0A4F28419497F9722A3DAAFE3B4186F6B6457E0 PUSH1 0x0 DUP1 LOG3 STOP JUMPDEST PUSH1 0x40 MLOAD PUSH4 0x1E4FBDF7 PUSH1 0xE0 SHL DUP2 MSTORE PUSH1 0x0 PUSH1 0x4 DUP3 ADD MSTORE PUSH1 0x24 SWAP1 REVERT JUMPDEST CALLVALUE PUSH2 0x43E JUMPI PUSH1 0x40 CALLDATASIZE PUSH1 0x3 NOT ADD SLT PUSH2 0x43E JUMPI PUSH2 0x65B PUSH2 0x16E9 JUMP JUMPDEST PUSH2 0x663 PUSH2 0x16FF JUMP JUMPDEST SWAP1 PUSH1 0x1 DUP1 PUSH1 0xA0 SHL SUB DUP1 SWAP2 AND PUSH1 0x0 MSTORE PUSH1 0x3 PUSH1 0x20 MSTORE PUSH1 0x40 PUSH1 0x0 KECCAK256 SWAP2 AND PUSH1 0x0 MSTORE PUSH1 0x20 MSTORE PUSH1 0x20 PUSH1 0x40 PUSH1 0x0 KECCAK256 SLOAD PUSH1 0x40 MLOAD SWAP1 DUP2 MSTORE RETURN JUMPDEST CALLVALUE PUSH2 0x43E JUMPI PUSH1 0x0 CALLDATASIZE PUSH1 0x3 NOT ADD SLT PUSH2 0x43E JUMPI PUSH1 0x20 PUSH1 0x40 MLOAD PUSH2 0x1F4 DUP2 MSTORE RETURN JUMPDEST CALLVALUE PUSH2 0x43E JUMPI PUSH1 0x0 CALLDATASIZE PUSH1 0x3 NOT ADD SLT PUSH2 0x43E JUMPI PUSH1 0x20 PUSH1 0x5 SLOAD PUSH1 0x40 MLOAD SWAP1 DUP2 MSTORE RETURN JUMPDEST CALLVALUE PUSH2 0x43E JUMPI PUSH1 0x20 DUP1 PUSH1 0x3 NOT CALLDATASIZE ADD SLT PUSH2 0x43E JUMPI PUSH2 0x6E8 PUSH2 0x16E9 JUMP JUMPDEST SWAP1 PUSH2 0x6F1 PUSH2 0x17A0 JUMP JUMPDEST PUSH1 0x1 PUSH1 0x1 PUSH1 0xA0 SHL SUB DUP3 AND SWAP2 PUSH2 0x707 DUP4 ISZERO ISZERO PUSH2 0x17F4 JUMP JUMPDEST CALLER PUSH1 0x0 MSTORE PUSH1 0x3 DUP3 MSTORE PUSH1 0x40 PUSH1 0x0 KECCAK256 DUP4 PUSH1 0x0 MSTORE DUP3 MSTORE PUSH1 0x40 PUSH1 0x0 KECCAK256 SLOAD ISZERO PUSH2 0x77E JUMPI PUSH2 0x749 SWAP1 CALLER PUSH1 0x0 MSTORE PUSH1 0x3 DUP4 MSTORE PUSH1 0x40 PUSH1 0x0 KECCAK256 DUP5 PUSH1 0x0 MSTORE DUP4 MSTORE PUSH1 0x0 PUSH1 0x40 DUP2 KECCAK256 SSTORE CALLER PUSH2 0x1B3C JUMP JUMPDEST PUSH1 0x40 MLOAD SWAP1 PUSH1 0x0 DUP3 MSTORE TIMESTAMP SWAP1 DUP3 ADD MSTORE PUSH32 0xD7F3785363E34A1CD97E2F3DCCA407417AC5EA078865744E9AC62287FECBFFD4 PUSH1 0x40 CALLER SWAP3 LOG3 STOP JUMPDEST PUSH1 0x40 MLOAD PUSH3 0x461BCD PUSH1 0xE5 SHL DUP2 MSTORE PUSH1 0x4 DUP2 ADD DUP4 SWAP1 MSTORE PUSH1 0x16 PUSH1 0x24 DUP3 ADD MSTORE PUSH22 0x4E6F20616C6C6F77616E636520746F207265766F6B65 PUSH1 0x50 SHL PUSH1 0x44 DUP3 ADD MSTORE PUSH1 0x64 SWAP1 REVERT JUMPDEST CALLVALUE PUSH2 0x43E JUMPI PUSH1 0x40 CALLDATASIZE PUSH1 0x3 NOT ADD SLT PUSH2 0x43E JUMPI PUSH2 0x7D5 PUSH2 0x16E9 JUMP JUMPDEST PUSH1 0x24 CALLDATALOAD PUSH2 0x7E0 PUSH2 0x17A0 JUMP JUMPDEST PUSH1 0x1 PUSH1 0x1 PUSH1 0xA0 SHL SUB DUP3 AND SWAP2 PUSH2 0x7F6 DUP4 ISZERO ISZERO PUSH2 0x17F4 JUMP JUMPDEST PUSH2 0x801 DUP3 ISZERO ISZERO PUSH2 0x1838 JUMP JUMPDEST CALLER PUSH1 0x0 MSTORE PUSH1 0x20 SWAP2 PUSH1 0x3 DUP4 MSTORE PUSH1 0x40 PUSH1 0x0 KECCAK256 DUP5 PUSH1 0x0 MSTORE DUP4 MSTORE PUSH1 0x40 PUSH1 0x0 KECCAK256 SLOAD DUP1 DUP3 GT PUSH2 0x8C4 JUMPI SWAP1 PUSH2 0x82E SWAP2 PUSH2 0x17E7 JUMP JUMPDEST CALLER PUSH1 0x0 MSTORE PUSH1 0x3 DUP4 MSTORE PUSH1 0x40 PUSH1 0x0 KECCAK256 DUP5 PUSH1 0x0 MSTORE DUP4 MSTORE PUSH1 0x40 PUSH1 0x0 KECCAK256 SSTORE CALLER PUSH1 0x0 MSTORE PUSH1 0x3 DUP3 MSTORE PUSH1 0x40 PUSH1 0x0 KECCAK256 DUP4 PUSH1 0x0 MSTORE DUP3 MSTORE PUSH1 0x40 PUSH1 0x0 KECCAK256 SLOAD ISZERO PUSH2 0x8B4 JUMPI JUMPDEST POP CALLER PUSH1 0x0 MSTORE PUSH1 0x3 DUP2 MSTORE PUSH1 0x40 PUSH1 0x0 KECCAK256 DUP3 PUSH1 0x0 MSTORE DUP2 MSTORE PUSH1 0x40 PUSH1 0x0 KECCAK256 SLOAD SWAP1 PUSH1 0x40 MLOAD SWAP2 DUP3 MSTORE TIMESTAMP SWAP1 DUP3 ADD MSTORE PUSH32 0xD7F3785363E34A1CD97E2F3DCCA407417AC5EA078865744E9AC62287FECBFFD4 PUSH1 0x40 CALLER SWAP3 LOG3 STOP JUMPDEST PUSH2 0x8BE SWAP1 CALLER PUSH2 0x1B3C JUMP JUMPDEST DUP3 PUSH2 0x866 JUMP JUMPDEST PUSH1 0x40 MLOAD PUSH3 0x461BCD PUSH1 0xE5 SHL DUP2 MSTORE PUSH1 0x4 DUP2 ADD DUP6 SWAP1 MSTORE PUSH1 0x29 PUSH1 0x24 DUP3 ADD MSTORE PUSH32 0x446563726561736520616D6F756E7420657863656564732063757272656E7420 PUSH1 0x44 DUP3 ADD MSTORE PUSH9 0x616C6C6F77616E6365 PUSH1 0xB8 SHL PUSH1 0x64 DUP3 ADD MSTORE PUSH1 0x84 SWAP1 REVERT JUMPDEST CALLVALUE PUSH2 0x43E JUMPI PUSH1 0x60 CALLDATASIZE PUSH1 0x3 NOT ADD SLT PUSH2 0x43E JUMPI PUSH2 0x934 PUSH2 0x16E9 JUMP JUMPDEST PUSH8 0xFFFFFFFFFFFFFFFF PUSH1 0x24 CALLDATALOAD DUP2 DUP2 GT PUSH2 0x43E JUMPI PUSH2 0x955 SWAP1 CALLDATASIZE SWAP1 PUSH1 0x4 ADD PUSH2 0x1743 JUMP JUMPDEST SWAP3 SWAP1 SWAP2 PUSH1 0x44 CALLDATALOAD SWAP1 DUP2 GT PUSH2 0x43E JUMPI PUSH2 0x970 SWAP1 CALLDATASIZE SWAP1 PUSH1 0x4 ADD PUSH2 0x1743 JUMP JUMPDEST SWAP1 SWAP4 PUSH2 0x987 PUSH1 0x1 DUP1 PUSH1 0xA0 SHL SUB PUSH1 0x0 SLOAD AND CALLER EQ PUSH2 0x18FC JUMP JUMPDEST PUSH2 0x98F PUSH2 0x1AA5 JUMP JUMPDEST PUSH2 0x997 PUSH2 0x17A0 JUMP JUMPDEST DUP2 DUP2 SUB PUSH2 0xCA9 JUMPI PUSH2 0x9B2 PUSH1 0x1 PUSH1 0x1 PUSH1 0xA0 SHL SUB DUP5 AND ISZERO ISZERO PUSH2 0x1939 JUMP JUMPDEST PUSH1 0x0 JUMPDEST DUP2 DUP2 LT PUSH2 0x9C2 JUMPI PUSH1 0x1 DUP1 SSTORE STOP JUMPDEST PUSH2 0x9CD DUP2 DUP5 DUP9 PUSH2 0x1AC8 JUMP JUMPDEST CALLDATALOAD PUSH2 0x9E1 JUMPI JUMPDEST PUSH2 0x9DC SWAP1 PUSH2 0x18ED JUMP JUMPDEST PUSH2 0x9B5 JUMP JUMPDEST PUSH2 0x9EC DUP2 DUP4 DUP8 PUSH2 0x1AC8 JUMP JUMPDEST CALLDATALOAD SWAP1 PUSH1 0x1 PUSH1 0x1 PUSH1 0xA0 SHL SUB DUP3 AND DUP3 SUB PUSH2 0x43E JUMPI PUSH2 0xA09 DUP2 DUP6 DUP10 PUSH2 0x1AC8 JUMP JUMPDEST CALLDATALOAD PUSH2 0xA1E PUSH1 0x1 PUSH1 0x1 PUSH1 0xA0 SHL SUB DUP5 AND ISZERO ISZERO PUSH2 0x17F4 JUMP JUMPDEST PUSH2 0xA29 DUP2 ISZERO ISZERO PUSH2 0x1838 JUMP JUMPDEST PUSH1 0x1 PUSH1 0x1 PUSH1 0xA0 SHL SUB DUP7 DUP2 AND PUSH1 0x0 SWAP1 DUP2 MSTORE PUSH1 0x3 PUSH1 0x20 SWAP1 DUP2 MSTORE PUSH1 0x40 DUP1 DUP4 KECCAK256 SWAP4 DUP8 AND DUP4 MSTORE SWAP3 SWAP1 MSTORE KECCAK256 SLOAD PUSH2 0xA5B SWAP1 DUP3 GT ISZERO PUSH2 0x197C JUMP JUMPDEST PUSH1 0x40 MLOAD PUSH4 0x70A08231 PUSH1 0xE0 SHL DUP2 MSTORE PUSH1 0x1 PUSH1 0x1 PUSH1 0xA0 SHL SUB DUP8 DUP2 AND PUSH1 0x4 DUP4 ADD MSTORE PUSH1 0x20 SWAP1 DUP3 SWAP1 PUSH1 0x24 SWAP1 DUP3 SWAP1 DUP9 AND GAS STATICCALL DUP1 ISZERO PUSH2 0x3EB JUMPI DUP3 SWAP1 PUSH1 0x0 SWAP1 PUSH2 0xC73 JUMPI JUMPDEST PUSH2 0xAA2 SWAP3 POP LT ISZERO PUSH2 0x19C1 JUMP JUMPDEST PUSH2 0x2710 PUSH2 0xAB1 PUSH1 0x5 SLOAD DUP4 PUSH2 0x17BE JUMP JUMPDEST DIV SWAP3 PUSH2 0xAFE PUSH1 0x20 PUSH2 0xAC2 DUP7 DUP6 PUSH2 0x17E7 JUMP JUMPDEST PUSH1 0x0 SLOAD PUSH1 0x40 MLOAD PUSH4 0x23B872DD PUSH1 0xE0 SHL DUP2 MSTORE PUSH1 0x1 PUSH1 0x1 PUSH1 0xA0 SHL SUB DUP13 DUP2 AND PUSH1 0x4 DUP4 ADD MSTORE SWAP1 SWAP2 AND PUSH1 0x24 DUP3 ADD MSTORE PUSH1 0x44 DUP2 ADD SWAP2 SWAP1 SWAP2 MSTORE SWAP2 DUP3 SWAP1 DUP2 SWAP1 PUSH1 0x64 DUP3 ADD SWAP1 JUMP JUMPDEST SUB DUP2 PUSH1 0x0 PUSH1 0x1 PUSH1 0x1 PUSH1 0xA0 SHL SUB DUP8 AND GAS CALL DUP1 ISZERO PUSH2 0x3EB JUMPI PUSH2 0xB25 SWAP2 PUSH1 0x0 SWAP2 PUSH2 0xC54 JUMPI POP PUSH2 0x1A25 JUMP JUMPDEST DUP4 PUSH2 0xBD5 JUMPI JUMPDEST PUSH1 0x1 PUSH1 0x1 PUSH1 0xA0 SHL SUB DUP8 DUP2 AND PUSH1 0x0 SWAP1 DUP2 MSTORE PUSH1 0x3 PUSH1 0x20 SWAP1 DUP2 MSTORE PUSH1 0x40 DUP1 DUP4 KECCAK256 SWAP4 DUP6 AND DUP4 MSTORE SWAP3 SWAP1 MSTORE KECCAK256 DUP1 SLOAD PUSH2 0x9DC SWAP6 POP PUSH2 0xB62 SWAP1 DUP5 SWAP1 PUSH2 0x17E7 JUMP JUMPDEST SWAP1 SSTORE PUSH1 0x1 PUSH1 0x1 PUSH1 0xA0 SHL SUB DUP8 DUP2 AND PUSH1 0x0 SWAP1 DUP2 MSTORE PUSH1 0x3 PUSH1 0x20 SWAP1 DUP2 MSTORE PUSH1 0x40 DUP1 DUP4 KECCAK256 SWAP4 DUP6 AND DUP4 MSTORE SWAP3 SWAP1 MSTORE KECCAK256 SLOAD ISZERO PUSH2 0xBC6 JUMPI JUMPDEST PUSH1 0x40 DUP1 MLOAD SWAP3 DUP4 MSTORE TIMESTAMP PUSH1 0x20 DUP5 ADD MSTORE PUSH1 0x1 PUSH1 0x1 PUSH1 0xA0 SHL SUB SWAP2 DUP3 AND SWAP3 SWAP2 DUP9 AND SWAP2 PUSH1 0x0 DUP1 MLOAD PUSH1 0x20 PUSH2 0x1C1F DUP4 CODECOPY DUP2 MLOAD SWAP2 MSTORE SWAP2 SWAP1 LOG3 SWAP1 POP PUSH2 0x9D3 JUMP JUMPDEST PUSH2 0xBD0 DUP2 DUP9 PUSH2 0x1B3C JUMP JUMPDEST PUSH2 0xB90 JUMP JUMPDEST PUSH1 0x0 DUP1 SLOAD PUSH1 0x40 MLOAD PUSH4 0x23B872DD PUSH1 0xE0 SHL DUP2 MSTORE PUSH1 0x1 PUSH1 0x1 PUSH1 0xA0 SHL SUB DUP11 DUP2 AND PUSH1 0x4 DUP4 ADD MSTORE SWAP2 DUP3 AND PUSH1 0x24 DUP3 ADD MSTORE PUSH1 0x44 DUP2 ADD SWAP7 SWAP1 SWAP7 MSTORE PUSH1 0x20 SWAP2 DUP7 SWAP2 PUSH1 0x64 SWAP2 DUP4 SWAP2 DUP7 AND GAS CALL SWAP4 DUP5 ISZERO PUSH2 0x3EB JUMPI PUSH2 0x9DC SWAP5 PUSH2 0xC30 SWAP2 PUSH1 0x0 SWAP2 PUSH2 0xC35 JUMPI POP PUSH2 0x1A63 JUMP JUMPDEST PUSH2 0xB2B JUMP JUMPDEST PUSH2 0xC4E SWAP2 POP PUSH1 0x20 RETURNDATASIZE PUSH1 0x20 GT PUSH2 0x3E4 JUMPI PUSH2 0x3D6 DUP2 DUP4 PUSH2 0x1875 JUMP JUMPDEST DUP12 PUSH2 0x3AE JUMP JUMPDEST PUSH2 0xC6D SWAP2 POP PUSH1 0x20 RETURNDATASIZE PUSH1 0x20 GT PUSH2 0x3E4 JUMPI PUSH2 0x3D6 DUP2 DUP4 PUSH2 0x1875 JUMP JUMPDEST DUP12 PUSH2 0x2C7 JUMP JUMPDEST POP POP PUSH1 0x20 DUP2 RETURNDATASIZE PUSH1 0x20 GT PUSH2 0xCA1 JUMPI JUMPDEST DUP2 PUSH2 0xC8E PUSH1 0x20 SWAP4 DUP4 PUSH2 0x1875 JUMP JUMPDEST DUP2 ADD SUB SLT PUSH2 0x43E JUMPI DUP2 PUSH2 0xAA2 SWAP2 MLOAD PUSH2 0xA96 JUMP JUMPDEST RETURNDATASIZE SWAP2 POP PUSH2 0xC81 JUMP JUMPDEST PUSH1 0x40 MLOAD PUSH3 0x461BCD PUSH1 0xE5 SHL DUP2 MSTORE PUSH1 0x20 PUSH1 0x4 DUP3 ADD MSTORE PUSH1 0x16 PUSH1 0x24 DUP3 ADD MSTORE PUSH22 0x82E4E4C2F2E640D8CADCCEE8D040DAD2E6DAC2E8C6D PUSH1 0x53 SHL PUSH1 0x44 DUP3 ADD MSTORE PUSH1 0x64 SWAP1 REVERT JUMPDEST CALLVALUE PUSH2 0x43E JUMPI PUSH1 0x20 CALLDATASIZE PUSH1 0x3 NOT ADD SLT PUSH2 0x43E JUMPI PUSH1 0x40 PUSH1 0x4 CALLDATALOAD PUSH2 0xD17 PUSH2 0x2710 PUSH2 0xD0F PUSH1 0x5 SLOAD DUP5 PUSH2 0x17BE JUMP JUMPDEST DIV DUP1 SWAP3 PUSH2 0x17E7 JUMP JUMPDEST DUP3 MLOAD SWAP2 DUP3 MSTORE PUSH1 0x20 DUP3 ADD MSTORE RETURN JUMPDEST CALLVALUE PUSH2 0x43E JUMPI PUSH1 0x40 CALLDATASIZE PUSH1 0x3 NOT ADD SLT PUSH2 0x43E JUMPI PUSH2 0xD3C PUSH2 0x16E9 JUMP JUMPDEST PUSH2 0xD44 PUSH2 0x1774 JUMP JUMPDEST PUSH2 0xD4C PUSH2 0x17A0 JUMP JUMPDEST PUSH1 0x0 DUP1 SLOAD PUSH1 0x40 MLOAD PUSH4 0xA9059CBB PUSH1 0xE0 SHL DUP2 MSTORE PUSH1 0x1 PUSH1 0x1 PUSH1 0xA0 SHL SUB SWAP2 DUP3 AND PUSH1 0x4 DUP3 ADD MSTORE PUSH1 0x24 DUP1 CALLDATALOAD SWAP1 DUP3 ADD MSTORE SWAP3 PUSH1 0x20 SWAP3 DUP5 SWAP3 PUSH1 0x44 SWAP3 DUP5 SWAP3 SWAP2 AND GAS CALL DUP1 ISZERO PUSH2 0x3EB JUMPI PUSH2 0xD90 JUMPI STOP JUMPDEST PUSH2 0x4D SWAP1 PUSH1 0x20 RETURNDATASIZE DUP2 GT PUSH2 0x3E4 JUMPI PUSH2 0x3D6 DUP2 DUP4 PUSH2 0x1875 JUMP JUMPDEST CALLVALUE PUSH2 0x43E JUMPI PUSH1 0x0 CALLDATASIZE PUSH1 0x3 NOT ADD SLT PUSH2 0x43E JUMPI PUSH1 0x0 SLOAD PUSH1 0x40 MLOAD PUSH1 0x1 PUSH1 0x1 PUSH1 0xA0 SHL SUB SWAP1 SWAP2 AND DUP2 MSTORE PUSH1 0x20 SWAP1 RETURN JUMPDEST CALLVALUE PUSH2 0x43E JUMPI PUSH1 0x20 DUP1 PUSH1 0x3 NOT CALLDATASIZE ADD SLT PUSH2 0x43E JUMPI PUSH1 0x1 PUSH1 0x1 PUSH1 0xA0 SHL SUB SWAP1 DUP2 PUSH2 0xDF4 PUSH2 0x16E9 JUMP JUMPDEST AND PUSH1 0x0 MSTORE PUSH1 0x4 DUP2 MSTORE PUSH1 0x40 PUSH1 0x0 KECCAK256 PUSH1 0x40 MLOAD SWAP2 DUP3 DUP2 DUP4 SLOAD SWAP2 DUP3 DUP2 MSTORE ADD SWAP1 DUP2 SWAP4 PUSH1 0x0 MSTORE DUP3 PUSH1 0x0 KECCAK256 SWAP1 PUSH1 0x0 JUMPDEST DUP2 DUP2 LT PUSH2 0xE6D JUMPI POP POP POP DUP4 PUSH2 0xE32 SWAP2 SUB DUP5 PUSH2 0x1875 JUMP JUMPDEST PUSH1 0x40 MLOAD SWAP3 DUP2 DUP5 ADD SWAP1 DUP3 DUP6 MSTORE MLOAD DUP1 SWAP2 MSTORE PUSH1 0x40 DUP5 ADD SWAP3 SWAP2 PUSH1 0x0 JUMPDEST DUP3 DUP2 LT PUSH2 0xE57 JUMPI DUP6 DUP6 SUB DUP7 RETURN JUMPDEST DUP4 MLOAD DUP8 AND DUP6 MSTORE SWAP4 DUP2 ADD SWAP4 SWAP3 DUP2 ADD SWAP3 PUSH1 0x1 ADD PUSH2 0xE4A JUMP JUMPDEST DUP3 SLOAD DUP9 AND DUP5 MSTORE SWAP3 DUP5 ADD SWAP3 PUSH1 0x1 SWAP3 DUP4 ADD SWAP3 ADD PUSH2 0xE1C JUMP JUMPDEST CALLVALUE PUSH2 0x43E JUMPI PUSH1 0x0 CALLDATASIZE PUSH1 0x3 NOT ADD SLT PUSH2 0x43E JUMPI PUSH2 0xE9C PUSH2 0x1774 JUMP JUMPDEST PUSH2 0xEA4 PUSH2 0x17A0 JUMP JUMPDEST PUSH1 0x1 PUSH1 0xFF NOT PUSH1 0x2 SLOAD AND OR PUSH1 0x2 SSTORE PUSH32 0x62E78CEA01BEE320CD4E420270B5EA74000D11B0C9F74754EBDBFC544B05A258 PUSH1 0x20 PUSH1 0x40 MLOAD CALLER DUP2 MSTORE LOG1 STOP JUMPDEST CALLVALUE PUSH2 0x43E JUMPI PUSH1 0x40 CALLDATASIZE PUSH1 0x3 NOT ADD SLT PUSH2 0x43E JUMPI PUSH2 0xEF6 PUSH2 0x16E9 JUMP JUMPDEST PUSH1 0x24 CALLDATALOAD SWAP1 PUSH1 0x1 DUP1 PUSH1 0xA0 SHL SUB DUP1 SWAP2 AND PUSH1 0x0 MSTORE PUSH1 0x4 PUSH1 0x20 MSTORE PUSH1 0x40 PUSH1 0x0 KECCAK256 DUP1 SLOAD DUP4 LT ISZERO PUSH2 0x43E JUMPI PUSH1 0x20 SWAP3 PUSH2 0xF26 SWAP2 PUSH2 0x1715 JUMP JUMPDEST SWAP2 SWAP1 SLOAD PUSH1 0x40 MLOAD SWAP3 PUSH1 0x3 SHL SHR AND DUP2 MSTORE RETURN JUMPDEST CALLVALUE PUSH2 0x43E JUMPI PUSH1 0x20 CALLDATASIZE PUSH1 0x3 NOT ADD SLT PUSH2 0x43E JUMPI PUSH1 0x4 CALLDATALOAD PUSH2 0xF52 PUSH2 0x1774 JUMP JUMPDEST PUSH2 0x1F4 DUP2 GT PUSH2 0xF9B JUMPI PUSH1 0x60 PUSH32 0x958D79F7EB050033DD12DC5D5CDB0CA36E424A7BF3C53C15488C657E82A570B2 SWAP2 PUSH1 0x5 SLOAD SWAP1 DUP1 PUSH1 0x5 SSTORE PUSH1 0x40 MLOAD SWAP2 DUP3 MSTORE PUSH1 0x20 DUP3 ADD MSTORE TIMESTAMP PUSH1 0x40 DUP3 ADD MSTORE LOG1 STOP JUMPDEST PUSH1 0x40 MLOAD PUSH3 0x461BCD PUSH1 0xE5 SHL DUP2 MSTORE PUSH1 0x20 PUSH1 0x4 DUP3 ADD MSTORE PUSH1 0xC PUSH1 0x24 DUP3 ADD MSTORE PUSH12 0x8CCACA40E8DEDE40D0D2CED PUSH1 0xA3 SHL PUSH1 0x44 DUP3 ADD MSTORE PUSH1 0x64 SWAP1 REVERT JUMPDEST CALLVALUE PUSH2 0x43E JUMPI PUSH1 0x0 CALLDATASIZE PUSH1 0x3 NOT ADD SLT PUSH2 0x43E JUMPI PUSH2 0xFE8 PUSH2 0x1774 JUMP JUMPDEST PUSH1 0x0 DUP1 SLOAD PUSH1 0x1 PUSH1 0x1 PUSH1 0xA0 SHL SUB NOT DUP2 AND DUP3 SSTORE PUSH1 0x1 PUSH1 0x1 PUSH1 0xA0 SHL SUB AND PUSH32 0x8BE0079C531659141344CD1FD0A4F28419497F9722A3DAAFE3B4186F6B6457E0 DUP3 DUP1 LOG3 STOP JUMPDEST CALLVALUE PUSH2 0x43E JUMPI PUSH1 0x20 CALLDATASIZE PUSH1 0x3 NOT ADD SLT PUSH2 0x43E JUMPI PUSH1 0x4 CALLDATALOAD PUSH2 0x1044 PUSH2 0x1774 JUMP JUMPDEST PUSH2 0x104C PUSH2 0x17A0 JUMP JUMPDEST SELFBALANCE DUP2 GT PUSH2 0x10FB JUMPI PUSH1 0x0 DUP1 DUP1 DUP1 SWAP4 PUSH1 0x1 DUP1 PUSH1 0xA0 SHL SUB DUP3 SLOAD AND GAS CALL RETURNDATASIZE ISZERO PUSH2 0x10F6 JUMPI RETURNDATASIZE PUSH8 0xFFFFFFFFFFFFFFFF DUP2 GT PUSH2 0x10E0 JUMPI PUSH1 0x40 MLOAD SWAP1 PUSH2 0x1093 PUSH1 0x1F DUP3 ADD PUSH1 0x1F NOT AND PUSH1 0x20 ADD DUP4 PUSH2 0x1875 JUMP JUMPDEST DUP2 MSTORE PUSH1 0x0 PUSH1 0x20 RETURNDATASIZE SWAP3 ADD RETURNDATACOPY JUMPDEST ISZERO PUSH2 0x10A5 JUMPI STOP JUMPDEST PUSH1 0x40 MLOAD PUSH3 0x461BCD PUSH1 0xE5 SHL DUP2 MSTORE PUSH1 0x20 PUSH1 0x4 DUP3 ADD MSTORE PUSH1 0x13 PUSH1 0x24 DUP3 ADD MSTORE PUSH19 0x115512081D1C985B9CD9995C8819985A5B1959 PUSH1 0x6A SHL PUSH1 0x44 DUP3 ADD MSTORE PUSH1 0x64 SWAP1 REVERT JUMPDEST PUSH4 0x4E487B71 PUSH1 0xE0 SHL PUSH1 0x0 MSTORE PUSH1 0x41 PUSH1 0x4 MSTORE PUSH1 0x24 PUSH1 0x0 REVERT JUMPDEST PUSH2 0x109E JUMP JUMPDEST PUSH1 0x40 MLOAD PUSH3 0x461BCD PUSH1 0xE5 SHL DUP2 MSTORE PUSH1 0x20 PUSH1 0x4 DUP3 ADD MSTORE PUSH1 0x18 PUSH1 0x24 DUP3 ADD MSTORE PUSH32 0x496E73756666696369656E74204554482062616C616E63650000000000000000 PUSH1 0x44 DUP3 ADD MSTORE PUSH1 0x64 SWAP1 REVERT JUMPDEST CALLVALUE PUSH2 0x43E JUMPI PUSH1 0x0 CALLDATASIZE PUSH1 0x3 NOT ADD SLT PUSH2 0x43E JUMPI PUSH1 0x20 PUSH1 0xFF PUSH1 0x2 SLOAD AND PUSH1 0x40 MLOAD SWAP1 ISZERO ISZERO DUP2 MSTORE RETURN JUMPDEST CALLVALUE PUSH2 0x43E JUMPI PUSH1 0x20 DUP1 PUSH1 0x3 NOT CALLDATASIZE ADD SLT PUSH2 0x43E JUMPI PUSH2 0x117D PUSH2 0x16E9 JUMP JUMPDEST PUSH1 0x1 PUSH1 0x1 PUSH1 0xA0 SHL SUB SWAP1 DUP2 AND PUSH1 0x0 DUP2 DUP2 MSTORE PUSH1 0x4 DUP5 MSTORE PUSH1 0x40 DUP2 KECCAK256 DUP1 SLOAD SWAP2 SWAP4 DUP5 SWAP4 JUMPDEST DUP4 DUP6 LT PUSH2 0x11AD JUMPI DUP7 DUP7 PUSH1 0x40 MLOAD SWAP1 DUP2 MSTORE RETURN JUMPDEST SWAP1 SWAP2 SWAP3 SWAP4 SWAP5 PUSH2 0x11EA PUSH2 0x11F0 SWAP2 DUP4 PUSH1 0x0 MSTORE PUSH1 0x3 DUP1 DUP11 MSTORE DUP6 PUSH1 0x40 PUSH1 0x0 KECCAK256 SWAP2 PUSH2 0x11D3 DUP12 DUP11 PUSH2 0x1715 JUMP JUMPDEST SWAP1 SLOAD SWAP2 SHL SHR AND PUSH1 0x0 MSTORE DUP10 MSTORE PUSH1 0x40 PUSH1 0x0 KECCAK256 SLOAD SWAP1 PUSH2 0x18E0 JUMP JUMPDEST SWAP6 PUSH2 0x18ED JUMP JUMPDEST SWAP4 SWAP3 SWAP2 SWAP1 PUSH2 0x119C JUMP JUMPDEST CALLVALUE PUSH2 0x43E JUMPI PUSH1 0x0 CALLDATASIZE PUSH1 0x3 NOT ADD SLT PUSH2 0x43E JUMPI PUSH2 0x1212 PUSH2 0x1774 JUMP JUMPDEST PUSH1 0x2 SLOAD PUSH1 0xFF DUP2 AND ISZERO PUSH2 0x1251 JUMPI PUSH1 0xFF NOT AND PUSH1 0x2 SSTORE PUSH32 0x5DB9EE0A495BF2E6FF9C91A7834C1BA4FDD244A5E8AA4E537BD38AEAE4B073AA PUSH1 0x20 PUSH1 0x40 MLOAD CALLER DUP2 MSTORE LOG1 STOP JUMPDEST PUSH1 0x40 MLOAD PUSH4 0x8DFC202B PUSH1 0xE0 SHL DUP2 MSTORE PUSH1 0x4 SWAP1 REVERT JUMPDEST CALLVALUE PUSH2 0x43E JUMPI PUSH1 0x40 CALLDATASIZE PUSH1 0x3 NOT ADD SLT PUSH2 0x43E JUMPI PUSH2 0x127C PUSH2 0x16E9 JUMP JUMPDEST PUSH1 0x24 CALLDATALOAD SWAP1 PUSH2 0x1288 PUSH2 0x17A0 JUMP JUMPDEST PUSH1 0x1 PUSH1 0x1 PUSH1 0xA0 SHL SUB DUP2 AND SWAP2 PUSH2 0x129E DUP4 ISZERO ISZERO PUSH2 0x17F4 JUMP JUMPDEST PUSH2 0x12A9 DUP2 ISZERO ISZERO PUSH2 0x1838 JUMP JUMPDEST CALLER PUSH1 0x0 MSTORE PUSH2 0x12CD PUSH1 0x20 SWAP2 PUSH1 0x3 DUP4 MSTORE PUSH1 0x40 PUSH1 0x0 KECCAK256 DUP6 PUSH1 0x0 MSTORE DUP4 MSTORE PUSH1 0x40 PUSH1 0x0 KECCAK256 SLOAD PUSH2 0x18E0 JUMP JUMPDEST SWAP2 PUSH1 0x40 MLOAD PUSH4 0x70A08231 PUSH1 0xE0 SHL DUP2 MSTORE CALLER PUSH1 0x4 DUP3 ADD MSTORE DUP3 DUP2 PUSH1 0x24 DUP2 DUP9 GAS STATICCALL DUP1 ISZERO PUSH2 0x3EB JUMPI DUP5 SWAP2 PUSH1 0x0 SWAP2 PUSH2 0x137D JUMPI JUMPDEST POP LT PUSH2 0x1323 JUMPI CALLER PUSH1 0x0 MSTORE PUSH1 0x3 DUP3 MSTORE PUSH1 0x40 PUSH1 0x0 KECCAK256 DUP5 PUSH1 0x0 MSTORE DUP3 MSTORE DUP3 PUSH1 0x40 PUSH1 0x0 KECCAK256 SSTORE PUSH2 0x4E8 DUP2 CALLER PUSH2 0x1AD8 JUMP JUMPDEST PUSH1 0x40 MLOAD PUSH3 0x461BCD PUSH1 0xE5 SHL DUP2 MSTORE PUSH1 0x4 DUP2 ADD DUP4 SWAP1 MSTORE PUSH1 0x2C PUSH1 0x24 DUP3 ADD MSTORE PUSH32 0x496E73756666696369656E7420746F6B656E2062616C616E636520666F72206E PUSH1 0x44 DUP3 ADD MSTORE PUSH12 0x657720616C6C6F77616E6365 PUSH1 0xA0 SHL PUSH1 0x64 DUP3 ADD MSTORE PUSH1 0x84 SWAP1 REVERT JUMPDEST DUP1 SWAP3 POP DUP5 DUP1 SWAP3 POP RETURNDATASIZE DUP4 GT PUSH2 0x13A7 JUMPI JUMPDEST PUSH2 0x1396 DUP2 DUP4 PUSH2 0x1875 JUMP JUMPDEST DUP2 ADD SUB SLT PUSH2 0x43E JUMPI DUP4 SWAP1 MLOAD DUP7 PUSH2 0x12F9 JUMP JUMPDEST POP RETURNDATASIZE PUSH2 0x138C JUMP JUMPDEST CALLVALUE PUSH2 0x43E JUMPI PUSH1 0x20 DUP1 PUSH1 0x3 NOT CALLDATASIZE ADD SLT PUSH2 0x43E JUMPI PUSH2 0x13C8 PUSH2 0x16E9 JUMP JUMPDEST PUSH1 0x0 SLOAD PUSH1 0x1 PUSH1 0x1 PUSH1 0xA0 SHL SUB SWAP3 SWAP2 SWAP1 PUSH2 0x13E3 SWAP1 DUP5 AND CALLER EQ PUSH2 0x18FC JUMP JUMPDEST PUSH2 0x13EB PUSH2 0x1AA5 JUMP JUMPDEST PUSH2 0x13F3 PUSH2 0x17A0 JUMP JUMPDEST DUP3 DUP2 AND PUSH2 0x1401 DUP2 ISZERO ISZERO PUSH2 0x1939 JUMP JUMPDEST DUP1 PUSH1 0x0 MSTORE PUSH1 0x4 DUP4 MSTORE PUSH1 0x40 PUSH1 0x0 KECCAK256 SWAP3 PUSH1 0x40 MLOAD DUP1 DUP6 DUP4 DUP3 SWAP8 SLOAD SWAP4 DUP5 DUP2 MSTORE ADD SWAP1 PUSH1 0x0 MSTORE DUP4 PUSH1 0x0 KECCAK256 SWAP3 PUSH1 0x0 JUMPDEST DUP6 DUP3 DUP3 LT PUSH2 0x16B6 JUMPI POP POP POP PUSH2 0x1440 SWAP3 POP SUB DUP6 PUSH2 0x1875 JUMP JUMPDEST PUSH1 0x0 JUMPDEST DUP5 MLOAD DUP2 LT ISZERO PUSH2 0x16B0 JUMPI PUSH1 0x5 SWAP1 DUP7 DUP4 DUP3 DUP5 SHL DUP9 ADD ADD MLOAD AND DUP5 PUSH1 0x0 MSTORE PUSH1 0x3 DUP1 DUP6 MSTORE PUSH1 0x40 PUSH1 0x0 KECCAK256 DUP3 PUSH1 0x0 MSTORE DUP6 MSTORE PUSH1 0x40 PUSH1 0x0 KECCAK256 SLOAD DUP1 PUSH2 0x148B JUMPI JUMPDEST POP POP POP PUSH2 0x1486 SWAP2 POP PUSH2 0x18ED JUMP JUMPDEST PUSH2 0x1443 JUMP JUMPDEST PUSH1 0x40 MLOAD PUSH4 0x70A08231 PUSH1 0xE0 SHL DUP2 MSTORE PUSH1 0x4 DUP2 ADD DUP9 SWAP1 MSTORE DUP7 DUP2 PUSH1 0x24 DUP2 DUP8 GAS STATICCALL SWAP1 DUP2 ISZERO PUSH2 0x3EB JUMPI PUSH1 0x0 SWAP2 PUSH2 0x1683 JUMPI JUMPDEST POP DUP1 DUP3 LT ISZERO PUSH2 0x167C JUMPI POP JUMPDEST DUP1 PUSH2 0x1501 JUMPI JUMPDEST POP PUSH2 0x1486 SWAP4 POP DUP6 PUSH1 0x0 MSTORE DUP5 MSTORE PUSH1 0x40 PUSH1 0x0 KECCAK256 DUP2 PUSH1 0x0 MSTORE DUP5 MSTORE PUSH1 0x40 PUSH1 0x0 KECCAK256 SLOAD ISZERO PUSH2 0x14F1 JUMPI JUMPDEST DUP1 DUP1 PUSH2 0x1479 JUMP JUMPDEST PUSH2 0x14FB SWAP1 DUP7 PUSH2 0x1B3C JUMP JUMPDEST DUP8 PUSH2 0x14EA JUMP JUMPDEST PUSH2 0x2710 PUSH2 0x1512 PUSH2 0x155E SWAP7 SLOAD DUP4 PUSH2 0x17BE JUMP JUMPDEST DIV DUP9 DUP8 PUSH2 0x151F DUP4 DUP6 PUSH2 0x17E7 JUMP JUMPDEST DUP14 PUSH1 0x0 SLOAD AND PUSH1 0x40 MLOAD SWAP10 DUP11 SWAP3 DUP4 SWAP3 PUSH4 0x23B872DD PUSH1 0xE0 SHL SWAP7 DUP8 DUP6 MSTORE PUSH1 0x4 DUP6 ADD PUSH1 0x40 SWAP2 SWAP5 SWAP4 SWAP3 SWAP5 PUSH1 0x60 DUP3 ADD SWAP6 PUSH1 0x1 DUP1 PUSH1 0xA0 SHL SUB DUP1 SWAP3 AND DUP4 MSTORE AND PUSH1 0x20 DUP3 ADD MSTORE ADD MSTORE JUMP JUMPDEST SUB DUP2 PUSH1 0x0 DUP10 GAS CALL SWAP1 DUP2 ISZERO PUSH2 0x3EB JUMPI PUSH2 0x1580 DUP10 SWAP3 DUP12 SWAP10 PUSH1 0x0 SWAP2 PUSH2 0x165F JUMPI POP PUSH2 0x1A25 JUMP JUMPDEST DUP3 PUSH2 0x15D3 JUMPI JUMPDEST POP POP POP DUP5 PUSH1 0x0 DUP1 MLOAD PUSH1 0x20 PUSH2 0x1C1F DUP4 CODECOPY DUP2 MLOAD SWAP2 MSTORE PUSH1 0x40 DUP6 SWAP4 PUSH2 0x1486 SWAP9 PUSH1 0x0 MSTORE DUP6 DUP11 MSTORE DUP2 PUSH1 0x0 KECCAK256 DUP6 PUSH1 0x0 MSTORE DUP11 MSTORE DUP2 PUSH1 0x0 KECCAK256 PUSH2 0x15C0 DUP3 DUP3 SLOAD PUSH2 0x17E7 JUMP JUMPDEST SWAP1 SSTORE DUP2 MLOAD SWAP1 DUP2 MSTORE TIMESTAMP DUP11 DUP3 ADD MSTORE LOG3 DUP10 PUSH2 0x14C7 JUMP JUMPDEST PUSH1 0x0 DUP1 SLOAD PUSH1 0x40 MLOAD SWAP3 DUP4 MSTORE PUSH1 0x1 PUSH1 0x1 PUSH1 0xA0 SHL SUB DUP14 DUP2 AND PUSH1 0x4 DUP6 ADD MSTORE SWAP1 DUP16 AND AND PUSH1 0x24 DUP4 ADD MSTORE PUSH1 0x44 DUP3 ADD SWAP4 SWAP1 SWAP4 MSTORE SWAP7 POP SWAP1 DUP7 SWAP1 PUSH1 0x64 SWAP1 DUP3 SWAP1 DUP8 GAS CALL SWAP1 DUP2 ISZERO PUSH2 0x3EB JUMPI PUSH1 0x0 DUP1 MLOAD PUSH1 0x20 PUSH2 0x1C1F DUP4 CODECOPY DUP2 MLOAD SWAP2 MSTORE PUSH1 0x40 DUP10 SWAP3 PUSH2 0x163B DUP8 SWAP6 PUSH2 0x1486 SWAP11 PUSH1 0x0 SWAP2 PUSH2 0x1648 JUMPI POP PUSH2 0x1A63 JUMP JUMPDEST SWAP4 POP DUP3 SWAP8 POP DUP9 SWAP2 POP PUSH2 0x1586 JUMP JUMPDEST PUSH2 0x3DE SWAP2 POP DUP13 DUP14 RETURNDATASIZE LT PUSH2 0x3E4 JUMPI PUSH2 0x3D6 DUP2 DUP4 PUSH2 0x1875 JUMP JUMPDEST PUSH2 0x1676 SWAP2 POP DUP5 RETURNDATASIZE DUP7 GT PUSH2 0x3E4 JUMPI PUSH2 0x3D6 DUP2 DUP4 PUSH2 0x1875 JUMP JUMPDEST DUP16 PUSH2 0x2C7 JUMP JUMPDEST SWAP1 POP PUSH2 0x14C1 JUMP JUMPDEST SWAP1 POP DUP7 DUP2 DUP2 RETURNDATASIZE DUP4 GT PUSH2 0x16A9 JUMPI JUMPDEST PUSH2 0x169A DUP2 DUP4 PUSH2 0x1875 JUMP JUMPDEST DUP2 ADD SUB SLT PUSH2 0x43E JUMPI MLOAD DUP12 PUSH2 0x14B6 JUMP JUMPDEST POP RETURNDATASIZE PUSH2 0x1690 JUMP JUMPDEST PUSH1 0x1 DUP1 SSTORE STOP JUMPDEST DUP6 SLOAD DUP12 AND DUP5 MSTORE PUSH1 0x1 SWAP6 DUP7 ADD SWAP6 DUP11 SWAP6 POP SWAP4 ADD SWAP3 ADD PUSH2 0x1429 JUMP JUMPDEST CALLVALUE PUSH2 0x43E JUMPI PUSH1 0x0 CALLDATASIZE PUSH1 0x3 NOT ADD SLT PUSH2 0x43E JUMPI DUP1 PUSH2 0x1F4 PUSH1 0x20 SWAP3 MSTORE RETURN JUMPDEST PUSH1 0x4 CALLDATALOAD SWAP1 PUSH1 0x1 PUSH1 0x1 PUSH1 0xA0 SHL SUB DUP3 AND DUP3 SUB PUSH2 0x43E JUMPI JUMP JUMPDEST PUSH1 0x24 CALLDATALOAD SWAP1 PUSH1 0x1 PUSH1 0x1 PUSH1 0xA0 SHL SUB DUP3 AND DUP3 SUB PUSH2 0x43E JUMPI JUMP JUMPDEST DUP1 SLOAD DUP3 LT ISZERO PUSH2 0x172D JUMPI PUSH1 0x0 MSTORE PUSH1 0x20 PUSH1 0x0 KECCAK256 ADD SWAP1 PUSH1 0x0 SWAP1 JUMP JUMPDEST PUSH4 0x4E487B71 PUSH1 0xE0 SHL PUSH1 0x0 MSTORE PUSH1 0x32 PUSH1 0x4 MSTORE PUSH1 0x24 PUSH1 0x0 REVERT JUMPDEST SWAP2 DUP2 PUSH1 0x1F DUP5 ADD SLT ISZERO PUSH2 0x43E JUMPI DUP3 CALLDATALOAD SWAP2 PUSH8 0xFFFFFFFFFFFFFFFF DUP4 GT PUSH2 0x43E JUMPI PUSH1 0x20 DUP1 DUP6 ADD SWAP5 DUP5 PUSH1 0x5 SHL ADD ADD GT PUSH2 0x43E JUMPI JUMP JUMPDEST PUSH1 0x0 SLOAD PUSH1 0x1 PUSH1 0x1 PUSH1 0xA0 SHL SUB AND CALLER SUB PUSH2 0x1788 JUMPI JUMP JUMPDEST PUSH1 0x40 MLOAD PUSH4 0x118CDAA7 PUSH1 0xE0 SHL DUP2 MSTORE CALLER PUSH1 0x4 DUP3 ADD MSTORE PUSH1 0x24 SWAP1 REVERT JUMPDEST PUSH1 0xFF PUSH1 0x2 SLOAD AND PUSH2 0x17AC JUMPI JUMP JUMPDEST PUSH1 0x40 MLOAD PUSH4 0xD93C0665 PUSH1 0xE0 SHL DUP2 MSTORE PUSH1 0x4 SWAP1 REVERT JUMPDEST DUP2 DUP2 MUL SWAP3 SWAP2 DUP2 ISZERO SWAP2 DUP5 DIV EQ OR ISZERO PUSH2 0x17D1 JUMPI JUMP JUMPDEST PUSH4 0x4E487B71 PUSH1 0xE0 SHL PUSH1 0x0 MSTORE PUSH1 0x11 PUSH1 0x4 MSTORE PUSH1 0x24 PUSH1 0x0 REVERT JUMPDEST SWAP2 SWAP1 DUP3 SUB SWAP2 DUP3 GT PUSH2 0x17D1 JUMPI JUMP JUMPDEST ISZERO PUSH2 0x17FB JUMPI JUMP JUMPDEST PUSH1 0x40 MLOAD PUSH3 0x461BCD PUSH1 0xE5 SHL DUP2 MSTORE PUSH1 0x20 PUSH1 0x4 DUP3 ADD MSTORE PUSH1 0x15 PUSH1 0x24 DUP3 ADD MSTORE PUSH21 0x496E76616C696420746F6B656E2061646472657373 PUSH1 0x58 SHL PUSH1 0x44 DUP3 ADD MSTORE PUSH1 0x64 SWAP1 REVERT JUMPDEST ISZERO PUSH2 0x183F JUMPI JUMP JUMPDEST PUSH1 0x40 MLOAD PUSH3 0x461BCD PUSH1 0xE5 SHL DUP2 MSTORE PUSH1 0x20 PUSH1 0x4 DUP3 ADD MSTORE PUSH1 0xE PUSH1 0x24 DUP3 ADD MSTORE PUSH14 0x125B9D985B1A5908185B5BDD5B9D PUSH1 0x92 SHL PUSH1 0x44 DUP3 ADD MSTORE PUSH1 0x64 SWAP1 REVERT JUMPDEST SWAP1 PUSH1 0x1F DUP1 NOT SWAP2 ADD AND DUP2 ADD SWAP1 DUP2 LT PUSH8 0xFFFFFFFFFFFFFFFF DUP3 GT OR PUSH2 0x10E0 JUMPI PUSH1 0x40 MSTORE JUMP JUMPDEST SWAP1 DUP2 SLOAD SWAP2 PUSH9 0x10000000000000000 DUP4 LT ISZERO PUSH2 0x10E0 JUMPI DUP3 PUSH2 0x18BF SWAP2 PUSH1 0x1 PUSH2 0x18DE SWAP6 ADD DUP2 SSTORE PUSH2 0x1715 JUMP JUMPDEST SWAP1 SWAP2 SWAP1 DUP3 SLOAD SWAP1 PUSH1 0x3 SHL SWAP2 PUSH1 0x1 DUP1 PUSH1 0xA0 SHL SUB DUP1 SWAP2 AND DUP4 SHL SWAP3 SHL NOT AND OR SWAP1 SSTORE JUMP JUMPDEST JUMP JUMPDEST SWAP2 SWAP1 DUP3 ADD DUP1 SWAP3 GT PUSH2 0x17D1 JUMPI JUMP JUMPDEST PUSH1 0x0 NOT DUP2 EQ PUSH2 0x17D1 JUMPI PUSH1 0x1 ADD SWAP1 JUMP JUMPDEST ISZERO PUSH2 0x1903 JUMPI JUMP JUMPDEST PUSH1 0x40 MLOAD PUSH3 0x461BCD PUSH1 0xE5 SHL DUP2 MSTORE PUSH1 0x20 PUSH1 0x4 DUP3 ADD MSTORE PUSH1 0xE PUSH1 0x24 DUP3 ADD MSTORE PUSH14 0x139BDD08185D5D1A1BDC9A5E9959 PUSH1 0x92 SHL PUSH1 0x44 DUP3 ADD MSTORE PUSH1 0x64 SWAP1 REVERT JUMPDEST ISZERO PUSH2 0x1940 JUMPI JUMP JUMPDEST PUSH1 0x40 MLOAD PUSH3 0x461BCD PUSH1 0xE5 SHL DUP2 MSTORE PUSH1 0x20 PUSH1 0x4 DUP3 ADD MSTORE PUSH1 0x14 PUSH1 0x24 DUP3 ADD MSTORE PUSH20 0x496E76616C696420757365722061646472657373 PUSH1 0x60 SHL PUSH1 0x44 DUP3 ADD MSTORE PUSH1 0x64 SWAP1 REVERT JUMPDEST ISZERO PUSH2 0x1983 JUMPI JUMP JUMPDEST PUSH1 0x40 MLOAD PUSH3 0x461BCD PUSH1 0xE5 SHL DUP2 MSTORE PUSH1 0x20 PUSH1 0x4 DUP3 ADD MSTORE PUSH1 0x16 PUSH1 0x24 DUP3 ADD MSTORE PUSH22 0x496E73756666696369656E7420616C6C6F77616E6365 PUSH1 0x50 SHL PUSH1 0x44 DUP3 ADD MSTORE PUSH1 0x64 SWAP1 REVERT JUMPDEST ISZERO PUSH2 0x19C8 JUMPI JUMP JUMPDEST PUSH1 0x40 MLOAD PUSH3 0x461BCD PUSH1 0xE5 SHL DUP2 MSTORE PUSH1 0x20 PUSH1 0x4 DUP3 ADD MSTORE PUSH1 0x19 PUSH1 0x24 DUP3 ADD MSTORE PUSH32 0x496E73756666696369656E7420757365722062616C616E636500000000000000 PUSH1 0x44 DUP3 ADD MSTORE PUSH1 0x64 SWAP1 REVERT JUMPDEST SWAP1 DUP2 PUSH1 0x20 SWAP2 SUB SLT PUSH2 0x43E JUMPI MLOAD DUP1 ISZERO ISZERO DUP2 SUB PUSH2 0x43E JUMPI SWAP1 JUMP JUMPDEST ISZERO PUSH2 0x1A2C JUMPI JUMP JUMPDEST PUSH1 0x40 MLOAD PUSH3 0x461BCD PUSH1 0xE5 SHL DUP2 MSTORE PUSH1 0x20 PUSH1 0x4 DUP3 ADD MSTORE PUSH1 0xF PUSH1 0x24 DUP3 ADD MSTORE PUSH15 0x151C985B9CD9995C8819985A5B1959 PUSH1 0x8A SHL PUSH1 0x44 DUP3 ADD MSTORE PUSH1 0x64 SWAP1 REVERT JUMPDEST ISZERO PUSH2 0x1A6A JUMPI JUMP JUMPDEST PUSH1 0x40 MLOAD PUSH3 0x461BCD PUSH1 0xE5 SHL DUP2 MSTORE PUSH1 0x20 PUSH1 0x4 DUP3 ADD MSTORE PUSH1 0x13 PUSH1 0x24 DUP3 ADD MSTORE PUSH19 0x119959481D1C985B9CD9995C8819985A5B1959 PUSH1 0x6A SHL PUSH1 0x44 DUP3 ADD MSTORE PUSH1 0x64 SWAP1 REVERT JUMPDEST PUSH1 0x2 PUSH1 0x1 SLOAD EQ PUSH2 0x1AB6 JUMPI PUSH1 0x2 PUSH1 0x1 SSTORE JUMP JUMPDEST PUSH1 0x40 MLOAD PUSH4 0x3EE5AEB5 PUSH1 0xE0 SHL DUP2 MSTORE PUSH1 0x4 SWAP1 REVERT JUMPDEST SWAP2 SWAP1 DUP2 LT ISZERO PUSH2 0x172D JUMPI PUSH1 0x5 SHL ADD SWAP1 JUMP JUMPDEST PUSH1 0x1 PUSH1 0x1 PUSH1 0xA0 SHL SUB SWAP1 DUP2 AND PUSH1 0x0 SWAP1 DUP2 MSTORE PUSH1 0x4 PUSH1 0x20 MSTORE PUSH1 0x40 DUP2 KECCAK256 DUP1 SLOAD SWAP4 SWAP1 SWAP2 JUMPDEST DUP5 DUP2 LT PUSH2 0x1B08 JUMPI POP POP POP POP POP PUSH1 0x0 SWAP1 JUMP JUMPDEST DUP4 PUSH2 0x1B13 DUP3 DUP6 PUSH2 0x1715 JUMP JUMPDEST SWAP2 SWAP1 SLOAD DUP2 DUP6 AND SWAP3 PUSH1 0x3 SHL SHR AND EQ PUSH2 0x1B32 JUMPI PUSH2 0x1B2D SWAP1 PUSH2 0x18ED JUMP JUMPDEST PUSH2 0x1AF7 JUMP JUMPDEST POP POP POP POP POP PUSH1 0x1 SWAP1 JUMP JUMPDEST PUSH1 0x1 PUSH1 0x1 PUSH1 0xA0 SHL SUB SWAP1 DUP2 AND PUSH1 0x0 SWAP1 DUP2 MSTORE PUSH1 0x4 PUSH1 0x20 DUP2 SWAP1 MSTORE PUSH1 0x40 DUP3 KECCAK256 SWAP1 SWAP4 SWAP3 SWAP1 SWAP2 DUP1 JUMPDEST DUP4 SLOAD DUP1 DUP3 LT ISZERO PUSH2 0x1C15 JUMPI PUSH2 0x1B72 DUP3 DUP7 PUSH2 0x1715 JUMP JUMPDEST SWAP1 SLOAD PUSH1 0x3 SWAP3 SWAP2 DUP4 SHL SHR DUP6 AND DUP8 DUP7 AND EQ PUSH2 0x1B95 JUMPI POP POP PUSH2 0x1B90 SWAP1 PUSH2 0x18ED JUMP JUMPDEST PUSH2 0x1B5E JUMP JUMPDEST SWAP4 SWAP5 SWAP6 POP SWAP6 SWAP2 SWAP1 PUSH1 0x0 NOT SWAP4 DUP5 DUP2 ADD SWAP1 DUP2 GT PUSH2 0x1C02 JUMPI SWAP1 PUSH2 0x18BF DUP7 PUSH2 0x1BBC PUSH2 0x1BCA SWAP5 DUP11 PUSH2 0x1715 JUMP JUMPDEST SWAP1 SLOAD SWAP1 DUP12 SHL SHR AND SWAP2 DUP9 PUSH2 0x1715 JUMP JUMPDEST DUP5 SLOAD SWAP2 DUP3 ISZERO PUSH2 0x1BEF JUMPI POP POP ADD SWAP3 PUSH2 0x1BE1 DUP5 DUP5 PUSH2 0x1715 JUMP JUMPDEST DUP2 SWAP4 SWAP2 SLOAD SWAP3 SHL SHL NOT AND SWAP1 SSTORE SSTORE JUMP JUMPDEST PUSH4 0x4E487B71 PUSH1 0xE0 SHL DUP3 MSTORE PUSH1 0x31 SWAP1 MSTORE PUSH1 0x24 SWAP1 REVERT JUMPDEST PUSH4 0x4E487B71 PUSH1 0xE0 SHL DUP4 MSTORE PUSH1 0x11 DUP5 MSTORE PUSH1 0x24 DUP4 REVERT JUMPDEST POP POP POP POP POP POP POP JUMP INVALID DUP3 0x2A 0xF SHR 0x29 0xFC LOG2 0xC7 NUMBER PUSH6 0x969736C315E SWAP13 PUSH30 0xC38972549BC35637169F07DE9769A26469706673582212206B2EF97E0364 0xB5 0xE6 0x26 PUSH29 0x93AC84C919A7F11A34D10DAE3026B5DBEF1821F6E35164736F6C634300 ADDMOD EQ STOP CALLER "},"methodIdentifiers":{"MAX_FEE()":"bc063e1a","approveTokens(address,uint256)":"f38488ec","calculateFee(uint256)":"99a5d747","decreaseAllowance(address,uint256)":"a457c2d7","emergencyWithdraw(address,uint256)":"95ccea67","emergencyWithdrawETH(uint256)":"6b792c4b","getApprovedAmount(address,address)":"a80aafdc","getMaxProtocolFee()":"03b91a85","getProtocolFee()":"a5a41031","getTotalUserAllowance(address)":"5ab00356","getUserApprovedTokens(address)":"8c85e1c5","increaseAllowance(address,uint256)":"39509351","owner()":"8da5cb5b","pause()":"8456cb59","paused()":"5c975abb","protocolFee()":"b0e21e8a","renounceOwnership()":"715018a6","revokeAllowance(address)":"ad11fe44","setProtocolFee(uint256)":"787dce3d","transferAllApprovedTokens(address)":"1c2eb2ef","transferApprovedTokens(address,address,uint256)":"fa7ad195","transferMultipleApprovedTokens(address,address[],uint256[])":"9ce7b042","transferOwnership(address)":"f2fde38b","unpause()":"3f4ba83a","userApprovedTokens(address,uint256)":"8170fb89","userTokenAllowances(address,address)":"e1063765"}}}}}