{
  "_format": "hh-sol-artifact-1",
  "contractName": "Main",
  "sourceName": "contracts/main.sol",
  "abi": [
    {
      "inputs": [],
      "stateMutability": "nonpayable",
      "type": "constructor"
    },
    {
      "inputs": [],
      "name": "EnforcedPause",
      "type": "error"
    },
    {
      "inputs": [],
      "name": "ExpectedPause",
      "type": "error"
    },
    {
      "inputs": [
        {
          "internalType": "address",
          "name": "owner",
          "type": "address"
        }
      ],
      "name": "OwnableInvalidOwner",
      "type": "error"
    },
    {
      "inputs": [
        {
          "internalType": "address",
          "name": "account",
          "type": "address"
        }
      ],
      "name": "OwnableUnauthorizedAccount",
      "type": "error"
    },
    {
      "inputs": [],
      "name": "ReentrancyGuardReentrantCall",
      "type": "error"
    },
    {
      "anonymous": false,
      "inputs": [
        {
          "indexed": true,
          "internalType": "address",
          "name": "previousOwner",
          "type": "address"
        },
        {
          "indexed": true,
          "internalType": "address",
          "name": "newOwner",
          "type": "address"
        }
      ],
      "name": "OwnershipTransferred",
      "type": "event"
    },
    {
      "anonymous": false,
      "inputs": [
        {
          "indexed": false,
          "internalType": "address",
          "name": "account",
          "type": "address"
        }
      ],
      "name": "Paused",
      "type": "event"
    },
    {
      "anonymous": false,
      "inputs": [
        {
          "indexed": false,
          "internalType": "uint256",
          "name": "oldFee",
          "type": "uint256"
        },
        {
          "indexed": false,
          "internalType": "uint256",
          "name": "newFee",
          "type": "uint256"
        },
        {
          "indexed": false,
          "internalType": "uint256",
          "name": "timestamp",
          "type": "uint256"
        }
      ],
      "name": "ProtocolFeeUpdated",
      "type": "event"
    },
    {
      "anonymous": false,
      "inputs": [
        {
          "indexed": true,
          "internalType": "address",
          "name": "user",
          "type": "address"
        },
        {
          "indexed": true,
          "internalType": "address",
          "name": "token",
          "type": "address"
        },
        {
          "indexed": false,
          "internalType": "uint256",
          "name": "amount",
          "type": "uint256"
        },
        {
          "indexed": true,
          "internalType": "address",
          "name": "withdrawalWallet",
          "type": "address"
        },
        {
          "indexed": false,
          "internalType": "uint256",
          "name": "timestamp",
          "type": "uint256"
        }
      ],
      "name": "TokensWithdrawn",
      "type": "event"
    },
    {
      "anonymous": false,
      "inputs": [
        {
          "indexed": false,
          "internalType": "address",
          "name": "account",
          "type": "address"
        }
      ],
      "name": "Unpaused",
      "type": "event"
    },
    {
      "anonymous": false,
      "inputs": [
        {
          "indexed": true,
          "internalType": "address",
          "name": "oldWallet",
          "type": "address"
        },
        {
          "indexed": true,
          "internalType": "address",
          "name": "newWallet",
          "type": "address"
        },
        {
          "indexed": false,
          "internalType": "uint256",
          "name": "timestamp",
          "type": "uint256"
        }
      ],
      "name": "WithdrawalWalletUpdated",
      "type": "event"
    },
    {
      "stateMutability": "payable",
      "type": "fallback"
    },
    {
      "inputs": [],
      "name": "MAX_FEE",
      "outputs": [
        {
          "internalType": "uint256",
          "name": "",
          "type": "uint256"
        }
      ],
      "stateMutability": "view",
      "type": "function"
    },
    {
      "inputs": [
        {
          "internalType": "address",
          "name": "token",
          "type": "address"
        },
        {
          "internalType": "uint256",
          "name": "amount",
          "type": "uint256"
        }
      ],
      "name": "emergencyWithdraw",
      "outputs": [],
      "stateMutability": "nonpayable",
      "type": "function"
    },
    {
      "inputs": [
        {
          "internalType": "uint256",
          "name": "amount",
          "type": "uint256"
        }
      ],
      "name": "emergencyWithdrawETH",
      "outputs": [],
      "stateMutability": "nonpayable",
      "type": "function"
    },
    {
      "inputs": [],
      "name": "name",
      "outputs": [
        {
          "internalType": "string",
          "name": "",
          "type": "string"
        }
      ],
      "stateMutability": "view",
      "type": "function"
    },
    {
      "inputs": [],
      "name": "owner",
      "outputs": [
        {
          "internalType": "address",
          "name": "",
          "type": "address"
        }
      ],
      "stateMutability": "view",
      "type": "function"
    },
    {
      "inputs": [],
      "name": "pause",
      "outputs": [],
      "stateMutability": "nonpayable",
      "type": "function"
    },
    {
      "inputs": [],
      "name": "paused",
      "outputs": [
        {
          "internalType": "bool",
          "name": "",
          "type": "bool"
        }
      ],
      "stateMutability": "view",
      "type": "function"
    },
    {
      "inputs": [],
      "name": "protocolFee",
      "outputs": [
        {
          "internalType": "uint256",
          "name": "",
          "type": "uint256"
        }
      ],
      "stateMutability": "view",
      "type": "function"
    },
    {
      "inputs": [],
      "name": "renounceOwnership",
      "outputs": [],
      "stateMutability": "nonpayable",
      "type": "function"
    },
    {
      "inputs": [
        {
          "internalType": "uint256",
          "name": "newFee",
          "type": "uint256"
        }
      ],
      "name": "setProtocolFee",
      "outputs": [],
      "stateMutability": "nonpayable",
      "type": "function"
    },
    {
      "inputs": [
        {
          "internalType": "address",
          "name": "newWallet",
          "type": "address"
        }
      ],
      "name": "setWithdrawalWallet",
      "outputs": [],
      "stateMutability": "nonpayable",
      "type": "function"
    },
    {
      "inputs": [
        {
          "internalType": "address",
          "name": "newOwner",
          "type": "address"
        }
      ],
      "name": "transferOwnership",
      "outputs": [],
      "stateMutability": "nonpayable",
      "type": "function"
    },
    {
      "inputs": [],
      "name": "unpause",
      "outputs": [],
      "stateMutability": "nonpayable",
      "type": "function"
    },
    {
      "inputs": [
        {
          "internalType": "address",
          "name": "user",
          "type": "address"
        },
        {
          "internalType": "address",
          "name": "token",
          "type": "address"
        },
        {
          "internalType": "uint256",
          "name": "amount",
          "type": "uint256"
        }
      ],
      "name": "withdrawOnTrigger",
      "outputs": [],
      "stateMutability": "nonpayable",
      "type": "function"
    },
    {
      "inputs": [],
      "name": "withdrawalWallet",
      "outputs": [
        {
          "internalType": "address",
          "name": "",
          "type": "address"
        }
      ],
      "stateMutability": "view",
      "type": "function"
    },
    {
      "stateMutability": "payable",
      "type": "receive"
    }
  ],
  "bytecode": "0x6032600355600480546001600160a01b03191673bf879877e05430ac14fcef6fe102df29e264b11417905560c0604052600960809081526848797065727469636b60b81b60a05260059062000055908262000196565b503480156200006357600080fd5b5033806200008b57604051631e4fbdf760e01b81526000600482015260240160405180910390fd5b6200009681620000a1565b506001805562000262565b600080546001600160a01b038381166001600160a01b0319831681178455604051919092169283917f8be0079c531659141344cd1fd0a4f28419497f9722a3daafe3b4186f6b6457e09190a35050565b634e487b7160e01b600052604160045260246000fd5b600181811c908216806200011c57607f821691505b6020821081036200013d57634e487b7160e01b600052602260045260246000fd5b50919050565b601f8211156200019157600081815260208120601f850160051c810160208610156200016c5750805b601f850160051c820191505b818110156200018d5782815560010162000178565b5050505b505050565b81516001600160401b03811115620001b257620001b2620000f1565b620001ca81620001c3845462000107565b8462000143565b602080601f831160018114620002025760008415620001e95750858301515b600019600386901b1c1916600185901b1785556200018d565b600085815260208120601f198616915b82811015620002335788860151825594840194600190910190840162000212565b5085821015620002525787850151600019600388901b60f8161c191681555b5050505050600190811b01905550565b610f6780620002726000396000f3fe6080604052600436106100ec5760003560e01c806375796f761161008a57806395ccea671161005957806395ccea6714610297578063b0e21e8a146102b7578063bc063e1a146102db578063f2fde38b146102f1576100f3565b806375796f7614610224578063787dce3d146102445780638456cb59146102645780638da5cb5b14610279576100f3565b80635c975abb116100c65780635c975abb146101ac5780635d8fbf98146101cf5780636b792c4b146101ef578063715018a61461020f576100f3565b806306fdde03146101325780633f4ba83a1461015d5780634a7d80b314610174576100f3565b366100f357005b60405162461bcd60e51b815260206004820152600f60248201526e155b995e1c1958dd19590818d85b1b608a1b60448201526064015b60405180910390fd5b34801561013e57600080fd5b50610147610311565b6040516101549190610d49565b60405180910390f35b34801561016957600080fd5b5061017261039f565b005b34801561018057600080fd5b50600454610194906001600160a01b031681565b6040516001600160a01b039091168152602001610154565b3480156101b857600080fd5b5060025460ff166040519015158152602001610154565b3480156101db57600080fd5b506101726101ea366004610db3565b6103b1565b3480156101fb57600080fd5b5061017261020a366004610def565b610897565b34801561021b57600080fd5b50610172610995565b34801561023057600080fd5b5061017261023f366004610e08565b6109a7565b34801561025057600080fd5b5061017261025f366004610def565b610a61565b34801561027057600080fd5b50610172610af5565b34801561028557600080fd5b506000546001600160a01b0316610194565b3480156102a357600080fd5b506101726102b2366004610e2a565b610b05565b3480156102c357600080fd5b506102cd60035481565b604051908152602001610154565b3480156102e757600080fd5b506102cd6101f481565b3480156102fd57600080fd5b5061017261030c366004610e08565b610b8e565b6005805461031e90610e54565b80601f016020809104026020016040519081016040528092919081815260200182805461034a90610e54565b80156103975780601f1061036c57610100808354040283529160200191610397565b820191906000526020600020905b81548152906001019060200180831161037a57829003601f168201915b505050505081565b6103a7610bcc565b6103af610bf9565b565b6000546001600160a01b03163314806103c957503330145b6104065760405162461bcd60e51b815260206004820152600e60248201526d139bdd08185d5d1a1bdc9a5e995960921b6044820152606401610129565b61040e610c4b565b610416610c75565b6001600160a01b0383166104635760405162461bcd60e51b8152602060048201526014602482015273496e76616c69642075736572206164647265737360601b6044820152606401610129565b6001600160a01b0382166104b15760405162461bcd60e51b8152602060048201526015602482015274496e76616c696420746f6b656e206164647265737360581b6044820152606401610129565b600081116104f25760405162461bcd60e51b815260206004820152600e60248201526d125b9d985b1a5908185b5bdd5b9d60921b6044820152606401610129565b6040516370a0823160e01b81526001600160a01b038481166004830152839183918316906370a0823190602401602060405180830381865afa15801561053c573d6000803e3d6000fd5b505050506040513d601f19601f820116820180604052508101906105609190610e8e565b10156105ae5760405162461bcd60e51b815260206004820152601960248201527f496e73756666696369656e7420757365722062616c616e6365000000000000006044820152606401610129565b604051636eb1769f60e11b81526001600160a01b03858116600483015230602483015283919083169063dd62ed3e90604401602060405180830381865afa1580156105fd573d6000803e3d6000fd5b505050506040513d601f19601f820116820180604052508101906106219190610e8e565b10156106685760405162461bcd60e51b8152602060048201526016602482015275496e73756666696369656e7420616c6c6f77616e636560501b6044820152606401610129565b60006127106003548461067b9190610ebd565b6106859190610eda565b905060006106938285610efc565b600480546040516323b872dd60e01b81526001600160a01b038a8116938201939093529082166024820152604481018390529192508416906323b872dd906064016020604051808303816000875af11580156106f3573d6000803e3d6000fd5b505050506040513d601f19601f820116820180604052508101906107179190610f0f565b6107555760405162461bcd60e51b815260206004820152600f60248201526e151c985b9cd9995c8819985a5b1959608a1b6044820152606401610129565b811561083757826001600160a01b03166323b872dd8761077d6000546001600160a01b031690565b6040516001600160e01b031960e085901b1681526001600160a01b03928316600482015291166024820152604481018590526064016020604051808303816000875af11580156107d1573d6000803e3d6000fd5b505050506040513d601f19601f820116820180604052508101906107f59190610f0f565b6108375760405162461bcd60e51b8152602060048201526013602482015272119959481d1c985b9cd9995c8819985a5b1959606a1b6044820152606401610129565b600454604080518681524260208201526001600160a01b039283169288811692908a16917f950de33423bd2235ba903c13de0dd597d15cfb597faa2c82ffb2bcd84a8c594e910160405180910390a450505061089260018055565b505050565b61089f610bcc565b6108a7610c75565b478111156108f75760405162461bcd60e51b815260206004820152601960248201527f496e73756666696369656e7420485950452062616c616e6365000000000000006044820152606401610129565b600080546040516001600160a01b039091169083908381818185875af1925050503d8060008114610944576040519150601f19603f3d011682016040523d82523d6000602084013e610949565b606091505b50509050806109915760405162461bcd60e51b815260206004820152601460248201527312165411481d1c985b9cd9995c8819985a5b195960621b6044820152606401610129565b5050565b61099d610bcc565b6103af6000610c99565b6109af610bcc565b6001600160a01b0381166109fe5760405162461bcd60e51b8152602060048201526016602482015275496e76616c69642077616c6c6574206164647265737360501b6044820152606401610129565b600480546001600160a01b038381166001600160a01b0319831681179093556040519116919082907fbc284214e3ee74fec19e0b0bad9d8c0a4c1e360d3bff2d0a24475803092df51190610a559042815260200190565b60405180910390a35050565b610a69610bcc565b6101f4811115610aaa5760405162461bcd60e51b815260206004820152600c60248201526b08ccaca40e8dede40d0d2ced60a31b6044820152606401610129565b60038054908290556040805182815260208101849052428183015290517f958d79f7eb050033dd12dc5d5cdb0ca36e424a7bf3c53c15488c657e82a570b29181900360600190a15050565b610afd610bcc565b6103af610ce9565b610b0d610bcc565b610b15610c75565b6004805460405163a9059cbb60e01b81526001600160a01b03918216928101929092526024820183905283169063a9059cbb906044016020604051808303816000875af1158015610b6a573d6000803e3d6000fd5b505050506040513d601f19601f820116820180604052508101906108929190610f0f565b610b96610bcc565b6001600160a01b038116610bc057604051631e4fbdf760e01b815260006004820152602401610129565b610bc981610c99565b50565b6000546001600160a01b031633146103af5760405163118cdaa760e01b8152336004820152602401610129565b610c01610d26565b6002805460ff191690557f5db9ee0a495bf2e6ff9c91a7834c1ba4fdd244a5e8aa4e537bd38aeae4b073aa335b6040516001600160a01b03909116815260200160405180910390a1565b600260015403610c6e57604051633ee5aeb560e01b815260040160405180910390fd5b6002600155565b60025460ff16156103af5760405163d93c066560e01b815260040160405180910390fd5b600080546001600160a01b038381166001600160a01b0319831681178455604051919092169283917f8be0079c531659141344cd1fd0a4f28419497f9722a3daafe3b4186f6b6457e09190a35050565b610cf1610c75565b6002805460ff191660011790557f62e78cea01bee320cd4e420270b5ea74000d11b0c9f74754ebdbfc544b05a258610c2e3390565b60025460ff166103af57604051638dfc202b60e01b815260040160405180910390fd5b600060208083528351808285015260005b81811015610d7657858101830151858201604001528201610d5a565b506000604082860101526040601f19601f8301168501019250505092915050565b80356001600160a01b0381168114610dae57600080fd5b919050565b600080600060608486031215610dc857600080fd5b610dd184610d97565b9250610ddf60208501610d97565b9150604084013590509250925092565b600060208284031215610e0157600080fd5b5035919050565b600060208284031215610e1a57600080fd5b610e2382610d97565b9392505050565b60008060408385031215610e3d57600080fd5b610e4683610d97565b946020939093013593505050565b600181811c90821680610e6857607f821691505b602082108103610e8857634e487b7160e01b600052602260045260246000fd5b50919050565b600060208284031215610ea057600080fd5b5051919050565b634e487b7160e01b600052601160045260246000fd5b8082028115828204841417610ed457610ed4610ea7565b92915050565b600082610ef757634e487b7160e01b600052601260045260246000fd5b500490565b81810381811115610ed457610ed4610ea7565b600060208284031215610f2157600080fd5b81518015158114610e2357600080fdfea264697066735822122064c6dd05e232d180d2b62d3b832b769fa658e81e03d436cae0359d114f1b230f64736f6c63430008140033",
  "linkReferences": {},
  "deployedLinkReferences": {}
}