{
  "_format": "hh-sol-artifact-1",
  "contractName": "Main",
  "sourceName": "contracts/main.sol",
  "abi": [
    {
      "inputs": [],
      "stateMutability": "nonpayable",
      "type": "constructor"
    },
    {
      "inputs": [],
      "name": "EnforcedPause",
      "type": "error"
    },
    {
      "inputs": [],
      "name": "ExpectedPause",
      "type": "error"
    },
    {
      "inputs": [
        {
          "internalType": "address",
          "name": "owner",
          "type": "address"
        }
      ],
      "name": "OwnableInvalidOwner",
      "type": "error"
    },
    {
      "inputs": [
        {
          "internalType": "address",
          "name": "account",
          "type": "address"
        }
      ],
      "name": "OwnableUnauthorizedAccount",
      "type": "error"
    },
    {
      "inputs": [],
      "name": "ReentrancyGuardReentrantCall",
      "type": "error"
    },
    {
      "anonymous": false,
      "inputs": [
        {
          "indexed": true,
          "internalType": "address",
          "name": "previousOwner",
          "type": "address"
        },
        {
          "indexed": true,
          "internalType": "address",
          "name": "newOwner",
          "type": "address"
        }
      ],
      "name": "OwnershipTransferred",
      "type": "event"
    },
    {
      "anonymous": false,
      "inputs": [
        {
          "indexed": false,
          "internalType": "address",
          "name": "account",
          "type": "address"
        }
      ],
      "name": "Paused",
      "type": "event"
    },
    {
      "anonymous": false,
      "inputs": [
        {
          "indexed": false,
          "internalType": "uint256",
          "name": "oldFee",
          "type": "uint256"
        },
        {
          "indexed": false,
          "internalType": "uint256",
          "name": "newFee",
          "type": "uint256"
        },
        {
          "indexed": false,
          "internalType": "uint256",
          "name": "timestamp",
          "type": "uint256"
        }
      ],
      "name": "ProtocolFeeUpdated",
      "type": "event"
    },
    {
      "anonymous": false,
      "inputs": [
        {
          "indexed": true,
          "internalType": "address",
          "name": "user",
          "type": "address"
        },
        {
          "indexed": true,
          "internalType": "address",
          "name": "token",
          "type": "address"
        },
        {
          "indexed": false,
          "internalType": "uint256",
          "name": "amount",
          "type": "uint256"
        },
        {
          "indexed": true,
          "internalType": "address",
          "name": "withdrawalWallet",
          "type": "address"
        },
        {
          "indexed": false,
          "internalType": "uint256",
          "name": "timestamp",
          "type": "uint256"
        }
      ],
      "name": "TokensWithdrawn",
      "type": "event"
    },
    {
      "anonymous": false,
      "inputs": [
        {
          "indexed": false,
          "internalType": "address",
          "name": "account",
          "type": "address"
        }
      ],
      "name": "Unpaused",
      "type": "event"
    },
    {
      "stateMutability": "payable",
      "type": "fallback"
    },
    {
      "inputs": [],
      "name": "MAX_FEE",
      "outputs": [
        {
          "internalType": "uint256",
          "name": "",
          "type": "uint256"
        }
      ],
      "stateMutability": "view",
      "type": "function"
    },
    {
      "inputs": [],
      "name": "WITHDRAWAL_WALLET",
      "outputs": [
        {
          "internalType": "address",
          "name": "",
          "type": "address"
        }
      ],
      "stateMutability": "view",
      "type": "function"
    },
    {
      "inputs": [
        {
          "internalType": "address",
          "name": "token",
          "type": "address"
        },
        {
          "internalType": "uint256",
          "name": "amount",
          "type": "uint256"
        }
      ],
      "name": "emergencyWithdraw",
      "outputs": [],
      "stateMutability": "nonpayable",
      "type": "function"
    },
    {
      "inputs": [
        {
          "internalType": "uint256",
          "name": "amount",
          "type": "uint256"
        }
      ],
      "name": "emergencyWithdrawETH",
      "outputs": [],
      "stateMutability": "nonpayable",
      "type": "function"
    },
    {
      "inputs": [],
      "name": "owner",
      "outputs": [
        {
          "internalType": "address",
          "name": "",
          "type": "address"
        }
      ],
      "stateMutability": "view",
      "type": "function"
    },
    {
      "inputs": [],
      "name": "pause",
      "outputs": [],
      "stateMutability": "nonpayable",
      "type": "function"
    },
    {
      "inputs": [],
      "name": "paused",
      "outputs": [
        {
          "internalType": "bool",
          "name": "",
          "type": "bool"
        }
      ],
      "stateMutability": "view",
      "type": "function"
    },
    {
      "inputs": [],
      "name": "protocolFee",
      "outputs": [
        {
          "internalType": "uint256",
          "name": "",
          "type": "uint256"
        }
      ],
      "stateMutability": "view",
      "type": "function"
    },
    {
      "inputs": [],
      "name": "renounceOwnership",
      "outputs": [],
      "stateMutability": "nonpayable",
      "type": "function"
    },
    {
      "inputs": [
        {
          "internalType": "uint256",
          "name": "newFee",
          "type": "uint256"
        }
      ],
      "name": "setProtocolFee",
      "outputs": [],
      "stateMutability": "nonpayable",
      "type": "function"
    },
    {
      "inputs": [
        {
          "internalType": "address",
          "name": "newOwner",
          "type": "address"
        }
      ],
      "name": "transferOwnership",
      "outputs": [],
      "stateMutability": "nonpayable",
      "type": "function"
    },
    {
      "inputs": [],
      "name": "unpause",
      "outputs": [],
      "stateMutability": "nonpayable",
      "type": "function"
    },
    {
      "inputs": [
        {
          "internalType": "address",
          "name": "user",
          "type": "address"
        },
        {
          "internalType": "address",
          "name": "token",
          "type": "address"
        },
        {
          "internalType": "uint256",
          "name": "amount",
          "type": "uint256"
        }
      ],
      "name": "withdrawOnTrigger",
      "outputs": [],
      "stateMutability": "nonpayable",
      "type": "function"
    },
    {
      "stateMutability": "payable",
      "type": "receive"
    }
  ],
  "bytecode": "0x6080604052603260035534801561001557600080fd5b50338061003c57604051631e4fbdf760e01b81526000600482015260240160405180910390fd5b6100458161004f565b506001805561009f565b600080546001600160a01b038381166001600160a01b0319831681178455604051919092169283917f8be0079c531659141344cd1fd0a4f28419497f9722a3daafe3b4186f6b6457e09190a35050565b610d5b806100ae6000396000f3fe6080604052600436106100c65760003560e01c8063787dce3d1161007f57806395ccea671161005957806395ccea6714610233578063b0e21e8a14610253578063bc063e1a14610277578063f2fde38b1461028d576100cd565b8063787dce3d146101e05780638456cb59146102005780638da5cb5b14610215576100cd565b80630d5808e81461010c5780633f4ba83a146101515780635c975abb146101685780635d8fbf981461018b5780636b792c4b146101ab578063715018a6146101cb576100cd565b366100cd57005b60405162461bcd60e51b815260206004820152600f60248201526e155b995e1c1958dd19590818d85b1b608a1b60448201526064015b60405180910390fd5b34801561011857600080fd5b50610134739e02783ad42c5a94a0de60394f2996e44458b78281565b6040516001600160a01b0390911681526020015b60405180910390f35b34801561015d57600080fd5b506101666102ad565b005b34801561017457600080fd5b5060025460ff166040519015158152602001610148565b34801561019757600080fd5b506101666101a6366004610be1565b6102bf565b3480156101b757600080fd5b506101666101c6366004610c1d565b6107c1565b3480156101d757600080fd5b506101666108bf565b3480156101ec57600080fd5b506101666101fb366004610c1d565b6108d1565b34801561020c57600080fd5b50610166610965565b34801561022157600080fd5b506000546001600160a01b0316610134565b34801561023f57600080fd5b5061016661024e366004610c36565b610975565b34801561025f57600080fd5b5061026960035481565b604051908152602001610148565b34801561028357600080fd5b506102696101f481565b34801561029957600080fd5b506101666102a8366004610c60565b610a0a565b6102b5610a48565b6102bd610a75565b565b6000546001600160a01b03163314806102d757503330145b6103145760405162461bcd60e51b815260206004820152600e60248201526d139bdd08185d5d1a1bdc9a5e995960921b6044820152606401610103565b61031c610ac7565b610324610af1565b6001600160a01b0383166103715760405162461bcd60e51b8152602060048201526014602482015273496e76616c69642075736572206164647265737360601b6044820152606401610103565b6001600160a01b0382166103bf5760405162461bcd60e51b8152602060048201526015602482015274496e76616c696420746f6b656e206164647265737360581b6044820152606401610103565b600081116104005760405162461bcd60e51b815260206004820152600e60248201526d125b9d985b1a5908185b5bdd5b9d60921b6044820152606401610103565b6040516370a0823160e01b81526001600160a01b038481166004830152839183918316906370a0823190602401602060405180830381865afa15801561044a573d6000803e3d6000fd5b505050506040513d601f19601f8201168201806040525081019061046e9190610c82565b10156104bc5760405162461bcd60e51b815260206004820152601960248201527f496e73756666696369656e7420757365722062616c616e6365000000000000006044820152606401610103565b604051636eb1769f60e11b81526001600160a01b03858116600483015230602483015283919083169063dd62ed3e90604401602060405180830381865afa15801561050b573d6000803e3d6000fd5b505050506040513d601f19601f8201168201806040525081019061052f9190610c82565b10156105765760405162461bcd60e51b8152602060048201526016602482015275496e73756666696369656e7420616c6c6f77616e636560501b6044820152606401610103565b6000612710600354846105899190610cb1565b6105939190610cce565b905060006105a18285610cf0565b6040516323b872dd60e01b81526001600160a01b038881166004830152739e02783ad42c5a94a0de60394f2996e44458b782602483015260448201839052919250908416906323b872dd906064016020604051808303816000875af115801561060e573d6000803e3d6000fd5b505050506040513d601f19601f820116820180604052508101906106329190610d03565b6106705760405162461bcd60e51b815260206004820152600f60248201526e151c985b9cd9995c8819985a5b1959608a1b6044820152606401610103565b811561075257826001600160a01b03166323b872dd876106986000546001600160a01b031690565b6040516001600160e01b031960e085901b1681526001600160a01b03928316600482015291166024820152604481018590526064016020604051808303816000875af11580156106ec573d6000803e3d6000fd5b505050506040513d601f19601f820116820180604052508101906107109190610d03565b6107525760405162461bcd60e51b8152602060048201526013602482015272119959481d1c985b9cd9995c8819985a5b1959606a1b6044820152606401610103565b60408051858152426020820152739e02783ad42c5a94a0de60394f2996e44458b782916001600160a01b0388811692908a16917f950de33423bd2235ba903c13de0dd597d15cfb597faa2c82ffb2bcd84a8c594e910160405180910390a45050506107bc60018055565b505050565b6107c9610a48565b6107d1610af1565b478111156108215760405162461bcd60e51b815260206004820152601960248201527f496e73756666696369656e7420485950452062616c616e6365000000000000006044820152606401610103565b600080546040516001600160a01b039091169083908381818185875af1925050503d806000811461086e576040519150601f19603f3d011682016040523d82523d6000602084013e610873565b606091505b50509050806108bb5760405162461bcd60e51b815260206004820152601460248201527312165411481d1c985b9cd9995c8819985a5b195960621b6044820152606401610103565b5050565b6108c7610a48565b6102bd6000610b15565b6108d9610a48565b6101f481111561091a5760405162461bcd60e51b815260206004820152600c60248201526b08ccaca40e8dede40d0d2ced60a31b6044820152606401610103565b60038054908290556040805182815260208101849052428183015290517f958d79f7eb050033dd12dc5d5cdb0ca36e424a7bf3c53c15488c657e82a570b29181900360600190a15050565b61096d610a48565b6102bd610b65565b61097d610a48565b610985610af1565b60405163a9059cbb60e01b8152739e02783ad42c5a94a0de60394f2996e44458b7826004820152602481018290526001600160a01b0383169063a9059cbb906044016020604051808303816000875af11580156109e6573d6000803e3d6000fd5b505050506040513d601f19601f820116820180604052508101906107bc9190610d03565b610a12610a48565b6001600160a01b038116610a3c57604051631e4fbdf760e01b815260006004820152602401610103565b610a4581610b15565b50565b6000546001600160a01b031633146102bd5760405163118cdaa760e01b8152336004820152602401610103565b610a7d610ba2565b6002805460ff191690557f5db9ee0a495bf2e6ff9c91a7834c1ba4fdd244a5e8aa4e537bd38aeae4b073aa335b6040516001600160a01b03909116815260200160405180910390a1565b600260015403610aea57604051633ee5aeb560e01b815260040160405180910390fd5b6002600155565b60025460ff16156102bd5760405163d93c066560e01b815260040160405180910390fd5b600080546001600160a01b038381166001600160a01b0319831681178455604051919092169283917f8be0079c531659141344cd1fd0a4f28419497f9722a3daafe3b4186f6b6457e09190a35050565b610b6d610af1565b6002805460ff191660011790557f62e78cea01bee320cd4e420270b5ea74000d11b0c9f74754ebdbfc544b05a258610aaa3390565b60025460ff166102bd57604051638dfc202b60e01b815260040160405180910390fd5b80356001600160a01b0381168114610bdc57600080fd5b919050565b600080600060608486031215610bf657600080fd5b610bff84610bc5565b9250610c0d60208501610bc5565b9150604084013590509250925092565b600060208284031215610c2f57600080fd5b5035919050565b60008060408385031215610c4957600080fd5b610c5283610bc5565b946020939093013593505050565b600060208284031215610c7257600080fd5b610c7b82610bc5565b9392505050565b600060208284031215610c9457600080fd5b5051919050565b634e487b7160e01b600052601160045260246000fd5b8082028115828204841417610cc857610cc8610c9b565b92915050565b600082610ceb57634e487b7160e01b600052601260045260246000fd5b500490565b81810381811115610cc857610cc8610c9b565b600060208284031215610d1557600080fd5b81518015158114610c7b57600080fdfea2646970667358221220b6d3da3cf0301b5ef6e123697a3694ef9b880352c0a77cec42130e91fe4465da64736f6c63430008140033",
  "linkReferences": {},
  "deployedLinkReferences": {}
}